:020000040800F2
:100000003002002001010008050100080701000876
:10001000090100080B0100080D01000800000000A4
:100020000000000000000000000000000F010008B8
:10003000110100080000000013010008150100086C
:100040001701000817010008170100081701000830
:100050001701000817010008170100081701000820
:100060001701000817010008170100081701000810
:100070001701000817010008170100081701000800
:1000800017010008170100081701000817010008F0
:1000900017010008170100081701000817010008E0
:1000A00017010008170100081701000817010008D0
:1000B00017010008170100081701000817010008C0
:1000C00017010008170100081701000817010008B0
:1000D00017010008170100081701000817010008A0
:1000E000170100081701000817010008DFF80CD0FD
:1000F00002F058F8004800470503000830020020CD
:1001000005480047FEE7FEE7FEE7FEE7FEE7FEE7FD
:10011000FEE7FEE7FEE7FEE7ED00000810B500BFD2
:1001200000F00FFBB94908604FF47A7000F02CFB27
:100130004FF47A7000F028FB00F003FBB44908602C
:10014000B24800683221B0FBF1F0B14909683222AF
:10015000B1FBF2F1884200D0E2E710BD2DE9F04199
:10016000ACA002F063F8FFF7D9FF00F0EAFAB0495B
:10017000086008460068A6490968401AAC4908604A
:10018000ACA002F053F84FF47A7000F0FDFA4FF48F
:100190007A7000F0F9FA4FF47A7000F0F5FA4FF443
:1001A0007A7000F0F1FA00F0CCFAA1490860096811
:1001B000974A1268881A01F06DFD06460022A44B8A
:1001C00001F0F4FC044601F099FDA2490860A2493F
:1001D000A048006801F07AFC9E49086000F003FC2A
:1001E00000F013FC9C499B48006801F0A1FC994970
:1001F00008600846006801F06EFD044622460B4682
:1002000096A002F013F8BDE8F08170B500F099FAFD
:1002100087490860084600687D490968401A844992
:10022000086095480078F0B90846006801F02DFD97
:10023000044688480168204601F07AFC8F4908602E
:100240008F498E48006801F07FFD02D200208B4963
:1002500008608A48006801F03EFD044622460B46CD
:1002600088A001F0E3FF84480078012822D170487B
:10027000006801F00AFD054676480168284601F04D
:1002800057FC0446744901F021FC7C4908607C4914
:100290007A48006801F058FD02D2002077490860D2
:1002A0007648006801F017FD044622460B467BA005
:1002B00001F0BCFF70480078022822D15C48006839
:1002C00001F0E3FC054663480168284601F030FC74
:1002D0000446774901F0FAFB6849086068496748B5
:1002E000006801F031FD02D20020644908606348D3
:1002F000006801F0F0FC044622460B466DA001F0B8
:1003000095FF70BD01F0B8FB00F05CFA00F096F9C3
:10031000FFF704FF00F079FB4FF09F414D48006864
:1003200001F008FD0FD169A001F080FF6D48494937
:1003300008600846006801F0CEFC044622460B46E1
:1003400069A001F073FF6FA001F070FF77A001F0CA
:100350006DFF80A001F06AFF88A001F067FF91A007
:1003600001F064FF99A001F061FFA2A001F05EFF1F
:100370004BE00020A949087040F22551A84801F03F
:100380003DF868B12021A64801F035F840F225512A
:10039000A34801F059F8A24800F0D1FF9F49087026
:1003A0009E480078002830D09C480078062827D244
:1003B000DFE800F02603060B181BFFF726FF23E0FB
:1003C000FFF7ACFEFFF721FF1EE02B480078401C32
:1003D000C0B229490870032801DB00200870FFF72C
:1003E00014FF11E0FFF7BAFE0EE01A48006801F0B2
:1003F00072FC044622460B463BA001F017FF03E0C7
:1004000088A001F013FF00BF00BFB2E7100000207A
:100410000C000020C7EBD2C6B3FDB3D3CCA8C9CF24
:10042000CBF9D3D0D2ECCEEFA1ADA1AD200D0A0017
:1004300008000020C7EBB7C5D6C32031206B67206A
:10044000B1EAD7BCEDC0C2EBA1ADA1AD200D0A0051
:100450000000F03F1400002000007A44D0A3D7BC75
:10046000D6B520436F7272656374696F6E20203D4C
:10047000202566200D0A0000010000200400002055
:1004800000401C46B5B1C7B0D6D8C1BF203D20251D
:100490002E3266206B670D0A00000000B5B1C7B0B0
:1004A000D6D8C1BF203D20252E326620670D0A0018
:1004B00000409C45B5B1C7B0D6D8C1BF203D20256E
:1004C0002E33662063740D0A000000002F2A2A2AAA
:1004D00020B3D3CCA8CEB4D0A3D7BC202A2A2A2FAD
:1004E000200D0A0017B75148D0A3D7BCD6B520437A
:1004F0006F7272656374696F6E203D202566200DF2
:100500000A0000002F2A2A2A2A2053544D3332464B
:1005100031303343385436204858373131B5E7D776
:10052000D3B3D3202A2A2A2A2F0D0A002F2A2A2AB7
:100530002A2A2A2A2A2A20C7EBCAE4C8EBB4AEBF6B
:10054000DAD6B8C1EE20202A2A2A2A2A2A2A2A2ADA
:100550002F0D0A002F2A2A2A2A2A2A2A2A2A20315B
:1005600020B3C6D6D82020202020202020202A2AD0
:100570002A2A2A2A2A2A2A2F0D0A00002F2A2A2A62
:100580002A2A2A2A2A2A203220C8A5C6A4202020C6
:100590002020202020202A2A2A2A2A2A2A2A2A2FF2
:1005A0000D0A00002F2A2A2A2A2A2A2A2A2A203338
:1005B00020D7AABBBBB5A5CEBB20202020202A2A4D
:1005C0002A2A2A2A2A2A2A2F0D0A00002F2A2A2A12
:1005D0002A2A2A2A2A2A203420B3D3CCA8D0A3D767
:1005E000BC20202020202A2A2A2A2A2A2A2A2A2F06
:1005F0000D0A00002F2A2A2A2A2A2A2A2A2A2035E6
:1006000020B2E9BFB4D0A3D7BCD6B52020202A2A77
:100610002A2A2A2A2A2A2A2F0D0A0000000000204E
:10062000004400402A2A2A2A2A20CEDED0A7D6B8A3
:10063000C1EE202A2A2A2A2A0D0A000008B5012123
:10064000042000F0F5FC4FF40070ADF8000010201D
:100650008DF8030003208DF802006946584800F029
:100660004BFA4FF40071564800F0F5FA4FF48060F1
:10067000ADF8000004208DF803006946504800F0F2
:100680003BFA08BD014601EBC1024FF0E0235A617D
:1006900001221A6100229A6100BF4FF0E022106926
:1006A00000F001021AB100F48032002AF5D00022D5
:1006B0004FF0E0231A619A61704770B500244FF43F
:1006C00000713F4800F0C7FA0120FFF7DBFF00BFD1
:1006D0004FF480613A4800F0A2FA0028F8D10025D2
:1006E00019E04FF40071364800F0B3FA64000120BD
:1006F000FFF7C8FF4FF40071314800F0ACFA4FF437
:1007000080612F4800F08BFA00B1641C0120FFF7D4
:10071000B9FF681CC5B2182DE3DB4FF400712848FF
:1007200000F097FA0120FFF7ADFF84F400044FF4C6
:100730000071234800F08FFA0120FFF7A3FF204645
:1007400070BD2DE9F041FFF7B8FF04462546274666
:100750004FF000080DE0FFF7B0FF0446AC4200D9AF
:100760002546BC4200D22746264408F1010000F08D
:10077000FF08B8F1160FEEDB701BC01B1421B0FB95
:10078000F1F42046BDE8F081014642F228324A43A6
:100790004FF0E0235A6101221A6100229A6100BFE2
:1007A0004FF0E022106900F001021AB100F480322B
:1007B000002AF5D000224FF0E0231A619A617047B9
:1007C0000008014000B585B00121042000F030FC94
:1007D0000121480400F039FC0420ADF81000182075
:1007E0008DF8130003208DF8120004A97A4800F058
:1007F00083F90820ADF8100004208DF8130004A937
:10080000754800F079F94FF4E13000900020ADF820
:100810000400ADF80600ADF80800ADF80C000C209F
:10082000ADF80A0069466D4800F0AFFC01216B4845
:1008300000F019FD012240F22551684800F01FFD2B
:10084000002240F22771654800F019FD05B000BD97
:1008500070B504460D46E1B2604800F06CFD00BF83
:100860005E48008800F080000028F9D0204670BD66
:10087000F0B503460D461646002729460A2E03D03A
:10088000002008702846F0BD33B9302001F8010B74
:10089000002008702846F6E7002B03DA2D2001F827
:1008A000010B5B4242F210720DE093FBF2F404B9CB
:1008B00037B104F1300001F8010B04FB12330127BA
:1008C0000A2092FBF0F2002AEFDC00200870284694
:1008D000D9E70FB470B586B006460CA8019073E056
:1008E0000B9800785C281CD10B98401C0B9000786A
:1008F0006E2809D072280FD10D21304600F01BFD63
:100900000B98401C0B900BE00A21304600F013FDC1
:100910000B98401C0B9003E00B98401C0B9000BF01
:100920004BE00B980078252840D10B98401C0B9089
:100930000078642818D0732833D1019810C801902A
:100940000BE02178304600F0F6FC00BF4021304635
:1009500000F048FD0028F9D0641C20780028F0D170
:100960000B98401C0B9020E0019820C801900A22AF
:1009700002A92846FFF77CFF02AC0BE02178304645
:1009800000F0D9FC00BF4021304600F02BFD0028CC
:10099000F9D0641C20780028F0D10B98401C0B90F3
:1009A00003E00B98401C0B9000BF06E00B9810F87A
:1009B000011B0B90304600F0BEFC00BF40213046CA
:1009C00000F010FD0028F9D00B980078002887D19E
:1009D00006B070BC5DF814FB000801400044004004
:1009E00001460868704710B500F05DFD0C4800F046
:1009F000A1FD0C48006801F05AF904462146084858
:100A000000F029FE00F055FD10BD10B50448FFF7B9
:100A1000E7FF044601F039F90249086010BD000003
:100A2000008000081400002010B50446C649601A72
:100A30008C422FD009DCC548204480B1B0F5806FCE
:100A400016D0B0F5006F4AD11BE0B0F5806F2AD008
:100A5000B0F5006F30D0B0F5406F40D135E00121E6
:100A6000042000F0FFFA0021042000F0FBFA37E038
:100A70000121082000F0F6FA0021082000F0F2FA27
:100A80002EE00121102000F0EDFA0021102000F0EE
:100A9000E9FA25E00121202000F0E4FA00212020DD
:100AA00000F0E0FA1CE00121402000F0DBFA002118
:100AB000402000F0D7FA13E00121802000F0D2FAA4
:100AC0000021802000F0CEFA0AE00121080200F0A7
:100AD000C9FA00214FF4807000F0C4FA00E000BFB2
:100AE00000BF10BD10B50121084600F0BBFA00217F
:100AF000012000F0B7FA10BD2DE9F04102460025B3
:100B00000026002000230024002791F803C00CF0E9
:100B10000F0591F803C00CF0100CBCF1000F03D0CE
:100B200091F802C04CEA050591F800C0BCF1000F35
:100B300031D0146800202BE04FF0010C0CFA00F3C8
:100B4000B1F800C00CEA03069E4220D183004FF0AA
:100B50000F0C0CFA03F7BC4305FA03FC4CEA04043F
:100B600091F803C0BCF1280F06D14FF0010C0CFA2C
:100B700000FCC2F814C00AE091F803C0BCF1480FB1
:100B800005D14FF0010C0CFA00FCC2F810C0401C5B
:100B90000828D1D31460B1F800C0BCF1FF0F34DDD8
:100BA000546800202EE000F1080C4FF0010808FA0C
:100BB0000CF3B1F800C00CEA03069E4221D1830079
:100BC0004FF00F0C0CFA03F7BC4305FA03FC4CEA98
:100BD000040491F803C0BCF1280F05D100F1080C02
:100BE00008FA0CF8C2F8148091F803C0BCF1480F61
:100BF00007D100F1080C4FF0010808FA0CF8C2F810
:100C00001080401C0828CED35460BDE8F0814FF618
:100C1000FF710180022181700421C170704702467A
:100C2000002093680B400BB1012000E000207047CA
:100C30000146886880B2704702460020D3680B40A6
:100C40000BB1012000E0002070470146C86880B267
:100C5000704701617047416170470AB1016100E06E
:100C600041617047C16070474FF480320A4382612E
:100C70008161826182698269704702460020344B3B
:100C800018684FF68073184040EA02100843304B52
:100C9000186070472F49C8617047F0B50A460023B5
:100CA0000024002100252A4E7168C0F3034583B259
:100CB00000F44016B6F5401F08D121F07061244EB3
:100CC000766826F07066224F7E6012E000F480168F
:100CD000B6F5801F06D1032606FA05F4A14341F0BC
:100CE000706106E0460D360103FA06F6B14341F0A5
:100CF000706122B1460D360103FA06F63143144EF7
:100D00007160F0BD30B500228B071C0F0F2303FA72
:100D100004F20F4B08338C1053F8243093430C4CDF
:100D200008348D1044F8253023468C1053F82430B5
:100D30008C07240F00FA04F42343054C08348D106B
:100D400044F8253030BD00000014014000F8FEBF1B
:100D50000000014000002042DE48006840F0010031
:100D6000DC49086008464068DB490840D9494860CA
:100D700008460068D9490840D64908600846006816
:100D800020F4802008600846406820F4FE00486097
:100D9000002088607047CF49096821F48031CD4A2E
:100DA00011601146096821F480211160B0F5803F7F
:100DB00003D0B0F5802F0ED106E0C649096841F492
:100DC0008031C44A116007E0C249096841F4A0219A
:100DD000C04A116000E000BF00BF704710B5014677
:100DE0000022002300204A11012A02D1B94C2368B5
:100DF00006E0022A02D1B74C236A01E0B54C636ACF
:100E000001F01F02012494401C400CB1012000E0BD
:100E1000002010BD38B5002000900024002500BF40
:100E20003120FFF7DBFF05460098401C00901DB9FC
:100E30000098B0F5A06FF3D13120FFF7CFFF08B1D4
:100E4000012400E00024204638BD01460020A14ACC
:100E5000106820F0F80040EAC10010607047A04917
:100E600008607047024600209A4B586820F47C10B6
:100E700042EA01031843974B586070479849086647
:100E8000704701460020934A506820F00300084351
:100E9000506070478F48406800F00C007047014672
:100EA00000208C4A506820F0F000084350607047E2
:100EB00001460020874A506820F4E06008435060F3
:100EC000704701460020834A506820F4605040EA91
:100ED000C1005060704729B17E4A527A02437D4B6F
:100EE0005A7204E07B4A527A82437A4B5A727047B4
:100EF0007B49D8310860704701460020754A506828
:100F000020F440400843506070470021714A20326D
:100F10001170704A82F82010012802D004280AD1EA
:100F200004E001216B4A2032117005E00521694A75
:100F30002032117000E000BF00BF704769490860AF
:100F400070476449096A0143624A11627047654902
:100F500044390860704730B5002100220024002386
:100F60005C4D6D6805F00C0121B1042905D00829FC
:100F700023D105E05C4D056022E05B4D05601FE07C
:100F8000544D6D6805F47012022505EB9242514DE7
:100F90006D6805F480341CB9544D554305600BE071
:100FA0004C4D6D6805F400351DB1504D554305603D
:100FB00002E04D4D5543056002E04B4D056000BF1A
:100FC00000BF444D6D6805F0F0010909484D6B5CA8
:100FD0000568DD4045603F4D6D6805F4E061090A34
:100FE000434D6B5C4568DD4085603A4D6D6805F4A6
:100FF0006051C90A3E4D6B5C4568DD40C560354DAA
:101000006D6805F44041890B3A4D6B5CC568B5FBD2
:10101000F3F5056130BD29B12E4A526902432D4BCB
:101020005A6104E02B4A526982432A4B5A61704745
:1010300029B1284A92690243264B9A6104E0254A65
:1010400092698243234B9A61704729B1214AD26940
:101050000243204BDA6104E01E4AD26982431D4BF1
:10106000DA61704729B11B4AD2680243194BDA6032
:1010700004E0184AD2688243164BDA60704729B1FF
:10108000144A12690243134B1A6104E0114A1269AF
:101090008243104B1A61704712494039086070470B
:1010A0000F49C86470470B49C87170470948406AC6
:1010B00040F0807007494862704701460020054AA9
:1010C00092680A400AB1012000E0002070470149FF
:1010D00088727047001002400000FFF8FFFFF6FE24
:1010E000000042428004424200127A0000093D00A2
:1010F000180000202800002010B50446D749601AC7
:101100008C422BD006DCD648204498B1B0F5806FD5
:1011100038D119E0B0F5806F2AD0B0F56C4F31D1DD
:1011200001218803FFF79EFF00214FF48040FFF765
:1011300099FF28E001214804FFF7A1FF00214FF4A7
:101140000030FFF79CFF1EE001218804FFF797FFA6
:1011500000214FF48020FFF792FF14E00121C80422
:10116000FFF78DFF00214FF40020FFF788FF0AE012
:1011700001210805FFF783FF00214FF48010FFF7DE
:101180007EFF00E000BF00BF10BD2DE9F04786B034
:1011900005460E460024A24600BF00BF00272F468A
:1011A0002C8A4CF6FF700440F08804432C82AC89F2
:1011B0004EF6F3100440B088318908437189084322
:1011C0000443AC81AC8A4FF6FF400440B08904432D
:1011D000AC8201A8FFF7BFFEA248874202D1DDF82A
:1011E00010A001E0DDF80CA00AEBCA0000EB0A1029
:1011F00031688900B0FBF1F86420B8FBF0F004011D
:101200002009642101FB1089322000EB0910B0FB9A
:10121000F1F000F00F0004432C8106B0BDE8F08728
:101220004FF41651016000218180C18001810C21A1
:10123000418100218181704710B502460020108A4B
:101240004FF2FF0318400B884C8823438C882343BC
:10125000CC8823431843108210BD002101804180B7
:101260008180C180704721B1828942F4005282811D
:1012700004E082894DF6FF731A4082817047F0B511
:10128000034600240026002500201846C1F342141E
:1012900001F01F06012707FA06F5012C01D10C30D9
:1012A00004E0022C01D1103000E014301AB10768BC
:1012B0002F43076002E00768AF430760F0BD1AB133
:1012C000838A0B43838202E0838A8B438382704745
:1012D000028A4FF6F0731A400282028A0A4302829F
:1012E000704782894FF2FF731A40828182890A43D4
:1012F0008281704721B1828942F00202828104E03A
:1013000082894FF6FD731A4082817047028A4FF638
:10131000DF731A400282028A0A430282704721B1B7
:10132000028A42F48042028204E0028A4BF6FF7392
:101330001A4002827047C1F308028280704701465A
:101340008888C0F308007047818941F001018181DC
:101350007047028BD2B20283028B42EA01220283DF
:101360007047028B02F47F420283028B0A4302839E
:10137000704721B1828A42F02002828204E0828A90
:101380004FF6DF731A408282704721B1828A42F0A1
:101390001002828204E0828A4FF6EF731A40828242
:1013A000704721B1828A42F00802828204E0828A78
:1013B0004FF6F7731A4082827047828A4FF6FB73AA
:1013C0001A408282828A0A438282704721B1828ACD
:1013D00042F00202828204E0828A4FF6FD731A40D4
:1013E000828270470246002013880B400BB1012017
:1013F00000E000207047CA430280704770B5024683
:101400000B460024002100250020C3F3421503F001
:101410001F01012606FA01F1012D02D19689314002
:1014200006E0022D02D1168A314001E0968A314051
:101430001C12012606FA04F41688344011B10CB1CE
:10144000012000E0002070BD10B5002200230A1228
:1014500001249440A3B2DC43048010BD004C004042
:1014600000BCFFBF0038014001460020FB4A106865
:1014700000F03800084310607047F849096821F00F
:101480000801F64A1160114609680143116070476E
:10149000F249096821F01001F04A1160114609680B
:1014A000014311607047EE48EC494860ED484860E0
:1014B0007047EA48006940F08000E84908617047D9
:1014C0000420E649C96801F0010109B101200EE0DC
:1014D000E249C96801F0040109B1022007E0DF49CF
:1014E000C96801F0100109B1032000E00420704731
:1014F00008B500200090FF20009002E00098401EF8
:10150000009000980028F9D108BD70B50446042564
:10151000FFF7D6FF054605E0FFF7EAFFFFF7D0FF2C
:101520000546641E012D01D1002CF5D104B9052515
:10153000284670BD70B50546042440F6FF70FFF7DD
:10154000E4FF0446042C19D1C448006940F00200AD
:10155000C249086108464561006940F040000861E1
:1015600040F6FF70FFF7D1FF0446012C06D0BB48C0
:10157000006941F6FD710840B8490861204670BD18
:1015800010B5042440F6FF70FFF7BFFF0446042C9B
:1015900018D1B248006940F00400B049086108461B
:1015A000006940F04000086140F6FF70FFF7ADFFB2
:1015B0000446012C06D0A948006941F6FB71084099
:1015C000A6490861204610BD10B5042440F6FF70FE
:1015D000FFF79BFF0446042C3BD1A1489F4988603C
:1015E000A04888600846006940F02000086108466D
:1015F000006940F04000086140F6FF70FFF785FF8A
:101600000446042C1CD19548006941F6DF7108405E
:10161000924908610846006940F010000861A52061
:10162000914908800F20FFF770FF0446012C10D06D
:101630008A48006941F6EF7108408849086108E06E
:10164000012C06D08548006941F6EF7108408349B6
:101650000861204610BD70B505460E4604240F20D3
:10166000FFF753FF0446042C25D17C48006940F065
:1016700001007A4908612E800F20FFF746FF0446DB
:10168000042C0FD1300C68800F20FFF73EFF04467A
:10169000012C10D07148006941F6FE7108406F4975
:1016A000086108E0012C06D06C48006941F6FE7123
:1016B00008406A490861204670BD70B505460E466F
:1016C00004240F20FFF721FF0446042C13D16348A4
:1016D000006940F00100614908612E800F20FFF78A
:1016E00014FF0446012C06D05C48006941F6FE71E7
:1016F00008405A490861204670BD70B505460E463F
:1017000004240F20FFF701FF0446042C17D154488E
:1017100052498860534888600846006940F01000CC
:1017200008612E800F20FFF7F0FE0446012C06D042
:101730004A48006941F6EF7108404849086120466F
:1017400070BD2DE9F04704464FF6FF763746B046A8
:10175000B1460425E443E6B2C4F30727C4F30748BF
:101760004FEA14690F20FFF7D0FE0546042D40D143
:101770003B483A4988603B4888600846006940F029
:1017800010000861FF2E06D03748083006800F2071
:10179000FFF7BBFE0546042D08D1FF2F06D03248C7
:1017A0000A3007800F20FFF7B0FE0546042D0AD14E
:1017B000B8F1FF0F07D02C480C30A0F800800F20A4
:1017C000FFF7A3FE0546042D0AD1B9F1FF0F07D09C
:1017D00025480E30A0F800900F20FFF796FE054632
:1017E000012D06D01D48006941F6EF7108401B49E4
:1017F00008612846BDE8F08770B50546042440F628
:10180000FF70FFF782FE0446042C4AD114481349A6
:101810008860144888600846006940F0200008612C
:101820000846006940F04000086140F6FF70FFF78D
:101830006CFE0446042C2BD10848006941F6DF7188
:101840000840064908610846006940F01000086138
:1018500065B10020044908800BE000000020024030
:1018600023016745AB89EFCD00F8FF1FA52045494F
:10187000088040F6FF70FFF748FE0446012C10D0A8
:101880004148006941F6EF7108403F49086108E0AE
:10189000012C06D03C48006941F6DF7108403A4906
:1018A0000861204670BD2DE9F04107460D461646F9
:1018B0000424364834498860354888600F20FFF793
:1018C00024FE0446042C1AD12F48006940F0100071
:1018D0002D49086147EA0500304340F0F8002949E6
:1018E000891C08800F20FFF710FE0446012C06D04B
:1018F0002548006941F6EF710840234908612046F8
:10190000BDE8F0812048C069800870471E48006A21
:10191000704700201C49C96901F0020109B101208A
:1019200000E00020704700201749096801F02001FD
:1019300009B1012000E00020704729B1124A126964
:101940000243114B1A6104E00F4A126982430E4BA5
:101950001A61704701460020012908D10A4AD2695C
:1019600002F001020AB1012008E0002006E0064A68
:10197000D2680A400AB1012000E000207047024905
:10198000C860704700F8FF1F002002402301674530
:10199000AB89EFCD0CB5002001900090474800685E
:1019A00040F480304549086000BF4448006800F4B6
:1019B000003000900198401C0190009818B90198DF
:1019C000B0F5A06FF1D13D48006800F4003010B1CF
:1019D0000120009001E0002000900098012844D1EF
:1019E0003748006840F01000354908600846006834
:1019F00020F0030008600846006840F0020008601C
:101A00002E4840682D4948600846406848600846AE
:101A1000406840F4806048600846406820F47C10CC
:101A200048600846406840F4E8104860084600688E
:101A300040F08070086000BF2048006800F000702F
:101A40000028F9D01D48406820F003001B49486079
:101A50000846406840F00200486000BF17484068F0
:101A600000F00C000828F9D101E000BFFEE70CBD32
:101A700010B5FFF78FFF10BD10B51048006840F09B
:101A800001000E490860084640680E4908400B49AD
:101A90004860084600680C49084008490860084644
:101AA000006820F4802008600846406820F4FE00AA
:101AB000486000208860FFF7DBFF10BD0010024087
:101AC000002002400000FFF8FFFFF6FE80EA01025E
:101AD00010B502F00043400022D04A001FD0010E92
:101AE00001EB1261C0F35600C2F3560240F400004D
:101AF00042F40002A0FB022000047F39140400D04D
:101B0000401C50EA124001D44000491EC2B20C06EB
:101B100004EBD010401C4008802A02D003E00020D3
:101B200010BD20F00100002900DA0020184310BD8C
:101B300030B480EA010202F0004530F0004221F0AA
:101B4000004013D090B1C30DD40DC2F31601C0F301
:101B50001600E41A41F4000140F400027D34914281
:101B600001D3641C00E04900002C02DA30BC0020E4
:101B700070474FF400000023914201D3891A0343B8
:101B800040084FEA4101F7D151B1914202D14FF0E3
:101B9000004105E002D24FF0010101E06FF00101C8
:101BA00003EBC450284430BC00F01FB92DE9F04DC0
:101BB00081EA030404F0004B21F0004514464FF085
:101BC000000A23F0004150EA050220D054EA010245
:101BD0001DD0C5F30A570246C5F31303C1F3130022
:101BE000C1F30A5640F4801543F48013A7EB0608AE
:101BF000101BD64608F2FD3873EB050002D308F13E
:101C0000010801E092185B41B8F1000F03DA0020EF
:101C10000146BDE8F08D00204FF480110646844651
:101C20000EE0171B73EB050705D3121B63EB0503CF
:101C300006434CEA010C49084FEA300092185B4118
:101C400050EA0107EDD152EA030012D082EA040003
:101C500083EA0501084305D0101BAB4106D20122DF
:101C6000002306E000224FF0004302E06FF0010283
:101C700053101AEB06004CEB085110EB0A0041EB35
:101C80000B01BDE8F04D00F0E7B8962300221146A5
:101C900000F0B4B80EB540F2334102910021CDE915
:101CA00000110A460B4600F0E6F803B000BD20F034
:101CB0000040C10DC0F3160040F400007F2901DA96
:101CC00000207047962903DCC1F19601C840704797
:101CD00096398840704700F0004230F000400AD04A
:101CE000C10D01F56071C0F3160042EA0151C2084E
:101CF00040071143704700200146704701F0004340
:101D000030B421F0004150EA010206D00A0DA2F5DC
:101D10006072C1F31301002A02DC30BC002070475E
:101D2000440F44EAC104C100E01830BC00EBC250CB
:101D300000F05BB8002801DBC0F10040002901DBA6
:101D4000C1F1004181427047002801DBC0F1004031
:101D5000002901DBC1F100418842704730B50B46D4
:101D6000014600202022012409E021FA02F59D42CB
:101D700005D303FA02F5491B04FA02F52844151E9F
:101D8000A2F10102F1DC30BD2DE9F05F0546002033
:101D900092469B4688460646814640241BE02846DC
:101DA00041464746224600F01EFA53465A46C01A9C
:101DB000914110D311461846224600F005FA2D1A1B
:101DC00067EB01084F4622460120002100F0FCF994
:101DD00017EB00094E41201EA4F10104DFDC484648
:101DE00031462A464346BDE8F09F0029A8BF704708
:101DF000401C490008BF20F00100704710B4B0FA41
:101E000080FC00FA0CF050EA010404BF10BC7047DB
:101E100049B1CCF1200421FA04F411FA0CF118BFF5
:101E2000012121430843A3EB0C01CB1D4FEA0061C4
:101E30004FEA102042BF002010BC704700EBC35097
:101E400010440029A4BF10BC7047401C490008BFC3
:101E500020F0010010BC704710B5141E73F100048F
:101E600008DA401C41F1000192185B411A4301D18C
:101E700020F0010010BD2DE9F04D92469B4611B1B6
:101E8000B1FA81F202E0B0FA80F22032904600F01E
:101E90009BF904460F4640EA0A0041EA0B0153460B
:101EA0005A46084313D0114653EA010019D0C8F12D
:101EB0004002504600F097F905460E4650465946F6
:101EC000424600F081F9084305D0012004E0204695
:101ED0003946BDE8F08D0020054346EAE0762C4304
:101EE00037430A986305E40AA0EB08000022FD0AC4
:101EF00044EA47540A3002D500200146E9E70105CB
:101F000010196941DDE9084500196941BDE8F04D46
:101F1000A2E72DE9FE4F804681EA0300C00F0C4680
:101F2000009021F0004123F00045B8EB0200A941E8
:101F300005D24046214690461C460B46024623F0F9
:101F40000040104347D0270DC7F30A00C3F30A51DE
:101F50000290401A019040286BDAC3F3130040F45A
:101F6000801B0098924620B10023D2EB030A63EB5A
:101F70000B0B01985946C0F14002504600F024F97D
:101F800006460D4650465946019A00F03CF910EBC2
:101F900008006141002487EA115284EAE7731A437A
:101FA00040D0009A62B3019A012A4FEA075215DC29
:101FB000001B61EB02014FF0004202EA0752CDE93B
:101FC0000042001C41F5801132462B46FFF753FFBB
:101FD00003B0BDE8F08F40462146F9E7001B61EBF6
:101FE0000201001C41F5801300185B412018A2F586
:101FF000001747EB030140EAD570B6196D4111E0B7
:102000006D084FEA360645EAC0754FEA0752001BD5
:1020100061EB0201001C41F5801149084FEA3000D4
:102020000019514132462B4603B0BDE8F04FFFF78F
:1020300013BF0098012240000023D0EB020263EBA3
:10204000E073009821464FEAE074B8EB000061EBC2
:102050000401E9E783F000435BE781F0004158E7C2
:102060002DE9FE4F81EA030404F0004421F0004111
:1020700000944FF0000B23F0004350EA01045ED0BF
:1020800052EA03045BD0C3F30A54C1F30A552C444B
:10209000A4F2F3340194A0FB0254C1F3130141F400
:1020A0008011C3F3130343F4801301FB024400FBCC
:1020B000034E840A970A44EA815447EA8357A4FBF3
:1020C000076802958D0A05FB07854FEA932C04FBF0
:1020D0000C542705029D4FEA065847EA1637B5EB20
:1020E00008056EEB070C870E920E47EA811742EA4D
:1020F0008312A7FB0201B6EB0B0164EB00042B0D6E
:1021000043EA0C335E1844EB1C50DA465146E7FBB9
:102110000201C5F313044FEA0B3343EA14534FEAA9
:102120000432019C43EA0603A4F10C040294009CCF
:10213000CDE900B4FFF79FFE03B0BDE8F08F0020AB
:102140000146F9E7C1F30A52C1F3130140F2FF332C
:1021500041F480119A4202DA00200146704740F2B1
:1021600033439A42A2F2334202DC524200F03BB8BF
:1021700000F02AB830B5041E71F1000404DB4FF002
:102180000044404264EB0101141E73F1000405DBBE
:102190001C464FF00043524263EB0403994208BFD0
:1021A000904230BD064C074D06E0E06840F0010368
:1021B00094E8070098471034AC42F6D3FDF79AFF35
:1021C000002B0008202B0008202A04DB203A00FA0C
:1021D00002F1002070479140C2F1200320FA03F37E
:1021E000194390407047202A04DB203A21FA02F07C
:1021F0000021704721FA02F3D040C2F12002914041
:10220000084319467047202A06DBCB17203A41FACB
:1022100002F043EAE07306E041FA02F3D040C2F173
:102220002002914008431946704700000FB4054B47
:1022300010B503A9044A029800F0CAF810BC5DF872
:1022400014FB0000510800082C00002002E008C820
:10225000121F08C1002AFAD170477047002001E020
:1022600001C1121F002AFBD1704700002DE9FF5F5A
:10227000DDE90220010DDDF838B0024318D044F644
:102280001050A1F2FF3141430D140F98012820D0C6
:10229000A5EB0B00401C5FEA000A4FF00004474E1C
:1022A000DFF81C91A046504616D5CAF1000728E079
:1022B0000F98012443A2012808D0002100980F9B09
:1022C000C0E90021C0E90243BDE8FF9F6FEA0B01AE
:1022D000F4E7CBF10000DEE7074612E0F80707D08D
:1022E0002246334640464946FFF7BAFE80468946B5
:1022F0002246334610461946FFF7B2FE04460E4604
:102300007F10002FEAD1DDE90201BAF1000F424649
:102310004B4602DAFFF7A4FE01E0FFF747FC044654
:102320000E460022284BFFF725FF03D84FF0FF3061
:10233000014607E00022254B20463146FFF7E9FD24
:10234000FFF700FF102409E0002C0ADB0A2200231B
:10235000FFF71AFD019B30321A55641E50EA010244
:10236000F2D1641C019AC4F1110314440F9A012A9A
:1023700003D0012208430DD10AE0084304D0002015
:102380004FF0110B0F9080E7A3EB0B056D1E0DE0D6
:102390005B4504DD4FF0000205F1010504E003DABE
:1023A0004FF00002A5F10105002AECD000980F992A
:1023B000C0E90231C0E9004586E700000000244082
:1023C0000000F03F300000000000F0430000E03F5C
:1023D0002DE9FF4F95B09B468946064600250FE242
:1023E000252877D100242746F84A0121059400E0EA
:1023F000044316F8013F203B01FA03F01042F7D1E5
:1024000030782A2811D06FF02F033078A0F13002F5
:10241000092A16D8059A44F0020402EB820203EB63
:1024200042021044761C0590EFE759F8042B059200
:10243000002A03DA504244F40054059044F00204A8
:10244000761C30782E2816D116F8010F44F00404BB
:102450002A280DD06FF02F023078A0F13003092B1D
:1024600009D807EB870302EB4303C718761CF3E791
:1024700059F8047B761C30786C280FD006DC4C2889
:1024800017D068280DD06A2814D104E0742810D021
:102490007A280FD10DE044F400140AE044F48014CB
:1024A00001E044F440147278824202D104F58014B1
:1024B000761C761C307866280BD013DC582877D031
:1024C00009DC002875D04528F6D04628F4D04728E6
:1024D0001AD19DE118E0632835D0642879D06528A9
:1024E00012D195E1702873D008DC6728F1D06928F3
:1024F0006FD06E280DD06F2806D1B5E073282CD090
:10250000752875D0782874D05A46179990476D1C55
:1025100075E1C4F30250022809D003280DD0D9F880
:10252000001004280DD00D6009F1040967E1D9F805
:102530000010EA17C1E90052F6E7D9F800100D8043
:10254000F2E70D70F0E719F8041B8DF80010002079
:102550008DF80100EA46012003E059F804AB4FF082
:10256000FF3061074FF0000102D40DE008F10101D6
:102570008846B9420FDA8045F8DB1AF808100029BE
:10258000F4D108E008F1010188468142FADB1AF82B
:1025900008100029F6D105985B46A0EB08072146F4
:1025A0003846179A00F094FA284400EB080507E033
:1025B0004DE029E10DE01AF8010B5A4617999047B2
:1025C000B8F10108F7D25B4621463846179A13E165
:1025D00042E00A220092C4F302524FF0000A022A9B
:1025E00008D059F804CB032A4FEAEC710AD00DE069
:1025F00029E02AE009F1070121F00702F2E802C10F
:10260000914609E00FFA8CFC4FEAEC71042A03D1E1
:102610004FFA8CFC4FEAEC71002907DA0A460021D8
:10262000DCF1000C61EB02012D2202E0220504D551
:102630002B228DF80420012203E0E20701D02022A2
:10264000F7E7904659E00A2102E010220DE0102140
:102650004FF0000A00910BE010224FF0000A44F006
:1026600004040827009203E008224FF0000A0092B9
:10267000C4F30252022A05D059F804CB0021032AE0
:1026800008D009E009F1070121F00702F2E802C1D0
:10269000914605E01FFA8CFC042A01D10CF0FF0CD6
:1026A0004FF00008220728D5702806D0009B83F041
:1026B000100353EA0A0305D00EE040228DF80420EF
:1026C000012208E05CEA010206D030228DF80420E5
:1026D0008DF8050002229046009B83F0080353EA20
:1026E0000A030AD15CEA010201D1620705D5302252
:1026F0008DF804204FF001087F1E582804D034A024
:1027000003900EA802900DE036A0F9E7534660460C
:10271000009AFFF739FB84460398825C0298401EBA
:10272000029002705CEA0100F0D1029806A9081A32
:1027300000F1200A600702D524F4803400E001276C
:10274000574502DDA7EB0A0000E0002000EB0A017C
:10275000009005984144401A0590E00306D45B467A
:102760002146179A059800F0B3F90544002706E0C2
:1027700001A85A46C05D179990476D1C7F1C4745BC
:10278000F6DBE0030CD55B462146179A059800F06E
:102790009FF9054404E030205A46179990476D1C74
:1027A0000099481E00900029F5DC08E00298029983
:1027B0005A460078491C0291179990476D1CBAF14E
:1027C0000001AAF1010AF1DC65E10000092801001D
:1027D0003031323334353637383961626364656697
:1027E0000000000030313233343536373839414259
:1027F000434445460000000000F058F90544761CAB
:10280000307800287FF4ECAD19B02846BDE8F08F91
:10281000620700D4062709F1070222F0070CFCE842
:102820000223E14603F000485FEA080C02D00FF2F1
:10283000702C0DE05FEA045C02D50FF2682C07E013
:102840005FEAC47C02D00FF2602C01E0AFF2700CA2
:102850004FF0FF3823F00043CDF850C065280CD06E
:1028600006DC452809D046281DD047283DD13DE04B
:10287000662818D067287ED138E00021112F01DBAF
:10288000112000E0781CCDE9000106A90EA8FFF791
:10289000EDFCDDE90F010E9A03910021009207F192
:1028A000010A04914DE04FF000400097CDE901107E
:1028B00006A90EA8FFF7DAFCDDE90F0203920E9BD2
:1028C00011990022DDF80CA00093049211B9791C33
:1028D00000EB010AB7EB0A0004D4C0F1FF3007F1A6
:1028E000010A0490AAEB0700019044E0012F00DAEE
:1028F00001270021112F01DD112000E03846CDE92C
:10290000000106A90EA8FFF7B1FCDDE90F010E9A40
:102910000391002104910092BA4621070CD4039937
:10292000514500DA8A46BAF1010F05DD009AAAF195
:102930000101515C302908D0B84202DA10F1040FCD
:1029400006DA0121CDE9011015E0AAF10101E9E75C
:10295000002805DC049901440491AAEB000102E07F
:10296000411C514500DD8A460499401A401C0190E3
:102970004FF000400290200704D40198504501DB3D
:10298000CDF8048000208DF84F0002980DF14F071C
:10299000B0F1004F25D02B200E9002984FF0020886
:1029A00000280CDA404202902D200E9007E00A2108
:1029B0000298FFF7D3F93031029007F8011DB8F102
:1029C0000001A8F10108F2DC02980028EFD1791E7D
:1029D0000E980870307800F0200040F0450007F8AD
:1029E000020D12A8C01B00F107081498007800B16E
:1029F000012000EB0A01019801EBE07105984144C8
:102A0000401A401E0590E00306D45B462146179A03
:102A1000059800F05DF805441498007818B15A46FE
:102A2000179990476D1CE00324D55B462146179A01
:102A3000059800F04DF805441CE00498002807DBD9
:102A4000DDE90301884203DD0098405C179901E04D
:102A5000179930205A469047049805F10105401C0B
:102A600004900198401E019004D12E205A461799D7
:102A700090476D1CBAF10001AAF1010ADDDC05E006
:102A800017F8010B5A46179990476D1CB8F10001D1
:102A9000A8F10108F4DC5B462146179A0598ABE6DD
:102AA0002D0000002B000000200000002DE9F04167
:102AB000044600251E461746880404D405E039461E
:102AC0002020B0476D1C641EF9D52846BDE8F08172
:102AD0002DE9F041044600251E469046C80301D565
:102AE000302700E02027880404D505E04146384619
:102AF000B0476D1C641EF9D52846BDE8F081000082
:102B0000202B000800000020300000004C220008AC
:102B1000502B000830000020000200005C2200085A
:102B200000000000000000000000000000000000A5
:102B3000000000000000000000000000010203048B
:102B40000102030406070809020406080000000049
:0400000508000101ED
:00000001FF
