:020000040800F2
:10000000103C0020E9010008B1190008E1140008C3
:10001000AD19000819120008292F0008000000007F
:100020000000000000000000000000004501000882
:1000300091120008000000008901000859250008FD
:10004000030200080302000803020008030200087C
:10005000030200080302000803020008030200086C
:10006000030200080302000803020008030200085C
:10007000030200080302000803020008030200084C
:100080000302000803020008D90C0008030200085C
:10009000030200080302000803020008030200082C
:1000A00003020008D9250008030200080302000823
:1000B000F1260008352700080302000803020008A3
:1000C00003020008030200080302000803020008FC
:1000D00003020008312B0008412B0008030200082E
:1000E00003020008030200080302000803020008DC
:1000F00003020008030200080302000803020008CC
:1001000003020008030200080302000803020008BB
:1001100003020008030200080302000803020008AB
:10012000030200080302000803020008030200089B
:10013000DFF80CD000F0C4FB004800474935000848
:10014000103C0020204B19680868B0E8F00F80F3DD
:100150000988BFF36F8F4FF0000080F311884EF0D5
:100160000D0E70470000000006480068006880F32C
:10017000088862B661B6BFF34F8FBFF36F8F00DFA1
:1001800000BF00BF08ED00E0EFF30980BFF36F8F01
:100190000D4B1A6820E9F00F106008B54FF0100001
:1001A00080F3118804F054FE4FF0000080F31188B2
:1001B000BDE8084019680868B0E8F00F80F30988C6
:1001C000BFF36F8F704700BF18010020EFF311805D
:1001D0004FF0100181F31188704780F31188704748
:1001E000EFF3058070470000064880470648004747
:1001F000FEE7FEE7FEE7FEE7FEE7FEE7FEE7FEE7D7
:10020000FEE7FEE7792500083101000840EA010316
:100210009B0703D009E008C9121F08C0042AFAD2BC
:1002200003E011F8013B00F8013B521EF9D2704780
:100230000FB400B58DB010A909900B9000914FF04C
:10024000FF300A9000200C90054806900548079062
:100250006A4609A80F9900F071FA0DB05DF814FB19
:1002600059070008770700082DE9FF5F1D464FF08A
:10027000FF3BD5E9014691465F464FF00008A9696A
:100280007F1C01988847296A824688470028F6D152
:10029000BAF1FF3F0CD024F4C064002E19DD6006D3
:1002A00014D5BAF12B0F09D0BAF12D0F0ED103E0FE
:1002B000584604B0BDE8F09F44F48064A9697F1CEF
:1002C00001988847761E8246002E02DDBAF1300F73
:1002D00003D0B9F1000F26D032E0A969761E44F4AC
:1002E00000747F1C019888478246002E05DDBAF114
:1002F000780F06D0BAF1580F03D0B9F1000F10D023
:100300001EE0B9F1000F02D0B9F1100F18D1A969A0
:10031000761E24F400747F1C0198884782461020C2
:1003200002E0082000E00A20814609E008FB0908F5
:10033000A969761E44F400747F1C019888478246A0
:10034000002E05DD4946504600F0E3F90028EDDABD
:10035000E96901988847A00502D46FF00100A8E779
:10036000E00725D1600613D5600502D5C8F100006D
:1003700000E0404629680A1D2A600968220501D567
:10038000087015E0220701D5088011E008600FE031
:100390002868011D29600068210502D580F80080C9
:1003A00006E0210702D5A0F8008001E0C0F8008037
:1003B00038467EE780EA010210B502F000434000B3
:1003C00022D04A001FD0010E01EB1261C0F356008B
:1003D000C2F3560240F4000042F40002A0FB0220E7
:1003E00000047F39140400D0401C50EA124001D4AC
:1003F0004000491EC2B20C0604EBD010401C40085D
:10040000802A02D003E0002010BD20F00100002966
:1004100000DA0020184310BD30B480EA010202F077
:10042000004530F0004221F0004013D090B1C30DE0
:10043000D40DC2F31601C0F31600E41A41F4000112
:1004400040F400027D34914201D3641C00E0490075
:10045000002C02DA30BC002070474FF4000000236B
:10046000914201D3891A034340084FEA4101F7D171
:1004700051B1914202D14FF0004105E002D24FF05C
:10048000010101E06FF0010103EBC450284430BCCE
:1004900000F082B92DE9FE4F81EA030404F0004424
:1004A00021F0004100944FF0000B23F0004350EA8C
:1004B00001045ED052EA03045BD0C3F30A54C1F3D3
:1004C0000A552C44A4F2F3340194A0FB0254C1F366
:1004D000130141F48011C3F3130343F4801301FBB0
:1004E000024400FB034E840A970A44EA815447EA17
:1004F0008357A4FB076802958D0A05FB07854FEA21
:10050000932C04FB0C542705029D4FEA065847EA3A
:100510001637B5EB08056EEB070C870E920E47EA0F
:10052000811742EA8312A7FB0201B6EB0B0164EBD1
:1005300000042B0D43EA0C335E1844EB1C50DA46E2
:100540005146E7FB0201C5F313044FEA0B3343EABC
:1005500014534FEA0432019C43EA0603A4F10C044D
:100560000294009CCDE900B400F05CF903B0BDE852
:10057000F08F00200146F9E72DE9F04D81EA0304F0
:1005800004F0004B21F0004514464FF0000A23F020
:10059000004150EA050220D054EA01021DD0C5F303
:1005A0000A570246C5F31303C1F31300C1F30A56F9
:1005B00040F4801543F48013A7EB0608101BD646C1
:1005C00008F2FD3873EB050002D308F1010801E0E1
:1005D00092185B41B8F1000F03DA00200146BDE834
:1005E000F08D00204FF48011064684460EE0171B64
:1005F00073EB050705D3121B63EB050306434CEAB7
:10060000010C49084FEA300092185B4150EA01079B
:10061000EDD152EA030012D082EA040083EA050118
:10062000084305D0101BAB4106D20122002306E08F
:1006300000224FF0004302E06FF0010253101AEB6A
:1006400006004CEB085110EB0A0041EB0B01BDE832
:10065000F04D00F0D8B896230022114600F0A5B85E
:1006600020F00040C10DC0F3160040F400007F29C7
:1006700001DA00207047962903DCC1F19601C840D9
:10068000704796398840704700F0004230F00040D3
:100690000AD0C10D01F56071C0F3160042EA0151A4
:1006A000C20840071143704700200146704701F01F
:1006B000004330B421F0004150EA010206D00A0D97
:1006C000A2F56072C1F31301002A02DC30BC0020E5
:1006D0007047440F44EAC104C100E01830BC00EB8D
:1006E000C25000F059B830B50B4601460020202218
:1006F000012409E021FA02F59D4205D303FA02F52F
:10070000491B04FA02F52844151EA2F10102F1DC8E
:1007100030BD3A2800D2303820F02002412A01D3DF
:10072000A2F13700884201D34FF0FF30704700003C
:10073000026811441378016018467047D16004497B
:1007400051610449116200211161114600F0EEB8B7
:100750003107000823090008426842B1016811F816
:10076000013B23B1521EC0E9001218467047012117
:10077000C160881E704742685AB1C368016843B9B6
:1007800083688B4205D0491E521CC0E9001200202C
:1007900070474FF0FF3070470029A8BF7047401CDA
:1007A000490008BF20F00100704710B4B0FA80FC87
:1007B00000FA0CF050EA010404BF10BC704749B1C4
:1007C000CCF1200421FA04F411FA0CF118BF012134
:1007D00021430843A3EB0C01CB1D4FEA00614FEA14
:1007E000102042BF002010BC704700EBC3501044E3
:1007F0000029A4BF10BC7047401C490008BF20F06E
:10080000010010BC704710B5141E73F1000408DA23
:10081000401C41F1000192185B411A4301D120F0C4
:10082000010010BD2DE9F04D92469B4611B1B1FA81
:1008300081F202E0B0FA80F22032904600F052F8E5
:1008400004460F4640EA0A0041EA0B0153465A4665
:10085000084313D0114653EA010019D0C8F14002F1
:10086000504600F04EF805460E4650465946424660
:1008700000F038F8084305D0012004E0204639464E
:10088000BDE8F08D0020054346EAE0762C4337436F
:100890000A986305E40AA0EB08000022FD0A44EA76
:1008A00047540A3002D500200146E9E70105101936
:1008B0006941DDE9084500196941BDE8F04DA2E74D
:1008C000064C074D06E0E06840F0010394E807009D
:1008D00098471034AC42F6D3FFF72EFC745A000848
:1008E000945A0008202A04DB203A00FA02F1002082
:1008F00070479140C2F1200320FA03F3194390405E
:100900007047202A04DB203A21FA02F000217047C8
:1009100021FA02F3D040C2F1200291400843194667
:100920007047C0B24FF4F05100F096B92DE9F34F83
:100930008BB04FF0000801F10C000C464FF0010B9A
:1009400046460DF1080A019062690121019890471D
:1009500005002DD0252D2CD0216A8847C0B16269B1
:10096000012101989047216A88470028F7D1411E4C
:1009700062690198904700E0761CA1690B9888474E
:10098000216A88470028F7D1E1690B988847DBE79F
:10099000A1690B9888470746A84201D1761CD3E786
:1009A000E1690B9888477F1C02D1B8F1000F6FD026
:1009B00046E1002762693D463946019890472A285A
:1009C00004D162690121019890470125DFF88492E2
:1009D0006269012101989047A0F130010A290AD2E9
:1009E0004F45E5DC07EB870100EB4107303FDFD4E3
:1009F00045F01005ECE7E90601D46FF000476C28DC
:100A00000AD04C2814D0682815D06A280DD0742834
:100A10001CD07A281AD01DE0626901210198904704
:100A20006C2802D045F0040514E045F002050DE005
:100A300045F020050AE06269012101989047682885
:100A400002D045F0080505E045F400656269012122
:100A500001989047C4E9015765283DD019DC582812
:100A60007AD00CDC452837D004DC252826D0412854
:100A700031D131E046282FD047282CD12CE05B28FB
:100A800077D0612828D063287CD0642823D15AE00D
:100A9000D0E06F2848D008DC66281DD067281BD01E
:100AA000692821D06E2816D127E0702845D07328F8
:100AB00068D0752847D078280DD14DE0A1690B98F2
:100AC0008847054625283FF469AFE1690B988847B8
:100AD0006D1C3FF46AAFB3E023466A466FF0010035
:100AE0000B99AFF300809EE045F040006060A807DE
:100AF00023464FF0000236D43EE0E8077FF447AFCC
:100B00002068011D21600068290501D506701BE7DA
:100B1000290701D5068017E7A90703D5F117C0E912
:100B2000006111E706600FE745F040006060A8072C
:100B300023464FF0080216D41EE040F60E0125EAC7
:100B40000100606016E045F040006060A8072346A1
:100B50004FF00A0207D40FE045F040006060A8079C
:100B600008D5234610226FF001000B99AFF30080E7
:100B700059E007E0234610226FF001000B99FFF7C0
:100B800073FB50E04FF000094F464B46632802D0FC
:100B90005B2806D040E0E80601D40120A0600127D0
:100BA0003AE062690121019890475E2805D14FF033
:100BB00001096269494601989047216939B90021C4
:100BC0000A46534643F82120491C0829FADBB0B3F2
:100BD000216969B9C11700EBD16253110AEB830196
:100BE00022F01F02821A01200B68904003430B6021
:100BF00062690121019890475D28E8D1B9F1000FA1
:100C000009D00020514651F82020D24341F820203D
:100C1000401C0828F7DB02AB224600976FF001006A
:100C20000B99AFF3008000280CDA401C08D1BBF10F
:100C3000000F05D04FF0FF300DB0BDE8F08FFFE79B
:100C40004046F9E7E90701D108F1010806444FF0F1
:100C5000000B79E6CCCCCC0C7F2801D9002208E02F
:100C6000064A02EB5002C007127800D1120902F0C6
:100C70000F0201209040084070470000345A0008DD
:100C800070B58C1810F8015B15F0070301D110F84E
:100C9000013B2A1106D110F8012B03E010F8016B7B
:100CA00001F8016B5B1EF9D12B0705D40023521EFE
:100CB0000DD401F8013BFAE710F8013BCB1A921C66
:100CC00003E013F8015B01F8015B521EF9D5A14264
:100CD000D8D3002070BD000010B54FF4087109484A
:100CE00000F03CF9012806D1064800F033F904462B
:100CF000204600F02DFB4FF40871024800F010F977
:100D000010BD00000024014008B50121042001F0BD
:100D100057F90120ADF8000000208DF80300694666
:100D2000014800F02DFB08BD001001402DE9F04FF7
:100D300087B00020049004A800F0B4FA0590BDF834
:100D4000100010B907B0BDE8F08F00BFBDF810006B
:100D5000FFF781FC4FF08B410190FFF75DFB83466D
:100D6000FFF792FC4FF06632214BCDE90201FFF70D
:100D700091FB064600221F4BFFF78CFB0446002226
:100D80001D4BFFF7F9FB8046FFF791FC82461B499C
:100D90005046FFF70FFB0446FFF762FC18494881F5
:100DA0000846408946F27021884203DD084614490E
:100DB000488108E01248408944F27401884202DC0C
:100DC00008460F4948810E484089A0F58040743894
:100DD0006421484342F2FC1190FBF1F0084908728B
:100DE0000846027A418907A002F0A0F800BFA9E7EF
:100DF00066660A40004055400000244000007A44E6
:100E000088010020706F7765725F763A25642070E4
:100E10006F7765725F70657263656E743A25640DF5
:100E20000A00000018B90221034A516102E00221C0
:100E3000014A1161704700000010014008B501210E
:100E4000480201F0DDF80121042001F0B9F800208A
:100E5000FFF7E8FF03208DF8020010208DF8030053
:100E60000220ADF800006946034800F089FA01202D
:100E7000FFF7D8FF08BD00000010014010B5FFF7D4
:100E8000DDFFFFF741FF00F005F800F0B7F800F0D4
:100E900001FA10BD00B585B00121480201F0B0F89B
:100EA000002000908DF804008DF805004FF400201C
:100EB00002900020039001208DF810006946174829
:100EC00000F074F8052301220A21144800F0A7F865
:100ED0000021124800F029F801224FF408710F4850
:100EE00000F058F801210D4800F01FF80B4800F001
:100EF000F2F800BF094800F043F80028FAD107488B
:100F000000F0F9F800BF054800F01AF80028FAD1FF
:100F10000121024800F0E4F805B000BD00240140C2
:100F200000220A12D3430360704721B1826842F065
:100F30000102826003E0826822F001028260704751
:100F4000014600208A6802F004020AB1012000E094
:100F5000002070470146C86C80B2704770B50246E9
:100F60000020002300240B125568CEB205EA0604C7
:100F700015681D4015B10CB1012000E0002070BDC6
:100F8000014600208A6802F008020AB1012000E050
:100F90000020704710B50023CBB21AB144681C433F
:100FA000446002E044689C43446010BD30B5024692
:100FB0000020002350680F4C20400D790C6844EA53
:100FC00005242043506090680B4C2040D1E9025426
:100FD0002C434D7944EA450420439060D06A20F4C4
:100FE00070000C7C641EE4B2234340EA0350D062DC
:100FF00030BD0000FFFEF0FFFDF7F1FF08B5122045
:101000008DF8000003208DF8010000208DF802000B
:1010100001208DF80300684600F0D2FC08BDF0B551
:1010200004460D4600200021092D11DDE068A5F1E0
:101030000A0606EB4607072606FA07F18843A5F1DC
:101040000A0606EB460603FA06F10843E0600CE0E8
:10105000206905EB4507072606FA07F1884305EBEB
:10106000450603FA06F108432061072A0FDA606B90
:10107000561E06EB86071F2606FA07F18843561E02
:1010800006EB860605FA06F10843606322E00D2AA6
:101090000FDA206BD61F06EB86071F2606FA07F12C
:1010A0008843D61F06EB860605FA06F1084320633F
:1010B00010E0E06AA2F10D0606EB86071F2606FA8D
:1010C00007F18843A2F10D0606EB860605FA06F144
:1010D0000843E062F0BD816841F00801816070471B
:1010E00021B1826842F4A002826003E0826822F4A7
:1010F000A00282607047816841F0040181607047FE
:1011000070B504460D46EE2001F0A6F8B12001F0BE
:10111000A3F8202001F0A0F8200A01F09DF8E0B229
:1011200001F09AF8280A01F097F8E8B201F094F873
:10113000FF2001F091F8FC2001F08EF8FF2001F073
:101140008BF8FF2001F088F870BD00001FB500206B
:10115000144A0423CDE901200093039003464FF481
:10116000007211A1134804F041F90020124A032330
:10117000CDE901200093039003464FF400720FA1C4
:10118000124804F033F90020114A0123CDE901206F
:1011900000930390034680220EA1114804F026F923
:1011A0001FBD000004000020765461736B4C434463
:1011B000000000004D4300080800002076546173D1
:1011C0006B4D6F746F724374726C0000854300083E
:1011D0000C000020765461736B53656E736F720060
:1011E000794C000808B50121042000F009FF4FF4F4
:1011F00080700849086003208DF8020010208DF8E7
:1012000003000001ADF8000069460248143800F000
:10121000B7F808BD1408014000BFFEE7014609B950
:1012200009487047012901D10848FAE7022901D18C
:101230000020F6E7032901D10020F2E7042901D1BB
:101240000020EEE70020ECE7D0020020F8040020A8
:1012500008B525208DF8000001208DF80100002040
:101260008DF8020001208DF80300684600F0A8FB0D
:1012700026208DF8000001208DF8010000208DF857
:10128000020001208DF80300684600F099FB08BDBC
:101290007047000000200249087048707047000045
:1012A000F8010020F0B586B00446002527484078B4
:1012B00080B92648007810B9002006B0F0BD234858
:1012C0000078401E214FBF1C37F810002080B81E48
:1012D0000078F2E7002107E01C48801C30F811007C
:1012E0002DF81100481CC1B20B29F5DB00231AE0D0
:1012F000002212E03DF81270501C3DF810008742A9
:1013000009DD3DF81260501C3DF810002DF8120068
:10131000501C2DF81060501CC2B2C3F10B0090425B
:10132000E8DC581CC3B20A2BE2DB012104E03DF8E3
:1013300011000544481CC1B20A29F8DB0920B5FB9D
:10134000F0F0208001480078B7E70000F8010020A5
:1013500001460A4802780078401C084B1870981C17
:1013600020F81210801E00780A2804DD00201A469A
:10137000107001205070014800787047F80100207B
:101380002DE9F0410246002500260020002300241C
:10139000002791F803C00CF00F0591F803C00CF082
:1013A000100CBCF1000F03D091F802C04CEA050507
:1013B00091F800C0BCF1000F31D0146800202BE080
:1013C0004FF0010C0CFA00F3B1F800C00CEA030670
:1013D0009E4220D183004FF00F0C0CFA03F7BC4360
:1013E00005FA03FC4CEA040491F803C0BCF1280F91
:1013F00006D14FF0010C0CFA00FCC2F814C00AE050
:1014000091F803C0BCF1480F05D14FF0010C0CFA64
:1014100000FCC2F810C0401C0828D1D31460B1F8F9
:1014200000C0BCF1FF0F34DD546800202EE000F155
:10143000080C4FF0010808FA0CF3B1F800C00CEAF0
:1014400003069E4221D183004FF00F0C0CFA03F7E4
:10145000BC4305FA03FC4CEA040491F803C0BCF158
:10146000280F05D100F1080C08FA0CF8C2F8148016
:1014700091F803C0BCF1480F07D100F1080C4FF000
:10148000010808FA0CF8C2F81080401C0828CED3D6
:101490005460BDE8F0814161704701617047000010
:1014A00008B54FF40070ADF8000004208DF803007B
:1014B00003208DF8020069460848FFF761FF4FF4EA
:1014C0008070ADF8000003208DF8020010208DF828
:1014D000030069460148FFF753FF08BD000C0140B7
:1014E00009A100200CE00A5C124B1A8000BF114ACF
:1014F000121F128802F04002002AF8D0421CD0B21B
:101500002A28F0D300BFFEE70D0A456E74657220ED
:10151000486172644661756C745F48616E646C65A5
:10152000722C2053797374656D2048616C742E0D94
:101530000A0000000438014000B585B001210520F3
:1015400000F05EFD0121880300F05AFD4FF40070A9
:10155000ADF8100018208DF8130003208DF812004C
:1015600004A93A48FFF70CFF4FF48060ADF8100073
:1015700004208DF8130004A93448FFF701FF4FF44D
:10158000E13000900020ADF80400ADF80600ADF8A1
:101590000800ADF80C000C20ADF80A0069462C4894
:1015A00001F048FB012240F22551294801F01CFBC3
:1015B0000121274801F0D5FA4021254801F0C8FA59
:1015C0000121052000F01CFD0121480400F008FD68
:1015D0000420ADF8100018208DF8130003208DF8BA
:1015E000120004A91948FFF7CBFE0820ADF810003F
:1015F00004208DF8130004A91448FFF7C1FE04A9C4
:101600001248FFF7BDFE4FF4964000900020ADF861
:101610000400ADF80600ADF80800ADF80C000C2091
:10162000ADF80A0069460B4801F004FB012240F2C4
:101630002551084801F0D8FA0121064801F091FA35
:101640004021044801F084FA05B000BD00080140C3
:1016500000380140004400400448006800F01000D9
:1016600008B9012070470020FCE70000080801408D
:101670000448006800F4804008B901207047002049
:10168000FCE70000080C01400448006800F400403A
:1016900008B9012070470020FCE70000080C014059
:1016A0000448006800F0200008B9012070470020BD
:1016B000FCE70000080801400448006800F0400012
:1016C00008B9012070470020FCE70000080801402D
:1016D0000448006800F0800008B90120704700202D
:1016E000FCE70000080801400448806800F0100092
:1016F00008B9012070470020FCE7000000100140FD
:101700000448806800F0200008B9012070470020DC
:10171000FCE70000001001400448006800F00100F0
:1017200008B9012070470020FCE70000080C0140C8
:101730000448006800F0020008B90120704700204A
:10174000FCE70000080C01400448006800F4005069
:1017500008B9012070470020FCE70000080C014098
:1017600008B53C48807800F0010028B93AA212215F
:10177000002000F0C7FE04E039A21221002000F092
:10178000C1FE39A21021002000F0BCFE38A21121B8
:10179000002000F0B7FE2F4880683649884209D102
:1017A000012000902B48002314218268184600F085
:1017B00063FE0DE0274880682F49884208D1012048
:1017C00000902448002314218268184600F054FE3B
:1017D000012000901F48002313214268184600F0A2
:1017E0004BFE2648407920F00200801C23494871B6
:1017F0000846407920F00100401C487108464079B5
:1018000020F0080048710220124948700122114658
:10181000002000F033FD01220321002000F02EFD06
:1018200001221521002000F029FD0022052110468B
:1018300000F024FD00220621104600F01FFD0122C9
:101840000721002000F01AFD00220821104600F0B8
:1018500015FD08BD9C010020C9CFC9FD0000000096
:10186000CFC2BDB500000000CDA3D6B90000000076
:10187000300000007EB903008EAF04008801002014
:1018800000200149486070479C01002010B50446C3
:1018900005480649886001F06BFE204601F084FE91
:1018A00000200249886110BD7EB903009C01002020
:1018B00010B504461048807864F300000E49887023
:1018C0002CB14FF480510D48FFF7E7FD04E04FF4D1
:1018D00080510A48FFF7DFFD642002F0FFFC2CB1C5
:1018E00007A21221002000F00DFE04E006A2122142
:1018F000002000F007FE10BD9C0100200008014000
:10190000CFC2BDB500000000C9CFC9FD0000000076
:1019100038B504462546681E81B2114800F0C4FF60
:101920000120C0EB550081B20D4800F0BFFF01203F
:10193000C0EB550081B20A4800F0BBFF00F014F87C
:101940000848807820F04000403006498870012027
:1019500000232A4611210090184600F08DFD38BD65
:10196000002C01409C01002010B50648807820F032
:1019700008000830034988700121034800F00BFF7C
:1019800010BD00009C010020002C014010B505484E
:10199000807820F00800034988700021024800F098
:1019A000FAFE10BD9C010020002C014000BFFEE7A4
:1019B000704710B501220221032000F05FFC10BD2A
:1019C00070B5002100230F22C47804B3154C24689D
:1019D00004F4E064C4F5E064210AC1F10403CA40E0
:1019E000447804FA03F184781440214309010E4C31
:1019F0000678A155047804F01F050124AC40057851
:101A00006D11AD0005F1E025C5F8004109E004784D
:101A100004F01F050124AC40044D0678761145F80A
:101A2000264070BD0CED00E000E400E080E100E045
:101A300002490143024A1160704700000000FA05A4
:101A40000CED00E0F8B506460C4615460A2000F0FD
:101A50003EFC002E09D1012C0FD13DB157484079F1
:101A600020F00200801C55494871A5E05348407998
:101A700020F00200514948719EE0022C0FD13DB187
:101A80004E48407920F00400001D4C49487193E015
:101A90004A48407920F00400484948718CE0032C02
:101AA0000FD13DB14548407920F00100401C434929
:101AB000487181E04148407920F001003F49487178
:101AC0007AE0042C08D11DB10020FFF7F1FE73E08D
:101AD0000120FFF7EDFE6FE0062C03D1002038490E
:101AE000487069E0052C03D101203549487063E056
:101AF000072C03D10220324948705DE0082C03D145
:101B000003202F49487057E0092C26D12B484079F3
:101B100020F010001030294948712A480078052823
:101B200008D129A21A21002000F0ECFC0E20254942
:101B3000087041E023480078042808D125A21A2122
:101B4000002000F0DFFC0F201E49087034E024A2C2
:101B50001A21002000F0D6FC2EE0152C0CD12648CE
:101B600017498860012000900846002314218268EC
:101B7000184600F081FC1FE0162C0CD11F481049BC
:101B800088600120009008460023142182681846CE
:101B900000F072FC10E01C2C0ED13DB107484079DA
:101BA00020F0200020300549487105E003484079C5
:101BB00020F0200001494871F8BD00008801002094
:101BC0009C01002000000020BCECD0DEC9CFC9FD84
:101BD0002E2E2E00B6A5B8CBB9E9C1E32E2E2E00CD
:101BE000B6A5B8CBCEB4D4DAB5D7B2BFA3ACB2D910
:101BF000D7F7B4EDCEF300007EB903008EAF04003A
:101C0000704770477047704770B504AC70CC70BDBA
:101C100010B586B00446434804802CB9642000F017
:101C200056FB012040490870032C06D101221146C1
:101C3000032000F023FB00F062FB3A4800880928EB
:101C400002D10121FFF75CFA364800880E280BD13B
:101C500036A30FCBCDE90423CDE9020102AA01216D
:101C60000E2000F04FFC00BF2E4800880F2844D102
:101C700000231A46012100F0B0FA00230122114688
:101C80000F2000F0AAFA0023022201210F2000F009
:101C9000A4FA0023032201210F2000F09EFA002362
:101CA000042201210F2000F098FA002305220121CF
:101CB0000F2000F092FA0023062201210F2000F0ED
:101CC0008CFA0023072201210F2000F086FA4FF43E
:101CD000FA6001F025FC00231A4601210F2000F0D4
:101CE0003DFA0023012211460F2000F037FA0023AD
:101CF000022201210F2000F031FA0A480088122840
:101D00000DD114220D4901A8FEF780FA012203210A
:101D1000122000F0B3FA01A800F06FF800BF06B07F
:101D200010BD0000EC000020D80000207777772E4F
:101D3000677A2D64632E636F6D000000B858000849
:101D40007047F8B506460D461446072E11D1052DED
:101D50000FD1642C00D364B122460421072000F087
:101D6000E2FA01200023224606210090072000F01D
:101D700083FBF8BD2DE9FC4104460D461646042CB4
:101D800029D10020019001AA14A13046FEF750FA93
:101D9000022D1FD10198002802DA0020019006E0F0
:101DA0000198B0F5BE7F02DD4FF4BE7001900120B6
:101DB0000023009002210420019A00F05DFB012025
:101DC000019F009007EBD7704210012305210420EA
:101DD00000F052FB00BFBDE8FC810000256C6400F0
:101DE00070B505460C46082D04D1072C02D164209D
:101DF00000F06DFA70BD7047704770B5044600255D
:101E0000EE2000F029FA942000F026FA44B100BF39
:101E100004E0605D00F020FA681CC5B2132DF8DB09
:101E2000FF2000F019FAFC2000F016FAFF2000F065
:101E300013FAFF2000F010FA70BD00002DE9FE4FEC
:101E400004460D466678A77894F807802079E178F3
:101E500040EA0129A079617940EA012A207A010645
:101E6000607A41EA0041A07A41EA0020E17A40EA42
:101E7000010B0D2E2CD008DC012E0FD0032E0ED01E
:101E80000B2E29D00C2E6FD11EE00F2E2CD0552EEC
:101E90006BD0B12E43D0F72EF5D12BE000BF474BCE
:101EA0005B79DFF818C19CF804C043EA0C22434B6D
:101EB000DB78DFF808C19CF802C043EA0C213F4BF5
:101EC0005878FFF798FF76E00120FFF795FF72E062
:101ED0000020FFF791FF6EE0A81F82B23749891CEE
:101EE0000120FFF790FE66E0002211461046FFF742
:101EF0008AFE60E03148017AC079304A9279DFF891
:101F0000BCC0CDE9002002919CF805309CF804206B
:101F10009CF803109CF80200FFF776FE4BE0012FBF
:101F200003D14846FFF774FE40E0A8F110000C28EA
:101F30003AD2DFE800F0060C131B21393934393965
:101F4000272E627A51464846FFF77CFD2DE004F1CA
:101F5000080251464846FFF70DFF26E05A46514613
:101F60004846FFF74FFE20E024E020E05A46514665
:101F70004846FFF7E6FE18E05A4651464846FFF746
:101F800040FE12E0637A227A51464846FFF738FE57
:101F90000BE0227A51464846FFF7D2FE05E0514653
:101FA0004846FFF71DFF00E000BF00BF03E0FFF75A
:101FB00000FD00E000BF00BFBDE8FE8FB8010020BB
:101FC00029B1064A52690243044B5A6104E0034AAC
:101FD00052698243014B5A61704700000010024071
:101FE00029B1064AD2690243044BDA6104E0034A8C
:101FF000D2698243014BDA61704700000010024051
:1020000029B1064A92690243044B9A6104E0034AEB
:1020100092698243014B9A617047000000100240B0
:1020200030B500210022002400232D4D6D6805F0FD
:102030000C0121B1042905D0082923D105E0294D3F
:10204000056022E0274D05601FE0254D6D6805F411
:102050007012234D6D6805F48034022505EB924221
:102060001CB9214D554305600BE01D4D6D6805F40D
:1020700000351DB11C4D5543056002E0194D554317
:10208000056002E0174D056000BF00BF144D6D688C
:1020900005F0F0010909154D6B5C0568DD404560F0
:1020A0000F4D6D6805F4E061090A104D6B5C4568E1
:1020B000DD4085600A4D6D6805F46051C90A0B4D1D
:1020C0006B5C4568DD40C560054D6D6805F44041B9
:1020D000890B074D6B5CC568B5FBF3F5056130BD39
:1020E0000010024000127A0000093D0003010020A8
:1020F0001301002010B501460022002300204A11E0
:10210000012A02D1094C236806E0022A02D1074CB9
:10211000236A01E0054C636A01F01F020124944028
:102120001C400CB1012000E0002010BD0010024056
:1021300008B501210820FFF763FF03208DF8020096
:1021400010208DF803000420ADF800006946024815
:10215000FFF716F908BD0000000C01402DE9F04121
:1021600004460D4616461F464FF00008EE2000F0CC
:1021700073F8B12000F070F8512000F06DF8200ADB
:1021800000F06AF8E0B200F067F8280A00F064F89E
:10219000E8B200F061F8300A00F05EF8F0B200F04A
:1021A0005BF867B100BF07E017F8080000F054F8CB
:1021B00008F1010000F0FF08B8F1070FF4DBFF2081
:1021C00000F04AF8FC2000F047F8FF2000F044F847
:1021D000FF2000F041F8BDE8F0812DE9F041044610
:1021E0000D4616461F464FF00008EE2000F034F86A
:1021F000B12000F031F8502000F02EF8200A00F055
:102200002BF8E0B200F028F8280A00F025F8E8B230
:1022100000F022F8300A00F01FF8F0B200F01CF8CD
:1022200067B100BF07E017F8080000F015F808F1E3
:10223000010000F0FF08B8F1070FF4DBFF2000F009
:102240000BF8FC2000F008F8FF2000F005F8FF2054
:1022500000F002F8BDE8F08101B5012269461046A0
:1022600001F035F908BD10B5044603E02078FFF70A
:10227000F3FF641C20780028F8D110BD70B5044627
:102280000D461646EE20FFF7E7FFB120FFF7E4FF0B
:102290001020FFF7E1FF200AFFF7DEFFE0B2FFF7B3
:1022A000DBFF280AFFF7D8FFE8B2FFF7D5FFF0B24F
:1022B000FFF7D2FFFF20FFF7CFFFFC20FFF7CCFF97
:1022C000FF20FFF7C9FFFF20FFF7C6FF70BD10B565
:1022D0000446EE20FFF7C0FF6120FFF7BDFFE0B22C
:1022E000FFF7BAFFFF20FFF7B7FFFC20FFF7B4FFAF
:1022F000FF20FFF7B1FFFF20FFF7AEFF10BD10B5C5
:10230000EE20FFF7A9FF0420FFF7A6FFFF20FFF74D
:10231000A3FFFC20FFF7A0FFFF20FFF79DFFFF209A
:10232000FFF79AFF10BD70B505460E461446EE2025
:10233000FFF792FFB120FFF78FFF1020FFF78CFF10
:10234000280AFFF789FFE8B2FFF786FF300AFFF798
:1023500083FFF0B2FFF780FF200EFFF77DFFC4F38D
:102360000740FFF779FFC4F30720FFF775FFE0B2DE
:10237000FFF772FFFF20FFF76FFFFC20FFF76CFFF6
:10238000FF20FFF769FFFF20FFF766FF70BD10B564
:1023900000F002F810BD00000CB500200190009084
:1023A0003348006840F480303149086000BF30484D
:1023B000006800F4003000900198401C01900098E3
:1023C00018B90198B0F5A06FF1D12948006800F460
:1023D000003010B10120009001E000200090009832
:1023E000012843D12348006840F0100021490860CB
:1023F0000846006820F0030008600846006840F0C6
:10240000020008601A484068194948600846406858
:1024100048600846406840F480604860084640686C
:1024200020F47C1048600846406840F4E81048609A
:102430000846006840F08070086000BF0C480068E3
:1024400000F000700028F9D00948406820F003002F
:10245000074948600846406840F00200486000BFF5
:102460000348406800F00C000828F9D10CBD0000BA
:1024700000100240002002402DE9F04105460E46C2
:1024800014461F46DDF81880EE20FFF7E5FEB12068
:10249000FFF7E2FE0720FFF7DFFE280AFFF7DCFE6A
:1024A000E8B2FFF7D9FE300AFFF7D6FEF0B2FFF729
:1024B000D3FE0FB1012100E00021C8B2FFF7CCFE2E
:1024C00008F00F0141F08000FFF7C6FE200EFFF775
:1024D000C3FEC4F30740FFF7BFFEC4F30720FFF7B6
:1024E000BBFEE0B2FFF7B8FEFF20FFF7B5FEFC2011
:1024F000FFF7B2FEFF20FFF7AFFEFF20FFF7ACFEB5
:10250000BDE8F08170B504460D461646EE20FFF793
:10251000A3FEB120FFF7A0FE1020FFF79DFE200ACA
:10252000FFF79AFEE0B2FFF797FE280AFFF794FE46
:10253000E8B2FFF791FE3046FFF795FEFF20FFF768
:102540008BFEFC20FFF788FEFF20FFF785FEFF20B3
:10255000FFF782FE70BD000010B5FDF737FE02F0F8
:10256000F5FF18B14FF08050024908600020FDF7D8
:1025700034FE10BD04ED00E010B51348006840F0D3
:1025800001001149086008464068104908400E499A
:102590004860084600680E4908400B490860084634
:1025A000006820F4802008600846406820F4FE009F
:1025B00048604FF41F008860FFF7E9FE4FF00060AD
:1025C0000449086010BD0000001002400000FFF840
:1025D000FFFFF6FE08ED00E010B50121104800F005
:1025E000F5F8E0B101210E4800F0D2F80D488078EE
:1025F00000F0010058B90B4840680A4989688842D0
:102600000DD208484068401C0649486007E005486C
:10261000406820B103484068401E0249486010BD30
:10262000002C01409C01002010B58AB00446012115
:1026300040F60400FFF7E4FC4FF40060ADF824001E
:1026400018208DF8270003208DF8260009A92648B8
:10265000FEF796FE601E80B2ADF81C004720ADF874
:1026600018000020ADF81E00ADF81A008DF820000B
:1026700006A91E4800F020F96020ADF808000120EE
:10268000ADF80A00C0EB540080B2ADF80E00022095
:10269000ADF8100002A9154800F0B2F80121134866
:1026A00000F06AF80821114800F0E8F801210F480D
:1026B00000F07DF800210D4800F06DF80122114670
:1026C0000A4800F094F819208DF8040000208DF8D5
:1026D00005008DF8060001208DF8070001A8FFF71E
:1026E0006FF90AB010BD000000080140002C014045
:1026F00010B50121880700F069F8012815D10121E2
:10270000800700F045F80948006820B107480068D4
:10271000401E064908600648006820B10448006869
:10272000401E0349086000F081FE10BDDC0000205F
:10273000E000002010B501210C4800F047F8012806
:1027400013D10121094800F023F80948007820B18D
:1027500007480078401C064908700648007820B1F8
:1027600004480078401C0349087010BD0004004074
:10277000010100200201002021B1028842F0800204
:10278000028004E002884FF67F731A40028070478F
:10279000CA430282704721B1028842F001020280DE
:1027A00004E002884FF6FE731A400280704731B190
:1027B000B0F8442042F40042A0F8442005E0B0F80C
:1027C0004420C2F30E02A0F84420704730B5024600
:1027D000002000230024158A05EA0103958905EAF3
:1027E000010413B10CB1012000E0002030BD1AB18A
:1027F00083890B43838102E083898B438381704704
:1028000070B5002200230024058C4EF6FF7635407B
:102810000584038C8488828B48F6FF752A404FF626
:10282000FF452A400D884FF6FF7606EA05252A4324
:102830004DF6FF752B400D8906EA05352B434D8873
:1028400006EA05352B430B4DA84202D00A4DA8429B
:1028500008D14BF6FF752C408D894FF6FF7606EABE
:1028600085152C4384808283CD88A0F84050038452
:1028700070BD0000002C0140003401400A460021D8
:10288000818B4FF2FF7319404FF6FF7303EA022367
:1028900019438183704782884FF68F731A40828074
:1028A00082880A438280704781857047A0F8401073
:1028B0007047818470470000002202881D4B9842B7
:1028C0000ED01D4B98420BD0B0F1804F08D01B4B5F
:1028D000984205D01A4B984202D01A4B984204D124
:1028E0004FF68F731A404B881A43174B984207D004
:1028F000164B984204D04FF6FF431A40CB881A4338
:1029000002808B8883850B8803850A4B98420BD005
:10291000094B984208D00E4B984205D00D4B984277
:1029200002D00D4B984201D10B7A0386012383829A
:1029300070470000002C01400034014000040040BA
:1029400000080040000C004000100040001400404F
:102950000040014000440140004801401148807897
:1029600020F001000F498870012008700220487093
:102970000D488860002048600C49C86064200872D7
:102980000846407920F00200801C487108464079D2
:1029900020F00100401C48710846407920F00800F2
:1029A000487170479C0100207EB903008801002017
:1029B00010B501F005FB01F035FB10BD10B500F0BE
:1029C00013F800200549088005490860054908708A
:1029D0004FF4967001F082FC10BD0000E40000206E
:1029E000E0000020D800002008B501210420FFF7F6
:1029F00007FB03208DF8020010208DF80300012052
:102A0000ADF8000069460948FEF7BAFC48208DF889
:102A100003000220ADF8000069460448FEF7B0FC50
:102A200001210248FEF739FD08BD00000008014001
:102A300038B500244021364801F030FA0446002C15
:102A400003DD21463248FFF7F9F93248006850BBF0
:102A500064203049086030484068642148432E496A
:102A60008968B0FBF1F02D490880084602880C21E6
:102A70000020FFF758FC0120009027480023132175
:102A800042681846FFF7F8FC2548027A0F2100201B
:102A9000FFF749FC01200090214800231B21C26858
:102AA0001846FFF7E9FC1C488078C0F3C00008B363
:102AB0001C480068F0B91C48007806280BD116485D
:102AC0000078401E194931F81000164908600A20A4
:102AD000FFF7FDFB1AE0144800780A2803D01248DB
:102AE00000780B2807D1114880890E4908600A2018
:102AF000FFF7EDFB0AE00C480078082806D10B48E8
:102B00004089084908600A20FFF7E1FB38BD000052
:102B1000B8010020DC0000209C010020E40000201F
:102B200088010020E00000200000002010000020AC
:102B300010B5024800F014F910BD0000D0020020CA
:102B400010B5024800F00CF910BD0000F804002098
:102B500001F40072B2F5007F00D100BFCA430280C9
:102B6000704721B1828942F40052828104E0828957
:102B70004DF6FF731A408281704702460020B1F57E
:102B8000007F00D100BF13880B400BB1012000E093
:102B90000020704770B50246002400230025002065
:102BA00040F66A16B14200D100BFC1F3421501F0F0
:102BB0001F03012606FA03F3012D02D19689334043
:102BC00006E0022D02D1168A334001E0968A334096
:102BD0000C12012606FA04F41688344013B10CB125
:102BE000012000E0002070BDF0B50346002400265F
:102BF0000025002040F66A17B94200D100BF1846F0
:102C0000C1F3421401F01F06012707FA06F5012C53
:102C100001D10C3004E0022C01D1103000E014305E
:102C20001AB107682F43076002E00768AF430760E7
:102C3000F0BD00002DE9F04786B005460E460024A1
:102C4000A24600BFA1460027B08900B100BF2F46B1
:102C50002C8A4CF6FF700440F08804432C82AC8927
:102C60004EF6F3100440B088318908437189084357
:102C70000443AC81AC8A4FF6FF400440B089044362
:102C8000AC8201A8FFF7CCF91F48874202D1DDF8DA
:102C900010A001E0DDF80CA0A88900F4004040B1CC
:102CA0000AEBCA0000EB0A1031684900B0FBF1F8EA
:102CB00007E00AEBCA0000EB0A1031688900B0FB9C
:102CC000F1F86420B8FBF0F004012009642101FB55
:102CD0001089A88900F4004040B1322000EBC900FF
:102CE000B0FBF1F000F00700044308E0322000EBF5
:102CF00009106421B0FBF1F000F00F0004432C81B7
:102D000006B0BDE8F0870000003801400146888821
:102D1000C0F308007047C1F308028280704770B5A5
:102D200004460D4601F000FA668B01F01FFA0EB959
:102D3000002070BD218BA068405C287001F0F4F980
:102D4000208B401C80B22083E189884201DB002077
:102D50002083608B401E608301F008FA0120E8E7C1
:102D600070B5044640F225512068FFF713FFE0B12B
:102D70002068FFF7CBFFC5B2E18AA0684554E08A1E
:102D8000401C80B2E082E189884201DB0020E082C1
:102D9000608BE189884202DA608B401C6083606A44
:102DA00010B12846616A884700BF40F22771206849
:102DB000FFF7F0FE08B3A08A60B9002240F2277145
:102DC0002068FFF711FF012240F226612068FFF71B
:102DD0000BFF37E0638A6268D15C2068FFF79BFFD6
:102DE000608A401C80B26082A189884201DB002099
:102DF0006082A08A401EA08224E040F22661206802
:102E0000FFF7C8FEF0B1A08A50B9002240F2266157
:102E10002068FFF7E9FE206AA0B1206A804711E030
:102E2000638A6268D15C2068FFF775FF608A401C86
:102E300080B26082A189884201DB00206082A08A82
:102E4000401EA08270BDF8B504460E461746002508
:102E500025E00CE001F068F9A08A009001F086F905
:102E6000A089BDF80010884200DD01E000BFF1E755
:102E700000BF705D228A6168885401F055F9208A8C
:102E8000401C80B22082A189884201DB0020208280
:102E9000A08A401CA08201F069F9681C85B2BD427D
:102EA000D7DB012240F227712068FFF79DFEF8BDB5
:102EB00015481649086016484860164888604FF45F
:102EC00080708881C881002008824882C882088377
:102ED00048838882C861086248620F480F490860C9
:102EE0000F4848600F4888604FF480708881C8811F
:102EF000002008824882C882088348838882C8618B
:102F0000086248627047000000380140D00200208B
:102F1000F8020020F803002000440040F8040020DC
:102F2000200500202006002000BFFEE70FB4054B5F
:102F300010B503A9044A029800F018F810BC5DF817
:102F400014FB0000253500088401002002E008C8B9
:102F5000121F08C1002AFAD170477047002001E013
:102F600001C1121F002AFBD1704700002DE9FF4F5D
:102F700089B09B460446002506E025280BD05A461A
:102F80000B999047641C6D1C20780028F5D10DB07A
:102F90002846BDE8F08F0027B8460122474900E0E7
:102FA000074314F8013F203B02FA03F00842F7D12F
:102FB00020782E2819D114F8010F47F004072A2889
:102FC0000ED06FF02F022078A0F1300109290CD823
:102FD00008EB880102EB410100EB0108641CF2E7F9
:102FE0000A98641C50F8048B0A9020780028CED0F0
:102FF000642808D0692806D075281ED05A460B9937
:1030000090476D1C58E00A994FF00A0901C90A91CE
:10301000002802DA40422D2102E0390504D52B2197
:103020008DF82010012103E0F90704D02021F7E7F3
:103030008A4608AE0DE00021FAE70A994FF00A0926
:1030400001C90A91F7E74946FDF74DFB303106F813
:10305000011D0028F7D1ADEB060000F1200978072B
:1030600001D44FF00108C84502DDA8EB090000E0DB
:1030700000208046002706E008A85A46C05D0B994C
:1030800090476D1C7F1C5745F6DB04E030205A4604
:103090000B9990476D1CB8F10001A8F10108F5DC0F
:1030A00005E016F8010B5A460B9990476D1CB9F1D3
:1030B0000001A9F10109F4DC641C65E7092801009D
:1030C00070B50546304800EB05142068804700289D
:1030D0003ED02079052802DA0520207152E02079BF
:1030E0000A2803DA2079401C20714BE0A07A38B915
:1030F0000120A07205EB4501491CC8B200F0C0F9DF
:10310000208900283EDDE088218988420DDAE088A8
:10311000401C80B2E0802189884233D105EB450113
:10312000C91CC8B200F0ACF92CE0E07A002829DD17
:10313000207B401CC0B22073E17A884222DB002051
:10314000207305EB4501491CC8B200F099F919E05C
:103150002079052802DD0520207110E0207918B1C2
:103160002079401E20710AE0A07A012807D10020B2
:10317000A07205EB4501891CC8B200F081F900205E
:10318000E080207370BD0000100200200B48807AA0
:103190000A4AD27A904201D1002070470748807ACB
:1031A000064A115C1046807A401CC0B290720A2810
:1031B00001DB002090720846EFE70000C00200200B
:1031C0000146024800EB0110807A7047100200208F
:1031D00010B54FF44070FEF72BFC00F00FF800F034
:1031E0001BF900F0DFF800F01DF8FFF7E1FBFDF739
:1031F000F9FFFDF743FEFEF753F910BD07480068DD
:1032000040F0807005490860002005494860084684
:10321000006840F00100086070470000FCED00E02D
:10322000001000E010B500F065F800F001F810BDE6
:1032300008B501211C20FEF7E3FE03208DF80200F3
:1032400004208DF803001020ADF8000069462648E0
:10325000FEF796F82020ADF8000069462248FEF7F8
:103260008FF84020ADF8000069461F48FEF788F847
:103270008020ADF8000069461B48FEF781F8102059
:10328000ADF8000069461948FEF77AF82020ADF83D
:10329000000069461548FEF773F80120ADF80000FC
:1032A00069461348FEF76CF80220ADF80000694645
:1032B0000F48FEF765F84FF40050ADF8000069467E
:1032C0000B48FEF75DF84FF48040ADF8000069460A
:1032D0000748FEF755F84FF40040ADF80000694686
:1032E0000348FEF74DF808BD0008014000100140FA
:1032F000000C014000211E4A9172D172117300200E
:1033000018E000211B4A02EB001211810221194A28
:1033100002EB001211710021164A02EB00129172A9
:10332000144A02EB0012D172124A02EB001211731E
:10333000411CC8B20B28E4DB0F490E4A11600F494B
:1033400011610F4911620F4911630F4911640F494F
:1033500011650F4911660F4911670F49C2F88010B6
:103360000E49C2F890100E49C2F8A0107047000034
:10337000C00200201002002059160008A116000803
:10338000B9160008D1160008E91600080117000850
:1033900019170008311700084917000871160008AE
:1033A0008916000808B501210820FEF729FE012032
:1033B00000F048F8022000F045F8032000F042F841
:1033C000042000F03FF803208DF8020010208DF853
:1033D00003000002ADF8000069460E48FDF7D0FF7B
:1033E0004FF48050ADF8000069460A48FDF7C8FF69
:1033F0004FF48050ADF8000069460648FDF7C0FF65
:103400004FF48050ADF8000069460248FDF7B8FF60
:1034100008BD0000000C014010B5FFF749FDFEF7A4
:103420008BF8FEF785FEFDF713FF10BD10B50024E5
:1034300004E02046FFF744FE601CC4B20B2CF8DB0E
:1034400010BD0000411EC8B220B94FF480510B4A94
:10345000116011E0012803D10103084A11600BE05B
:10346000022803D1C102054A116005E0032803D1F7
:103470004FF48051014A116070470000100C014068
:103480000649C97A054A50541146C97A491CC9B23D
:10349000D1720A2901DB0021D1727047C0020020DD
:1034A00070B505460E462846FDF7B8FE04460CB931
:1034B000002070BD31462046FFF731FCF9E700B52A
:1034C00002461046FDF7AAFE0346588B00BD2DE9C3
:1034D000F04105460E4617462846FDF79FFE044676
:1034E0000CB9BDE8F081E06908B1E06980473A466F
:1034F00031462046FFF7A7FC00BFF2E701490870FC
:10350000704700000001002010B504460348007811
:1035100010B12046FFF70AFD10BD00000001002099
:103520007047000070B504460D46E1B20548FFF74C
:10353000F2FB00BF40210348FFF71FFB0028F9D032
:10354000204670BD00380140012080F3108800BF84
:10355000FFF73EFE0120FFF7D1FFFFF7FFF900F074
:10356000CFFCFDF7F3FD01F037FC00BFFEE70000E4
:1035700008B501210420FEF743FD4FF48050ADF85B
:10358000000010208DF8030003208DF8020069462A
:103590000448FDF7F5FE4FF480510248FDF77BFF2C
:1035A00008BD00000008014010B504462046FFF7A2
:1035B0003BF810BD10B504460E48006844600E4844
:1035C0000068844207D20B480168091D0B48006857
:1035D00000F084FD0CE007480168091D08480068F8
:1035E00000F07CFD07480068844201D20548046071
:1035F00010BD0000180100202C0100202001002037
:103600001C010020480100202DE9F04106460F462C
:103610001FB9B00000F0A8FB00E03846054655B1E0
:103620004C2000F0A1FB04460CB1256304E02846C1
:1036300000F0B2FD00E000242046BDE8F08100006B
:1036400010B500F071FD10480068C8B90F4800F0CF
:1036500035FD0F4800F032FD0C480E4908600C485B
:103660000D49086000220C21052001F081FC06496B
:1036700008600846006818B9FCF7A8FD00BFFEE71F
:1036800000F074FD10BD000058010020E807002084
:10369000FC070020500100205401002070B523E0F9
:1036A00001F0CEFB1348006808B9012000E00020BB
:1036B000054602F02FF8BDB900F036FD0D48C06890
:1036C000C468201D00F0E6FC0B480068401E0A4953
:1036D00008600A480068401E0849086000F046FD7E
:1036E000204600F059F800BF044800680028D7D1F0
:1036F00070BD0000C0070020280100202401002028
:1037000070B504460D46206C70B1216CE068084429
:10371000E0606168E068884201D32068E060284684
:10372000226CE168FCF772FD70BD2DE9F0410446A2
:103730000E4615460027206C40B37DB93146226CF9
:10374000A068FCF763FD216CA0680844A060D4E980
:10375000011088421AD32068A06017E03146226C1D
:10376000E068FCF753FD216CE068401AE0602168D6
:10377000E068884203D2216C6068401AE060022D44
:1037800004D1A06B10B1A06B401EA063A06B401CC5
:10379000A0633846BDE8F08110B50446206B00F008
:1037A000FBFC204600F0F8FC10BD00000146084A72
:1037B000126812680AB9012200E000220A600A6851
:1037C00022B9034A1268D268106800E000207047EE
:1037D0005001002030B54FF43053174800F0070473
:1037E0002CB1C01D20F00700134C041B1B1B02460C
:1037F000124C22600024114D6C60D018083820F063
:1038000007000F4C206000240D4D2D686C600C4D9E
:103810002D682C601146441A4C60094C24680C60D9
:10382000084D4C682C60084D4C682C604FF00044EB
:10383000064D2C6030BD0000100800206C010020F7
:10384000740100207C01002078010020800100200C
:1038500000BFFFF723FF034800680128F9D900F0F3
:103860000FFDF6E7200700202DE9F04704460F463C
:1038700016469946DDF82080002507E0795D04F1C1
:1038800034004155785D00B902E06D1C102DF5D370
:1038900000BF002143200155052E00D30426E66217
:1038A000201D00F018FC04F1180000F014FC246145
:1038B000C6F10500A06164620020606484F84800DD
:1038C000BDE8F08710B5002407E004EB84010F4A3F
:1038D00002EB810000F0F2FB641C052CF5D30C48D0
:1038E00000F0ECFB0B4800F0E9FB0B4800F0E6FBB6
:1038F0000A4800F0E3FB0A4800F0E0FB04480949ED
:10390000086004480849086010BD00002007002036
:103910008407002098070020AC070020C007002083
:10392000D40700201C0100202001002010B5014612
:10393000164800E0006803688B42FBD302464368E8
:1039400013448B4204D143684C68234443600146CE
:103950000A464B6813440468A34211D10C4C036817
:103960002468A34208D04B680468646823444B6011
:1039700003681B680B6005E0054B1B680B6001E0EA
:1039800003680B60884200D0016010BD6C0100200C
:10399000740100202DE9F04104460D4616461F46ED
:1039A0004FF0000865602461B5420CD8F01BA16996
:1039B000884202D34FF0010811E0211D0948006838
:1039C00000F08CFB0BE0BE4204D2BD4202D34FF0AC
:1039D000010804E0211D0448006800F07FFB404618
:1039E000BDE8F081540100205001002070B505466B
:1039F00000F09AFBA86B08B9012400E0002400F055
:103A0000B5FB204670BD70B5054600F08DFBA86B78
:103A1000E96B884201D1012400E0002400F0A6FBFC
:103A2000204670BDF8B505460F4613480068C068CB
:103A3000C468201D00F02EFBE069012817D1A069A1
:103A400041192B463A462046FFF7A4FF01280ED124
:103A5000002003462A4601460090204601F0F2FE6F
:103A600006461EB9FCF7B2FB00BFFEE700BF2046CA
:103A7000616A8847F8BD00005001002070B586B02B
:103A80005DE0039800285ADB059C606908B90120B5
:103A900000E0002010B9201D00F0FCFA02A800F0A0
:103AA000A7F8054603980A2847D2DFE800F0090581
:103AB000072B2D4206082C2E00BF00BF00BF00BF01
:103AC0000498A269811803462A462046FFF762FF40
:103AD000012816D12046616A8847E069012810D183
:103AE000002000900498A16942180023194620463E
:103AF00001F0A8FE06461EB9FCF768FB00BFFEE712
:103B000000BF1BE000BF19E000BF0498A061A069DE
:103B100008B1012000E0002018B9FCF757FB00BFF6
:103B2000FEE7A06941192B462A462046FFF732FFDF
:103B300004E0204600F030FB00E000BF00BF00239F
:103B40001A4603A90348006801F045FA002898D1F5
:103B500006B070BD58010020F8B505460C4601F0CE
:103B60006FF9684600F044F806460098F0B944B989
:103B7000B54206D801F0CEFD31462846FFF752FF88
:103B800016E03CB10B480068006808B9012000E06D
:103B900000200446A91B22460748006800F07CFB71
:103BA00001F0B8FD20B900F06BFB01E001F0B2FDBF
:103BB000F8BD000054010020580100200A4909689E
:103BC000096809B9012100E0002121B14FF0FF315E
:103BD000064A116006E004490968C968C868034AD2
:103BE00041681160704700001C010020480100205E
:103BF00070B5044601F0A4FC0546074800688542FC
:103C000004D200F00BF80120206001E000202060C9
:103C100001480560284670BD5C0100202DE9F8438D
:103C20002BE020480068C06805681E480068C0682E
:103C3000C468201D00F02EFA2046616A8847E069BA
:103C400001281AD1A0694619AE4207D966602461DD
:103C5000211D1448006800F041FA0EE000200346E0
:103C60002A4601460090204601F0ECFD07461FB9A8
:103C7000FCF7ACFA00BFFEE700BF0A480068006826
:103C800008B9012000E000200028CAD00548D0F87B
:103C9000008005480068034908600348C0F80080B8
:103CA000BDE8F88350010020540100200748006857
:103CB000401C08B9012000E0002018B9FCF786FA82
:103CC00000BFFEE7FCF782FA00BFFEE760010020BC
:103CD00008B500BF6846FFF769FD04462046009915
:103CE000FFF73AFFFFF7CAFEF4E710B5044600F00D
:103CF0001BFA11E0606A08B9012000E0002038B921
:103D000004F1240001F0C0FC18B100F035FB00E024
:103D100005E0A06C401EA064A06C0028EADC00BF97
:103D20004FF0FF30A06400F021FA00F0FDF911E03F
:103D3000206908B9012000E0002050B904F110000A
:103D400001F0A2FC08B100F017FB606C401E60643B
:103D500000E002E0606C0028EADC00BF4FF0FF30BA
:103D6000606400F003FA10BD2DE9F04104464FF005
:103D7000000801F065F83C48006808B9FFF72AFD23
:103D80003A480068204000285DD19CB1083404F016
:103D9000070078B104F00700C0F10800044404F003
:103DA000070008B9012000E0002018B9FCF70EFA5E
:103DB00000BFFEE7002C46D02D480068844242D860
:103DC0002C4E3046056801E02E462D686868A042FA
:103DD00002D228680028F7D123480068854232D0F3
:103DE000306800F10808286830606868001B1028F7
:103DF00012D92F1907F0070008B9012000E00020B0
:103E000018B9FCF7E3F900BFFEE76868001B7860AB
:103E10006C603846FFF78AFD154968680968081A1A
:103E2000134908600846006813490968884203D2AC
:103E30000F480068104908600C4968680968084321
:103E400068600020286001F065FC08F0070008B9F0
:103E5000012000E0002018B9FCF7B8F900BFFEE728
:103E60004046BDE8F0810000740100208001002080
:103E7000780100206C0100207C010020001F4FF021
:103E800080730360001F0160001F034B0360143840
:103E90000260203870470000AD3C0008F8B50546C8
:103EA0000F46002400200090002622E069460120F1
:103EB000FFF7F6FA54B99DF80000EE2816D19DF8E8
:103EC00000202046611C8CB22A540FE09DF800208F
:103ED0002046611C8CB22A549DF8000040EA062658
:103EE0006FF44030864201D12046F8BD012000F039
:103EF000F5F90120FFF7E3FA0028D7D100BFF4E776
:103F000010B57B20FEF7F6F818B10DA0FFF7FCFA0C
:103F100002E00FA0FFF7F8FA1148406A40F0807005
:103F20000F4948620FA0FFF7EFFA18A0FFF7ECFA6D
:103F30001DA11FA0FFF7E8FA0AA0FEF7F7FF10BDCA
:103F4000706F7765722072657365743A00000000C7
:103F50006F746865722072657365743A00000000C2
:103F6000001002402A2A2A2A2A2A2A2A2A2A2A2A07
:103F70002A2A2A2A2A2A2A2A2A2A2A2A2A2A2A2AA1
:103F80002A2A2A2A2A2A2A2A0D0A0000202020204A
:103F9000202020202020CDC6C2E9D2C7204956D0FB
:103FA000CD0D0A0D0A00000056312E302E300000D3
:103FB00056657273696F6E203A2025730D0A0000F2
:103FC0001FB501210846FEF70BF801218807FEF70F
:103FD000DFFB42F20F70ADF808004720ADF8040097
:103FE0000020ADF80A00ADF8060001A94FF08040AE
:103FF000FEF762FC012211469007FEF7F8FB012153
:104000008807FEF7C8FB1C208DF8000000208DF803
:10401000010001208DF802008DF803006846FDF7CD
:10402000CFFC1FBD1FB501210220FDF7D9FF0121E3
:104030001748FEF7ADFB41F2BF20ADF8080042F291
:104040000F70ADF804000020ADF80A00ADF80600CE
:1040500001A90F48FEF730FC012211460C48FEF77B
:10406000C6FB20210A48FEF716FC01210848FEF78E
:1040700092FB1D208DF8000000208DF801008DF8C6
:10408000020001208DF803006846FDF799FC1FBD72
:104090000004004001460A69D1E901309860D1E985
:1040A000010358605068884201D188685060002040
:1040B00008611068401E10601068704700F1080128
:1040C00041604FF0FF31816000F10801C160016182
:1040D00000210160704700210161704710B5024660
:1040E0000B685C1C0CB9106907E002F1080000E0E5
:1040F0004068446824689C42FAD944684C604C6823
:10410000A160886041600A611468641C146010BD7D
:1041100042684A6093688B60936859609160086157
:1041200003685B1C0360704710B5FCF74FF80D483F
:104130000068401C0B490860BFF34F8FBFF36F8FBF
:104140000846006801280BD107480068C0B208B9CA
:10415000012000E0002018B9FCF738F800BFFEE7A6
:1041600010BD00006001002004ED00E010B509481A
:10417000006818B9FCF72AF800BFFEE70548006898
:10418000401E044908600846006810B90020FCF78A
:1041900024F810BD6001002070B506463546002E9B
:1041A00031D0083D2C46184960680968084008B1BC
:1041B000012000E0002018B9FCF708F800BFFEE776
:1041C000206808B9012000E0002018B9FBF7FEFFC5
:1041D00000BFFEE70C4960680968084098B1206894
:1041E00088B90949606809688843606000F028FE62
:1041F0000649606809680844044908602046FFF7DA
:1042000095FB01F087FA70BD800100207801002045
:1042100003484FF0E0214861072008617047000023
:104220003F19010070B5FBF7DBFF0546102D0FD3DA
:1042300005F1E02090F8F0430E480078844201DB5D
:10424000012000E0002018B9FBF7C0FF00BFFEE727
:104250000948006800F4E06008490968884201D80C
:10426000012000E0002018B9FBF7B0FF00BFFEE717
:1042700070BD0000640100200CED00E0680100202A
:104280004FF0805003490860BFF34F8FBFF36F8F2B
:104290007047000004ED00E02DE9F04105460E46B0
:1042A00017462C46FFF740FF606C401C08B9002001
:1042B0006064A06C401C08B90020A064FFF756FFA2
:1042C000A06B28B93A46314604F1240000F09AFC6C
:1042D0002046FFF70AFDBDE8F081000070B50446F6
:1042E000002634B31548006808B9012000E000201A
:1042F00018B9FBF76BFF00BFFEE700F0A1FD104807
:10430000006805190F480068001DFFF7C3FE50B98B
:104310000C48006890F82C10012088400A49096870
:104320008143094801602846FFF744F901F0F2F99A
:1043300006460EB9FFF7A4FF70BD00004C01002037
:104340002C0100201801002030010020FEF736FB70
:1043500006A0FEF7EBFD0120FFF774F804E0012052
:10436000FFF7BCFFFEF764FBF9E7000076546173CA
:104370006B4C43440D0A000001200149086070475E
:104380003C01002008B54FF000084FF47A70FDF7AB
:104390007DFA00260020FDF78BFA47F60730FA4930
:1043A000086100270020F94908700120F8490870C9
:1043B000B7E30220FFF792FFFEF7E8FE0646192E4C
:1043C00002D01A2E64D144E00020F2490870F0486F
:1043D000007806283CD1F0488079C0F3801070B195
:1043E0000120EE490870EC48807920F04000EA494D
:1043F0008871EBA21A210020FEF784F828E0012042
:10440000E6490870E0480078401CDF49087008461B
:104410000078032801DD01200870DB48407800EBBC
:104420004000E34901EB4001D7480078401E11F8F5
:104430001050D9480571DF4931F81500FDF768FAC9
:1044400005EBC500DC49421810210020FEF75AF8A0
:104450001FE00020D1490870CD480078062816D109
:10446000CD488079C0F3801088B9FDF78FFA01201C
:10447000C8490870D1A210210020FEF743F801209E
:1044800000231A46112100901846FDF7F5FF00E0C1
:1044900000BF00BFBE480078062865D1BE4800793D
:1044A00018B1BD480079012825D1BA480078022802
:1044B00021DD0020B7490870B3490870B64840793B
:1044C00000F00100B8B1B8F1000F14D14FF00008AE
:1044D000084641680069814207D9AB484068AA494B
:1044E0000969401AA849C86002E00020A649C860CE
:1044F0000B20A7490870A848007918B1A648007990
:10450000012831D1A4488079C0F38010A0B9A34814
:104510000078052810DDA048807920F04000403068
:104520009D498871A7A21A210020FDF7EBFFA8A0E2
:10453000FDF763FC4FF0010897488079C0F38010C5
:1045400090B19648007807280EDD9348807920F0D6
:1045500040009149887100209049087090A21A216A
:10456000FDF7D0FF4FF000088B484079C0F3801072
:1045700030B1FDF70BFA00208749087084490870B4
:104580008348007810287CD2DFE800F0C8082A4D64
:10459000FD9FFCFBE4FAF9F87B7BF7F67C4800789A
:1045A000844201D07A4804787B48807900F0010089
:1045B00068B98C480078012811D1FDF7D1F8764808
:1045C000807920F00100401C7349887107E086A2C1
:1045D0001A210020FDF796FF03206D4908709FE225
:1045E0006B480078844206D06948047882A21A2178
:1045F0000020FDF787FF6848C07900F0010010B97E
:104600000320634908706448007801280AD0FDF748
:10461000BDF90020FDF74CF98620FDF779F901205E
:104620005D4908707CE25A480078844206D05848B8
:10463000047877A21A210020FDF764FF1D2E0FD108
:104640005548C07920F00100401C5349C871FDF75E
:104650009DF900204C49486070A21221FDF752FFDD
:104660004D48C07900F00100F8B15FB96BA21A2182
:104670000020FDF747FF781CC7B2022044490870AC
:1046800022E04CE26420FDF722FE66A21A210020FF
:10469000FDF738FF4048807920F00200801C3E4939
:1046A000887105203A4908700EE03B4800780228DE
:1046B0000AD0FDF76BF90120FDF7FAF88620FDF727
:1046C00027F90220344908702AE2FDF7D9F830486A
:1046D0000078844206D02E48047856A21A21002081
:1046E000FDF710FF2C48007848B1FDF74FF9002086
:1046F000FDF7DEF8002028490870FDF7C1F8192EF3
:104700000BD125484079C0F3400018B1082020495A
:10471000087002E006201E49087001E21C4800787B
:10472000844206D01A48047843A21A210020FDF7DB
:10473000E9FE1948007820B1FDF728F90020164954
:104740000870192E05D1012014490870062010495F
:104750000870E5E10E480078844206D00C480478E1
:1047600037A21A210020FDF7CDFE0748406848F621
:10477000897188426ED96AE0B6E194E129E166E187
:1047800078E0FDE08EE0D9E09C01002001000020EF
:10479000000000200101002088010020020100200B
:1047A000D7D4B6AFB8F8D2A9C8A1CFFB000000009B
:1047B0006C0000205E0000201E000020CDA3D6B9B2
:1047C00000000000D7D4B6AFB8F8D2A92E2E2E0024
:1047D000613A2F736F756E64732F7A6467792E6DEB
:1047E00070330000D80000204C4344B3F5CABCBB72
:1047F000AFCDEAB3C9A1A300BCECB2E2B9E9C1E311
:10480000B4ABB8D0C6F72CC9CFC9FD2E2E2E0000F0
:10481000B6A5B8CBB9E9C1E32E2E2E00D2D1B4A5EE
:10482000B5D70000B6A5B8CBB9E9C1E3CDEAB3C9A5
:1048300000000000B4A5B5D7B4FDBBFA000000002D
:10484000D7D4B6AFC5C5BFD52E2E2E0002E00020AE
:10485000B4490870B448007801280AD0FDF796F8EA
:104860000020FDF725F88620FDF752F80120AE491B
:10487000087055E1AD484068B0F54D5F02D90020A1
:10488000A8490870A848007801280AD0FDF77EF8EA
:104890000020FDF70DF88620FDF73AF80120A24927
:1048A00008703DE19F480078844206D09D48047816
:1048B0009FA21A210020FDF725FE9C4840689B49D5
:1048C0008968884204D29848C079C0F3400028B172
:1048D000FDF75CF80420934908702EE092480078B8
:1048E00001282AD00120914908700846407800EB41
:1048F0004000924901EB40018C480078401E11F8BD
:104900001050894805718E4931F81500FDF700F8FF
:1049100005EBC5008B49421810210020FDF7F2FD80
:10492000FDF734F80020FCF7C3FF854931F8150086
:10493000FCF7EEFF01207C490870F1E0794800782F
:10494000844206D0774804787FA21A210020FDF720
:10495000D9FD7548007838B1FDF718F80120FCF74B
:10496000A7FF002070490870192E08D1AFF260121D
:104970001A210020FDF7C6FD0F206A490870CFE01C
:1049800068480078844206D06648047872A21A21EA
:104990000020FDF7B7FD6448C07900F0010010B1B8
:1049A0000420604908706048007802280BD0FCF7AA
:1049B000EDFF0120FCF77CFF2620FCF7A9FF022079
:1049C0005949087004E01A2E02D100205549087098
:1049D000A6E054480078844206D05248047861A288
:1049E0001A210020FDF78EFD504840684F49C968E4
:1049F000884202D94D484068A0B9FCF7C7FF4B4830
:104A000040684A49096908444849C86046480079ED
:104A1000012803D14FF47A70FFF760FC0A20414966
:104A2000087013E04048007802280FD0FCF7AEFF72
:104A30000120FCF73DFF8620FCF76AFF4CA2122103
:104A40000020FDF75FFD02203749087068E0354817
:104A50000078844206D03348047848A21A21002006
:104A6000FDF750FD31484168C068401E814205D9BC
:104A7000FCF78CFF00202B49087013E02A480078CF
:104A800001280FD0FCF782FF0020FCF711FF8620E1
:104A9000FCF73EFF3CA212210020FDF733FD012070
:104AA000214908703CE021484068204989688842D3
:104AB00004D21D48C079C0F3400028B1FCF766FF5E
:104AC0000420184908700EE01748007801280AD021
:104AD000FCF75CFF0020FCF7EBFE2620FCF718FF3C
:104AE0000120114908701BE00F48C07900F0010057
:104AF00028B1FCF74BFF05200A4908700EE00A4870
:104B0000007802280AD0FCF741FF0120FCF7D0FE14
:104B10002620FCF7FDFE02200349087000E000BFDC
:104B200000BF46E400000020880100209C01002016
:104B3000B6A5B8CBC9CFC9FD2E2E2E006C00002023
:104B40005E0000201E000020B5BDB6A5CDA3BBFAB7
:104B5000B4FDBBFA00000000B6A5B8CBCFC2BDB50E
:104B60002E2E2E00BBD8CEFCCFC2BDB52E2E2E00D1
:104B7000BBD8CEFCCFC2BDB500000000BBD8CEFC78
:104B8000C9CFC9FD2E2E2E00BBD8CEFCC9CFC9FD82
:104B90000000000070B505460C461DB9FBF716FB7A
:104BA00000BFFEE71348016818312846FFF796FA60
:104BB00010480068001DFFF76DFA50B90D480068F5
:104BC00090F82C10012088400B49096881430A485D
:104BD0000160601C30B907480168091D0748FFF7EC
:104BE00097FA05E00648006806193046FEF7E2FC31
:104BF00070BD00001801002030010020D407002003
:104C00002C0100202DE9F04104460D4616461CB942
:104C1000FBF7DCFA00BFFEE71348016818312046B5
:104C2000FFF776FA10480068001DFFF733FA50B915
:104C30000D48006890F82C10012088400B49096845
:104C400081430A480160012E06D107480168091D09
:104C50000748FFF75DFA05E006480068471938463F
:104C6000FEF7A8FCBDE8F08118010020300100200B
:104C7000D40700202C01002000248DE00220FFF743
:104C80002DFBFCF753F84548C07900F00100A04225
:104C900013D04248C07900F001044048C07900F0C8
:104CA000010028B13EA21D210020FDF72BFC04E0ED
:104CB0003DA21D210020FDF725FC0020FEF780FA13
:104CC00030B13648407920F040003449487106E060
:104CD0003248407920F04000403030494871092086
:104CE000FEF76EFA30B12D48C07920F001002B4953
:104CF000C87106E02948C07920F00100401C27490E
:104D0000C8712B4840682A498968884207D32348DC
:104D1000C07920F00200801C2049C87105E01F48BE
:104D2000C07920F002001D49C8710A20FEF748FA38
:104D300038B11A48C07920F00400001D1749C87125
:104D400005E01648C07920F004001449C8710A2013
:104D5000FEF736FA38B11148C07920F00800083063
:104D60000E49C87105E00D48C07920F008000B49D4
:104D7000C8710A48C068B0F57A7F07D90748C0797A
:104D800020F0100010300549C87105E00348C079D3
:104D900020F010000149C87170E700008801002070
:104DA000D2D1B4A5B5D70000CEB4B4A5B5D7000014
:104DB0009C01002010B504461CB9FBF707FA00BFA0
:104DC000FEE703480068206002480068606010BD8C
:104DD000400100202C0100201FB500200090019010
:104DE00002900346802210A10390114800F0FEFAC1
:104DF0000446012C02D100F001FD0446012C0DD126
:104E0000FBF7E4F9A01E0B49086001200A4908607D
:104E100000200A49086000F05BF804E01CB9FBF7C9
:104E2000D5F900BFFEE71FBD49444C450000000016
:104E30005138000848010020340100202C010020D6
:104E400002480068401C0149086070474C0100207E
:104E500010B51A48006818B10120194908602BE004
:104E600000201749086017480068B0FA80F0C0F1C8
:104E70001F0404EB8400144951F8200008B10120FC
:104E800000E0002018B9FBF7A1F900BFFEE704EB32
:104E900084010D4A02EB810041684968416000F1DC
:104EA000080142688A4202D141684968416041680C
:104EB000C968064A116000BF10BD00004C01002007
:104EC0003C010020300100202007002018010020B4
:104ED0001CB52248014609780191FF210246117054
:104EE0000146097800919DF8001001F010011C4A5C
:104EF000117007211B4A116009E01A490968491E0F
:104F0000184A11609DF800104906090E00919DF89D
:104F1000001001F080018029EFD0124909680902D0
:104F2000104A11601146098801F4E06111600B4AD2
:104F3000019911700C48006840F470000A4908603B
:104F40000846006840F070400860FFF761F90020F3
:104F500006490860FBF708F900201CBD00E400E0EA
:104F6000640100206801002020ED00E060010020C5
:104F70002DE9F04706460D4691464FF000080EB168
:104F8000012000E0002018B9FBF720F900BFFEE780
:104F90000DB9002702E006FB05F0471C07F14C00A5
:104FA000FEF7E2FE044664B10DB9246002E004F1AC
:104FB0004C002060E66325640121204600F0A9F83A
:104FC000A046B8F1000F03D1FBF700F900BFFEE7E0
:104FD0004046BDE8F0872DE9FF4383B005460E4605
:104FE0001F464FF000092C461CB9FBF7EFF800BF35
:104FF000FEE70EB9206C08B9012000E0002018B9C6
:10500000FBF7E4F800BFFEE700F08AFA08B905985C
:1050100008B9012000E0002018B9FBF7D7F800BF5D
:10502000FEE700BFFFF780F8A06B68B3D4F80C80F0
:1050300031462046FEF764FB8FB9A06B401EA0638B
:10504000206908B9012000E00020B8B904F110007F
:1050500000F01AFB012811D1FFF712F90EE0C4F895
:105060000C80606A08B9012000E0002030B904F12A
:10507000240000F009FB08B1FFF702F9FFF776F80A
:10508000012007B0BDE8F083059818B9FFF76EF866
:105090000020F6E7B9F1000F04D101A8FFF78AFE5E
:1050A0004FF00109FFF762F8FFF7CAFEFFF73CF87F
:1050B000606C401C08B900206064A06C401C08B9FA
:1050C0000020A064FFF752F805A901A800F054F9E8
:1050D000C0B92046FEF78AFC70B104F1240005999E
:1050E000FFF758FD2046FEF700FE00F013FB0028F6
:1050F00098D1FFF7C5F895E72046FEF7F6FD00F0DA
:1051000009FB8FE72046FEF7F0FD00F003FB0020CF
:10511000B7E770B505460E462C461CB9FBF756F8A6
:1051200000BFFEE7FFF700F8D4E90F12206801FB8B
:10513000020060600020A0632068A060E06B401E59
:10514000226C216800FB0210E0604FF0FF306064C9
:10515000A06476B9206908B9012000E0002080B978
:1051600004F1100000F090FA01280AD1FFF788F846
:1051700007E004F11000FEF7A1FF04F12400FEF7A0
:105180009DFFFEF7F3FF012070BD2DE9FF4383B0C3
:10519000064688461D464FF0000934461CB9FBF709
:1051A00015F800BFFEE7B8F1000F01D1206C08B977
:1051B000012000E0002018B9FBF708F800BFFEE767
:1051C000022D02D1E06B012801D1012000E0002076
:1051D00018B9FAF7FBFF00BFFEE700F0A1F908B924
:1051E000059808B9012000E0002018B9FAF7EEFF91
:1051F00000BFFEE700BFFEF797FFA06BE16B8842A0
:1052000001D3022D1DD12A4641462046FEF78DFAD4
:105210000746606A08B9012000E0002040B904F1A7
:10522000240000F031FA012805D1FFF729F802E047
:105230000FB1FFF725F8FEF799FF012007B0BDE891
:10524000F083059818B9FEF791FF0020F6E7B9F151
:10525000000F04D101A8FFF7ADFD4FF00109FEF7E3
:1052600085FFFFF7EDFDFEF75FFF606C401C08B99E
:1052700000206064A06C401C08B90020A064FEF708
:1052800075FF05A901A800F077F8C0B92046FEF720
:10529000BAFB70B104F110000599FFF77BFC2046C2
:1052A000FEF723FD00F036FA0028A4D1FEF7E8FF50
:1052B000A1E72046FEF719FD00F02CFA9BE72046F7
:1052C000FEF713FD00F026FA0020B7E72DE9F047BE
:1052D0000646894617461D4634461CB9FAF776FF3E
:1052E00000BFFEE7B9F1000F01D1206C08B9012021
:1052F00000E0002018B9FAF769FF00BFFEE7022DB1
:1053000002D1E06B012801D1012000E0002018B992
:10531000FAF75CFF00BFFEE7FEF784FFFAF756FFDF
:105320008246A06BE16B884201D3022D1CD12A4634
:1053300049462046FEF7F9F9A06C401C70B9606A36
:1053400008B9012000E0002058B904F1240000F061
:105350009BF930B12FB10120386002E0A06C401CF5
:10536000A0644FF0010801E04FF000085046FAF742
:1053700034FF4046BDE8F0872DE9F04104460D4674
:105380001CB9FAF723FF00BFFEE71DB9FAF71EFFAD
:1053900000BFFEE7FEF7C8FE124807682868401CF9
:1053A00008B9002619E0104920680968884204D02D
:1053B0006068B84201D801260FE06068381A296891
:1053C000884209D228686168791A401A2860204604
:1053D000FFF7F0FC002600E00126FEF7C7FE30468E
:1053E000BDE8F0812C010020400100202DE9FF4F95
:1053F00081B0804616469A46DDE90E5BB8F1000F93
:1054000003D1FAF7E3FE00BFFEE7052D01D201202C
:1054100000E0002018B9FAF7D9FE00BFFEE73046D9
:105420001099FEF7F1F80446002C5AD0701E216B3B
:1054300001EB800929F0070909F0070008B90120EC
:1054400000E0002018B9FAF7C1FE00BFFEE70096A1
:105450002A462046119B0299FEF706FA524641461B
:105460004846FEF70BFD2060BBF1000F01D0CBF8E2
:105470000040FEF759FE24480068401C224908609D
:105480002248006840B921480460084600680128A5
:105490000CD1FEF717FA09E01D48006830B91B4827
:1054A0000068C06AA84201D818480460194800681A
:1054B000401C1849086094F82C10012088401649B7
:1054C0000968084314490860E16A01EB8101134A45
:1054D00002EB8100211DFEF71BFE0127FEF746FEB1
:1054E00001E04FF0FF37012F09D10948006830B1C2
:1054F00006480068C06AA84201D2FEF7C1FE3846DD
:1055000005B0BDE8F08F0000280100201801002040
:105510003401002044010020300100202007002039
:105520000549096809B9012005E00449096809B974
:10553000022000E000207047340100204C010020D0
:1055400001490868704700002C0100202DE9F04156
:105550004FF0000841480068002872D140480068B8
:10556000401C3F49086008460668DEB93D480068AF
:10557000006808B9012000E0002018B9FAF726FEFB
:1055800000BFFEE7374807683748006835490860BC
:105590003548076035480068401C34490860FEF70C
:1055A0000DFB00BF3248006886423CD300BF2D4847
:1055B0000068006808B9012000E0002020B14FF029
:1055C000FF302B4908602DE026480068C068C46899
:1055D0006568AE4202D22648056023E0201DFEF732
:1055E00059FDA06A18B104F11800FEF753FD94F8B4
:1055F0002C10012088401F49096808431D49086094
:10560000E16A01EB81011C4A02EB8100211DFEF7DA
:105610007FFD1A49E06A0968C96A8842C7D34FF01A
:105620000108C4E700BF15480068C06A00EB8000AD
:10563000114951F82000012808D94FF0010805E070
:10564000FFE70F480068401C0D4908600D480068DE
:1056500008B14FF001084046BDE8F0814C01002040
:105660002C0100201C01002020010020400100200E
:1056700048010020300100202007002018010020F0
:10568000380100203C01002070B50646F068C4686F
:105690001CB9FAF79BFD00BFFEE704F11800FEF706
:1056A000F9FC16480068A8B9201DFEF7F3FC94F831
:1056B0002C100120884012490968084310490860ED
:1056C000E16A01EB81010F4A02EB8100211DFEF727
:1056D0001FFD04E004F118010B48FEF719FD0B490A
:1056E000E06A0968C96A884204D90125012008498D
:1056F000086000E00025284670BD00004C01002035
:105700003001002020070020AC07002018010020F5
:105710003C01002070B500253048006818B9FAF740
:1057200055FD00BFFEE7FEF7FFFC2C480068401E59
:105730002A4908600846006800284BD128480068BC
:10574000002847D024E02748C068C46804F1180046
:10575000FEF7A0FC201DFEF79DFC94F82C10012004
:1057600088402149096808431F490860E16A01EB44
:1057700081011E4A02EB8100211DFEF7C9FC1C4974
:10578000E06A0968C96A884202D3012019490860A1
:105790001448006808B9012000E000200028D2D099
:1057A0001548006878B10AE0FFF7D0FE10B101207B
:1057B0001049086010480068401E0F4908600E48F4
:1057C00000680028F0D10B480068012802D10125AB
:1057D000FEF756FDFEF7CAFC284670BD4C010020BE
:1057E00028010020AC070020300100202007002005
:1057F000180100203C010020380100201FB50024C2
:10580000FDF71EFF0B48006860B100200223CDE9C0
:10581000003002900346502207A103900848FFF78A
:10582000E5FD04461CB9FAF7D1FC00BFFEE72046AF
:1058300004B010BD58010020546D722053766300EF
:10584000D13C00082DE9FE4304460D4616461F468E
:10585000DDF828804FF000091CB9FAF7B7FC00BF4B
:10586000FEE71448006810B3009501960294062DD7
:1058700015DAFFF755FE022808D100234246694693
:105880000C480068FFF781FC814610E000231A46AF
:10589000694608480068FFF778FC814607E0002366
:1058A0003A46694603480068FFF710FD81464846BE
:1058B000BDE8FE835801002094613A2F736F756E26
:1058C00064732F30312E6D70330000000009121BFD
:1058D000242D363F48515A636C757E879099A2AB50
:1058E000B4BDC6CFD8E1EAF3FC0009121B242D3663
:1058F0003F48515A636C757E879099A2ABB4BDC680
:10590000CFD8E1EAF3FC0009121B242D363F4851A1
:105910005A636C757E879099A2ABB4BDC6CFD8E1AF
:10592000EAF3FC0009121B242D363F48515A636CE0
:10593000757E879099A2ABB4BDC6CFD8E1EAF3FCDF
:105940000009121B242D363F48515A636C757E871F
:105950009099A2ABB4BDC6CFD8E1EAF3FC0009121E
:105960001B242D363F48515A636C757E879099A24F
:10597000ABB4BDC6CFD8E1EAF3FC000000000000E4
:105980000009121B242D363F48515A636C757E87DF
:105990009099A2ABB4BDC6CFD8E1EAF3FC000912DE
:1059A0001B242D363F48515A636C757E879099A20F
:1059B000ABB4BDC6CFD8E1EAF3FC0009121B242D1D
:1059C000363F48515A636C757E879099A2ABB4BD3F
:1059D000C6CFD8E1EAF3FC0009121B242D363F485C
:1059E000515A636C757E879099A2ABB4BDC6CFD86F
:1059F000E1EAF3FC0009121B242D363F48515A639B
:105A00006C757E879099A2ABB4BDC6CFD8E1EAF39E
:105A1000FC0009121B242D363F48515A636C757ED9
:105A2000879099A2ABB4BDC6CFD8E1EAF3FC0000E1
:105A300000000000DDDDDDDDDCBBBBDDDDDDDDDD4F
:105A4000DDDDDDDD988888888888888877777777B6
:105A50007788888885555556666666666666666682
:105A6000666888888333333222222222222222222D
:105A70002228888D945A0008000000208801000028
:105A8000800C0008185B000888010020883A00009C
:105A90005C2F0008011012C8126412321221121178
:105AA0001A14021809C2FDC2FDCBD920200929070A
:105AB00019095BD6D0095BBFEC091009D7D4B6AF82
:105AC000C5C5BFD53DBBD8CEFC122009B6A5B8CB05
:105AD000BCECB2E91008030B81055902F81A8602E2
