:020000040800F2
:10000000F0440020E9010008E11D0008FD17000888
:10001000611D000859130008C935000800000000E0
:100020000000000000000000000000004501000882
:10003000F313000800000000890100086D29000882
:10004000030200080302000803020008030200087C
:10005000030200080302000803020008030200086C
:10006000030200080302000803020008030200085C
:10007000030200080302000803020008030200084C
:1000800003020008030200080D0D00080302000827
:10009000030200080302000803020008030200082C
:1000A00003020008ED29000803020008030200080B
:1000B000052B0008992B0008030200080302000822
:1000C00003020008030200080302000803020008FC
:1000D000030200086D2F00087D2F000803020008AE
:1000E00003020008030200080302000803020008DC
:1000F00003020008030200080302000803020008CC
:1001000003020008030200080302000803020008BB
:10011000352E00080302000803020008030200084D
:10012000030200080302000803020008030200089B
:10013000DFF80CD000F0DEFB00480047293F000844
:10014000F0440020204B19680868B0E8F00F80F3F5
:100150000988BFF36F8F4FF0000080F311884EF0D5
:100160000D0E70470000000006480068006880F32C
:10017000088862B661B6BFF34F8FBFF36F8F00DFA1
:1001800000BF00BF08ED00E0EFF30980BFF36F8F01
:100190000D4B1A6820E9F00F106008B54FF0100001
:1001A00080F3118805F0E6FB4FF0000080F3118822
:1001B000BDE8084019680868B0E8F00F80F30988C6
:1001C000BFF36F8F704700BF20010020EFF3118055
:1001D0004FF0100181F31188704780F31188704748
:1001E000EFF3058070470000064880470648004747
:1001F000FEE7FEE7FEE7FEE7FEE7FEE7FEE7FEE7D7
:10020000FEE7FEE78D2900083101000840EA0103FE
:100210009B0703D009E008C9121F08C0042AFAD2BC
:1002200003E011F8013B00F8013B521EF9D2704780
:100230000FB400B58DB010A909900B9000914FF04C
:10024000FF300A9000200C90054806900548079062
:100250006A4609A80F9900F08BFA0DB05DF814FBFF
:100260008D070008AB0700082DE9FF5F1D464FF022
:10027000FF3BD5E9014691465F464FF00008A9696A
:100280007F1C01988847296A824688470028F6D152
:10029000BAF1FF3F0CD024F4C064002E19DD6006D3
:1002A00014D5BAF12B0F09D0BAF12D0F0ED103E0FE
:1002B000584604B0BDE8F09F44F48064A9697F1CEF
:1002C00001988847761E8246002E02DDBAF1300F73
:1002D00003D0B9F1000F26D032E0A969761E44F4AC
:1002E00000747F1C019888478246002E05DDBAF114
:1002F000780F06D0BAF1580F03D0B9F1000F10D023
:100300001EE0B9F1000F02D0B9F1100F18D1A969A0
:10031000761E24F400747F1C0198884782461020C2
:1003200002E0082000E00A20814609E008FB0908F5
:10033000A969761E44F400747F1C019888478246A0
:10034000002E05DD4946504600F0FEF90028EDDAA2
:10035000E96901988847A00502D46FF00100A8E779
:10036000E00725D1600613D5600502D5C8F100006D
:1003700000E0404629680A1D2A600968220501D567
:10038000087015E0220701D5088011E008600FE031
:100390002868011D29600068210502D580F80080C9
:1003A00006E0210702D5A0F8008001E0C0F8008037
:1003B00038467EE780EA010210B502F000434000B3
:1003C00022D04A001FD0010E01EB1261C0F356008B
:1003D000C2F3560240F4000042F40002A0FB0220E7
:1003E00000047F39140400D0401C50EA124001D4AC
:1003F0004000491EC2B20C0604EBD010401C40085D
:10040000802A02D003E0002010BD20F00100002966
:1004100000DA0020184310BD30B480EA010202F077
:10042000004530F0004221F0004013D090B1C30DE0
:10043000D40DC2F31601C0F31600E41A41F4000112
:1004400040F400027D34914201D3641C00E0490075
:10045000002C02DA30BC002070474FF4000000236B
:10046000914201D3891A034340084FEA4101F7D171
:1004700051B1914202D14FF0004105E002D24FF05C
:10048000010101E06FF0010103EBC450284430BCCE
:1004900000F09CB92DE9FE4F81EA030404F000440A
:1004A00021F0004100944FF0000B23F0004350EA8C
:1004B00001045ED052EA03045BD0C3F30A54C1F3D3
:1004C0000A552C44A4F2F3340194A0FB0254C1F366
:1004D000130141F48011C3F3130343F4801301FBB0
:1004E000024400FB034E840A970A44EA815447EA17
:1004F0008357A4FB076802958D0A05FB07854FEA21
:10050000932C04FB0C542705029D4FEA065847EA3A
:100510001637B5EB08056EEB070C870E920E47EA0F
:10052000811742EA8312A7FB0201B6EB0B0164EBD1
:1005300000042B0D43EA0C335E1844EB1C50DA46E2
:100540005146E7FB0201C5F313044FEA0B3343EABC
:1005500014534FEA0432019C43EA0603A4F10C044D
:100560000294009CCDE900B400F076F903B0BDE838
:10057000F08F00200146F9E72DE9F04D81EA0304F0
:1005800004F0004B21F0004514464FF0000A23F020
:10059000004150EA050220D054EA01021DD0C5F303
:1005A0000A570246C5F31303C1F31300C1F30A56F9
:1005B00040F4801543F48013A7EB0608101BD646C1
:1005C00008F2FD3873EB050002D308F1010801E0E1
:1005D00092185B41B8F1000F03DA00200146BDE834
:1005E000F08D00204FF48011064684460EE0171B64
:1005F00073EB050705D3121B63EB050306434CEAB7
:10060000010C49084FEA300092185B4150EA01079B
:10061000EDD152EA030012D082EA040083EA050118
:10062000084305D0101BAB4106D20122002306E08F
:1006300000224FF0004302E06FF0010253101AEB6A
:1006400006004CEB085110EB0A0041EB0B01BDE832
:10065000F04D00F0F2B896230022114600F0BFB82A
:1006600020F00040C10DC0F3160040F400007F29C7
:1006700001DA00207047962903DCC1F19601C840D9
:10068000704796398840704700F0004230F00040D3
:100690000AD0C10D01F56071C0F3160042EA0151A4
:1006A000C20840071143704700200146704701F01F
:1006B000004330B421F0004150EA010206D00A0D97
:1006C000A2F56072C1F31301002A02DC30BC0020E5
:1006D0007047440F44EAC104C100E01830BC00EB8D
:1006E000C25000F073B82DE9F05F05460020924635
:1006F0009B4688460646814640241BE028464146E4
:100700004746224600F017F953465A46C01A91410F
:1007100010D311461846224600F0FEF82D1A67EB5A
:1007200001084F4622460120002100F0F5F817EBA2
:1007300000094E41201EA4F10104DFDC4846314689
:100740002A464346BDE8F09F3A2800D2303820F0D0
:100750002002412A01D3A2F13700884201D34FF091
:10076000FF307047026811441378016018467047E3
:10077000D16004495161044911620021116111469F
:1007800000F0EEB86507000857090008426842B15A
:10079000016811F8013B23B1521EC0E9001218464E
:1007A00070470121C160881E704742685AB1C36812
:1007B000016843B983688B4205D0491E521CC0E9C9
:1007C0000012002070474FF0FF3070470029A8BF8B
:1007D0007047401C490008BF20F00100704710B46A
:1007E000B0FA80FC00FA0CF050EA010404BF10BC1F
:1007F000704749B1CCF1200421FA04F411FA0CF14C
:1008000018BF012121430843A3EB0C01CB1D4FEA84
:1008100000614FEA102042BF002010BC704700EB7F
:10082000C35010440029A4BF10BC7047401C4900AD
:1008300008BF20F0010010BC704710B5141E73F102
:10084000000408DA401C41F1000192185B411A4390
:1008500001D120F0010010BD2DE9F04D92469B46DC
:1008600011B1B1FA81F202E0B0FA80F22032904682
:1008700000F052F804460F4640EA0A0041EA0B0134
:1008800053465A46084313D0114653EA010019D083
:10089000C8F14002504600F04EF805460E4650465C
:1008A0005946424600F038F8084305D0012004E0DC
:1008B00020463946BDE8F08D0020054346EAE07643
:1008C0002C4337430A986305E40AA0EB0800002292
:1008D000FD0A44EA47540A3002D500200146E9E700
:1008E000010510196941DDE9084500196941BDE8B4
:1008F000F04DA2E7064C074D06E0E06840F001032A
:1009000094E8070098471034AC42F6D3FFF714FC84
:100910001C6400083C640008202A04DB203A00FA2A
:1009200002F1002070479140C2F1200320FA03F346
:10093000194390407047202A04DB203A21FA02F044
:100940000021704721FA02F3D040C2F12002914009
:10095000084319467047C0B24FF4F05100F096B901
:100960002DE9F34F8BB04FF0000801F10C000C465D
:100970004FF0010B46460DF1080A01906269012112
:1009800001989047051E2DD0252D2CD0216A88472F
:10099000C0B16269012101989047216A8847002807
:1009A000F7D1411E62690198904700E0761CA16969
:1009B0000B988847216A88470028F7D1E1690B988E
:1009C0008847DBE7A1690B9888470746A84201D111
:1009D000761CD3E7E1690B9888477F1C02D1B8F1F8
:1009E000000F6FD046E1002762693D463946019805
:1009F00090472A2804D16269012101989047012576
:100A0000DFF884926269012101989047A0F13001DA
:100A10000A290AD24F45E5DC07EB870100EB4107C5
:100A2000303FDFD445F01005ECE7E90601D46FF064
:100A300000476C280AD04C2814D0682815D06A28A2
:100A40000DD074281CD07A281AD01DE062690121CB
:100A5000019890476C2802D045F0040514E045F059
:100A600002050DE045F020050AE0626901210198C8
:100A70009047682802D045F0080505E045F4006578
:100A80006269012101989047C4E9015765283DD06A
:100A900019DC58287AD00CDC452837D004DC25280E
:100AA00026D0412831D131E046282FD047282CD1FB
:100AB0002CE05B2877D0612828D063287CD064287C
:100AC00023D15AE0D0E06F2848D008DC66281DD03A
:100AD00067281BD0692821D06E2816D127E07028FE
:100AE00045D0732868D0752847D078280DD14DE0BF
:100AF000A1690B988847054625283FF469AFE1694D
:100B00000B9888476D1C3FF46AAFB3E023466A46F2
:100B10006FF001000B99AFF300809EE045F04000BC
:100B20006060A80723464FF0000236D43EE0E80795
:100B30007FF447AF2068011D21600068290501D5B9
:100B400006701BE7290701D5068017E7A90703D51B
:100B5000F117C0E9006111E706600FE745F04000BA
:100B60006060A80723464FF0080216D41EE040F646
:100B70000E0125EA0100606016E045F0400060606B
:100B8000A80723464FF00A0207D40FE045F04000C3
:100B90006060A80708D5234610226FF001000B996A
:100BA000AFF3008059E007E0234610226FF0010008
:100BB0000B99FFF759FB50E04FF000094F464B46A9
:100BC000632802D05B2806D040E0E80601D401206B
:100BD000A06001273AE062690121019890475E28F0
:100BE00005D14FF001096269494601989047216992
:100BF00039B900210A46534643F82120491C0829E7
:100C0000FADBB0B3216969B9C11700EBD1625311A6
:100C10000AEB830122F01F02821A01200B68904028
:100C200003430B6062690121019890475D28E8D178
:100C3000B9F1000F09D00020514651F82020D243CD
:100C400041F82020401C0828F7DB02AB2246009721
:100C50006FF001000B99AFF3008000280CDA401C04
:100C600008D1BBF1000F05D04FF0FF300DB0BDE84B
:100C7000F08FFFE74046F9E7E90701D108F10108E5
:100C800006444FF0000B79E6CCCCCC0C7F2801D980
:100C9000002208E0064A02EB5002C007127800D199
:100CA000120902F00F020120904008407047000036
:100CB000DC63000870B58C1810F8015B15F00703B1
:100CC00001D110F8013B2A1106D110F8012B03E0E5
:100CD00010F8016B01F8016B5B1EF9D12B0705D4ED
:100CE0000023521E0DD401F8013BFAE710F8013B36
:100CF000CB1A921C03E013F8015B01F8015B521E52
:100D0000F9D5A142D8D3002070BD000010B54FF432
:100D10000871094800F03CF9012806D1064800F0A6
:100D200033F90446204600F0C3FB4FF40871024833
:100D300000F010F910BD00000024014008B50121A9
:100D4000042001F093FB0120ADF8000000208DF895
:100D500003006946014800F04CFC08BD001001404A
:100D60002DE9F04F87B00020049004A800F04AFB62
:100D70000590BDF8100010B907B0BDE8F08F00BFB6
:100D8000BDF81000FFF767FC4FF08B410190FFF7B3
:100D900043FB8346FFF778FC4FF06632214BCDE9E9
:100DA0000201FFF777FB064600221F4BFFF772FB9D
:100DB000044600221D4BFFF7DFFB8046FFF777FC60
:100DC00082461B495046FFF7F5FA0446FFF748FCF8
:100DD000184948810846408946F27021884203DD5F
:100DE00008461449488108E01248408944F27401D9
:100DF000884202DC08460F4948810E484089A0F528
:100E0000804074386421484342F2FC1190FBF1F0B9
:100E1000084948720846427A418907A002F0D6FB89
:100E200000BFA9E766660A40004055400000244024
:100E300000007A4458020020706F7765725F763A3E
:100E4000256420706F7765725F70657263656E747C
:100E50003A25640D0A00000018B90221034A5161C5
:100E600002E00221014A11617047000000100140B8
:100E700008B50121480201F019FB0121042001F00D
:100E8000F5FA0020FFF7E8FF03208DF8020010209C
:100E90008DF803000220ADF800006946034800F019
:100EA000A8FB0120FFF7D8FF08BD0000001001409B
:100EB00010B5FFF7DDFFFFF741FF00F005F800F088
:100EC000B7F800F097FA10BD00B585B001214802CF
:100ED00001F0ECFA002000908DF804008DF8050078
:100EE0004FF4002002900020039001208DF81000A4
:100EF0006946174800F074F8052301220A211448B6
:100F000000F0A7F80021124800F029F801224FF460
:100F100008710F4800F058F801210D4800F01FF843
:100F20000B4800F0F2F800BF094800F043F8002831
:100F3000FAD1074800F0F9F800BF054800F01AF8A8
:100F40000028FAD10121024800F0E4F805B000BD04
:100F50000024014000220A12D3430360704721B1EC
:100F6000826842F00102826003E0826822F001029E
:100F700082607047014600208A6802F004020AB1CC
:100F8000012000E0002070470146C86C80B2704725
:100F900070B502460020002300240B125568CEB223
:100FA00005EA060415681D4015B10CB1012000E0EA
:100FB000002070BD014600208A6802F008020AB1D4
:100FC000012000E00020704710B50023CBB21AB119
:100FD00044681C43446002E044689C43446010BD84
:100FE00030B502460020002350680F4C20400D7998
:100FF0000C6844EA05242043506090680B4C204064
:10100000D1E902542C434D7944EA450420439060D1
:10101000D06A20F470000C7C641EE4B2234340EAE2
:101020000350D06230BD0000FFFEF0FFFDF7F1FF7E
:1010300008B512208DF8000003208DF80100002073
:101040008DF8020001208DF80300684600F0D0FE04
:1010500008BDF0B504460D4600200021092D11DD24
:10106000E068A5F10A0606EB4607072606FA07F12F
:101070008843A5F10A0606EB460603FA06F1084383
:10108000E0600CE0206905EB4507072606FA07F14A
:10109000884305EB450603FA06F108432061072A59
:1010A0000FDA606B561E06EB86071F2606FA07F15D
:1010B0008843561E06EB860605FA06F10843606370
:1010C00022E00D2A0FDA206BD61F06EB86071F26BB
:1010D00006FA07F18843D61F06EB860605FA06F1E5
:1010E0000843206310E0E06AA2F10D0606EB8607D4
:1010F0001F2606FA07F18843A2F10D0606EB8606C5
:1011000005FA06F10843E062F0BD816841F008018C
:101110008160704721B1826842F4A002826003E0DE
:10112000826822F4A00282607047816841F0040165
:101130008160704770B504460D461646EE2001F0FA
:1011400057FAB12001F054FA232001F051FA200A95
:1011500001F04EFAE0B201F04BFA280A01F048FA29
:10116000E8B201F045FAF0B201F042FAFF2001F0D6
:101170003FFAFC2001F03CFAFF2001F039FAFF2091
:1011800001F036FA70BD00001FB50020214A04238B
:10119000CDE901200093039003464FF400721EA195
:1011A000204804F0B5FE00201F4A0323CDE90120AA
:1011B0000093039003464FF400721CA11F4804F0F3
:1011C000A7FE00201E4A0123CDE9012000930390D1
:1011D000034680221BA11E4804F09AFE00201D4AEF
:1011E0000223CDE9012000930390034680221AA137
:1011F0001C4804F08DFE00201B4A0523CDE9012088
:10120000009303900346802213A1184804F080FE47
:101210001FBD000004000020765461736B4C4344F2
:10122000000000007D4D0008080000207654617326
:101230006B4D6F746F724374726C0000B54D000893
:101240000C000020765461736B53656E736F7200EF
:101250009D57000810000020765461736B41646351
:10126000000000008D4C000814000020B54C000860
:1012700008B50121042001F019F94FF480700849E4
:10128000086003208DF8020010208DF80300000193
:10129000ADF8000069460248143800F0AAF908BD0C
:1012A0001408014010B508A002F0FEFD40200A49D4
:1012B0000860642003F02AFD40200749091F0860E8
:1012C000642003F023FD10BD426C652072657365D8
:1012D00074210D0A00000000140C014010B500F04C
:1012E00003F800F033F810BD08B501210C2001F01F
:1012F000DDF803208DF8020010208DF80300802017
:10130000ADF8000069460F4800F073F94020ADF8D1
:10131000000069460B4800F06CF948208DF8030086
:101320004FF40040ADF800006946074800F061F94D
:101330008021044800F0F7F94021024800F0F3F959
:1013400008BD0000000C01400008014000200149D8
:1013500048707047E40E002000BFFEE7014609B95F
:1013600009487047012901D10848FAE7022901D14B
:101370000020F6E7032901D10548F2E7042901D14D
:101380000020EEE70020ECE7A4080020CC0A0020B3
:10139000F40C002008B525208DF8000001208DF800
:1013A000010000208DF8020001208DF8030068463E
:1013B00000F01EFD26208DF8000001208DF80100B0
:1013C00000208DF8020001208DF80300684600F02F
:1013D0000FFD34208DF8000001208DF80100002061
:1013E0008DF8020001208DF80300684600F000FD32
:1013F00008BD70470020024908704870704700001F
:1014000024050020F0B586B0044600252748407822
:1014100080B92648007810B9002006B0F0BD2348F6
:101420000078401E214FBF1C37F810002080B81EE6
:101430000078F2E7002107E01C48801C30F811001A
:101440002DF81100481CC1B20B29F5DB00231AE06E
:10145000002212E03DF81270501C3DF81000874247
:1014600009DD3DF81260501C3DF810002DF8120007
:10147000501C2DF81060501CC2B2C3F10B009042FA
:10148000E8DC581CC3B20A2BE2DB012104E03DF882
:1014900011000544481CC1B20A29F8DB0920B5FB3C
:1014A000F0F0208001480078B7E700002405002014
:1014B00001460A4802780078401C084B1870981CB6
:1014C00020F81210801E00780A2804DD00201A4639
:1014D00010700120507001480078704724050020EA
:1014E00030B5044604254FF4302000F06FF805466F
:1014F000042D17D10C48006940F002000A49086128
:1015000008464461006940F0400008614FF4302013
:1015100000F05CF805460448006941F6FD7108409A
:1015200001490861284630BD0020024004200B49D3
:10153000C96801F0010109B101200EE00749C9683D
:1015400001F0040109B1022007E00449C96801F073
:10155000100109B1032000E0042070470020024080
:101560000348006940F080000149086170470000AD
:101570000020024070B504460D460426F00200F03B
:1015800025F80646042E11D10948006940F00100F3
:10159000074908612580F00200F018F80646044863
:1015A000006941F6FE71084001490861304670BD8E
:1015B00000200240024803494860034848607047E1
:1015C0002301674500200240AB89EFCD00B50246FC
:1015D0000423FFF7ABFF034603E0FFF7A7FF034633
:1015E000521E012B01D1002AF7D102B9052318465A
:1015F00000BD2DE9F0410246002500260020002311
:101600000024002791F803C00CF00F0591F803C0E7
:101610000CF0100CBCF1000F03D091F802C04CEAA2
:10162000050591F800C0BCF1000F31D0146800200E
:101630002BE04FF0010C0CFA00F3B1F800C00CEAFB
:1016400003069E4220D183004FF00F0C0CFA03F7E3
:10165000BC4305FA03FC4CEA040491F803C0BCF156
:10166000280F06D14FF0010C0CFA00FCC2F814C090
:101670000AE091F803C0BCF1480F05D14FF0010C0E
:101680000CFA00FCC2F810C0401C0828D1D314602A
:10169000B1F800C0BCF1FF0F34DD546800202EE02B
:1016A00000F1080C4FF0010808FA0CF3B1F800C083
:1016B0000CEA03069E4221D183004FF00F0C0CFA76
:1016C00003F7BC4305FA03FC4CEA040491F803C099
:1016D000BCF1280F05D100F1080C08FA0CF8C2F88B
:1016E000148091F803C0BCF1480F07D100F1080C39
:1016F0004FF0010808FA0CF8C2F81080401C0828C6
:10170000CED35460BDE8F0810146886880B270474E
:101710000246002093680B400BB1012000E000203E
:1017200070474161704701617047000008B54FF490
:101730000070ADF8000004208DF8030003208DF840
:10174000020069460848FFF754FF4FF48070ADF877
:10175000000003208DF8020010208DF80300694678
:101760000148FFF746FF08BD000C014070B500249A
:10177000002500BF4FF400711F48FFF7D4FF4FF45E
:1017800080711D48FFF7CDFF00BF4FF400711A486C
:10179000FFF7BEFF0028F8D1012002F0ACFB0025C6
:1017A00013E04FF480711448FFF7BDFF64004FF45D
:1017B00080711148FFF7B5FF4FF400710E48FFF735
:1017C000A7FF00B1641C681CC5B2182DE9DB4FF4FB
:1017D00080710948FFF7A7FF012002F08CFB84F419
:1017E00000044FF480710448FFF79BFF012002F0D2
:1017F00082FB204670BD0000000C014009A10020C2
:101800000CE00A5C124B1A8000BF114A121F1288AA
:1018100002F04002002AF8D0421CD0B22A28F0D3AD
:1018200000BFFEE70D0A456E746572204861726460
:101830004661756C745F48616E646C65722C2053F0
:10184000797374656D2048616C742E0D0A00000078
:101850000438014000B585B00121052000F026FEC6
:101860000121880300F022FE4FF40070ADF8100053
:1018700018208DF8130003208DF8120004A95B488E
:10188000FFF7B7FE4FF48060ADF8100004208DF82C
:10189000130004A95548FFF7ACFE4FF4E130009067
:1018A0000020ADF80400ADF80600ADF80800ADF872
:1018B0000C000C20ADF80A0069464D4801F0D8FB39
:1018C000012240F225514A4801F0ACFB0121484871
:1018D00001F065FB4021464801F058FB012105203D
:1018E00000F0E4FD0121480400F0D0FD0420ADF833
:1018F000100018208DF8130003208DF8120004A9A1
:101900003A48FFF776FE0820ADF8100004208DF865
:10191000130004A93548FFF76CFE04A93348FFF70C
:1019200068FE4FF4964000900020ADF80400ADF83A
:101930000600ADF80800ADF80C000C20ADF80A0068
:1019400069462C4801F094FB012240F225512948B8
:1019500001F068FB0121274801F021FB40212548C7
:1019600001F014FB0121112000F0A0FD0121C804A9
:1019700000F08CFD4FF48060ADF8100018208DF859
:10198000130003208DF8120004A91B48FFF731FE55
:101990004FF40060ADF8100004208DF8130004A986
:1019A0001548FFF726FE4FF4614000900020ADF887
:1019B0000400ADF80600ADF80800ADF80C000C20EE
:1019C000ADF80A0069460D4801F052FB012240F2D1
:1019D00025510A4801F026FB0121084801F0DFFAF1
:1019E0004021064801F0D2FA05B000BD00080140D0
:1019F000003801400044004000100140004C00400D
:101A00000448006800F0100008B901207047002069
:101A1000FCE70000080801400448006800F480402A
:101A200008B9012070470020FCE70000080C0140C5
:101A30000448006800F4004008B901207047002005
:101A4000FCE70000080C01400448006800F020009A
:101A500008B9012070470020FCE700000808014099
:101A60000448006800F0400008B9012070470020D9
:101A7000FCE70000080801400448006800F080000E
:101A800008B9012070470020FCE700000808014069
:101A90000448806800F0100008B901207047002059
:101AA000FCE70000001001400448806800F02000BE
:101AB00008B9012070470020FCE700000010014039
:101AC0000448006800F0010008B9012070470020B8
:101AD000FCE70000080C01400448006800F0020028
:101AE00008B9012070470020FCE70000080C014005
:101AF0000448006800F4005008B901207047002035
:101B0000FCE70000080C014008B53F48807800F071
:101B1000010028B93DA21221002000F0FDFE04E0E2
:101B20003CA21221002000F0F7FE3CA21021002070
:101B300000F0F2FE3BA21121002000F0EDFE324841
:101B400080683949884209D1012000902E4800233D
:101B500014218268184600F099FE0DE02A4880683A
:101B60003249884208D101200090274800231421DF
:101B70008268184600F08AFE012000902248002367
:101B800013214268184600F081FE2948807920F030
:101B90000200801C264988710846807920F00100E7
:101BA000401C88710846807920F008008871022066
:101BB0001549487001221146002000F02BFD01223A
:101BC0000321002000F026FD01221521002000F055
:101BD00021FD00220521104600F01CFD00220621F7
:101BE000104600F017FD01220721002000F012FD31
:101BF00000220821104600F00DFD00222021104691
:101C0000FFF798FA08BD000034030020C9CFC9FDD2
:101C100000000000CFC2BDB500000000CDA3D6B9C2
:101C200000000000300000007EB903008EAF040009
:101C3000580200200020014948607047340300200A
:101C400010B5044605480649886002F083F920462D
:101C500002F09CF900200249C86110BD7EB9030062
:101C60003403002010B504461048807864F3000067
:101C70000E4988702CB14FF480510D48FFF753FD89
:101C800004E04FF480510A48FFF74BFD642003F055
:101C90003DF82CB107A21221002000F03DFE04E027
:101CA00006A21221002000F037FE10BD34030020F0
:101CB00000080140CFC2BDB500000000C9CFC9FD7A
:101CC0000000000038B504462546681E81B2114860
:101CD00001F026F80120C0EB550081B20D4801F05B
:101CE00021F80120C0EB550081B20A4801F01DF82F
:101CF00000F014F80848807820F040004030064991
:101D00008870012000232A4611210090184600F017
:101D1000BDFD38BD002C01403403002010B506483D
:101D2000807820F0080008300349887001210348BA
:101D300000F06DFF10BD000034030020002C0140B6
:101D400010B50548807820F008000349887000210C
:101D5000024800F05CFF10BD34030020002C01405D
:101D600000BFFEE710B502460B46064903E031F816
:101D7000020B22F8020B181EA3F10104A3B2F6D144
:101D8000012010BD005401082DE9F04104460D4624
:101D9000124FFFF70FFC3846FFF7A2FB0646042E52
:101DA00004D0FFF7DDFB0020BDE8F0810CE02188C6
:101DB0003846FFF7DFFB0646042E03D0FFF7D0FBC3
:101DC0000020F1E7BF1CA41C281EA5F101018DB263
:101DD000EDD1FFF7C5FB0120E6E700000054010844
:101DE000704710B501220221032000F013FC10BD42
:101DF00070B5002100230F22C47804B3154C246869
:101E000004F4E064C4F5E064210AC1F10403CA40AB
:101E1000447804FA03F184781440214309010E4CFC
:101E20000678A155047804F01F050124AC4005781C
:101E30006D11AD0005F1E025C5F8004109E0047819
:101E400004F01F050124AC40044D0678761145F8D6
:101E5000264070BD0CED00E000E400E080E100E011
:101E600002490143024A1160704700000000FA0570
:101E70000CED00E0F8B506460C461546002E09D1DB
:101E8000012C0FD13DB1A148807920F00200801CC7
:101E90009E498871CDE09D48807920F002009B49E1
:101EA0008871C6E0022C0FD13DB19848807920F0AE
:101EB0000400001D95498871BBE09448807920F0AA
:101EC000040092498871B4E0032C0FD13DB18F48D2
:101ED000807920F00100401C8C498871A9E08B4872
:101EE000807920F0010089498871A2E0042C08D192
:101EF0001DB10020FFF7B6FE9BE00120FFF7B2FE08
:101F000097E0062C03D100208149487091E0052C10
:101F100003D101207E4948708BE0072C03D10220B9
:101F20007B49487085E0082C03D10320784948702C
:101F30007FE0152C0CD1774875498860012000900E
:101F40000846002314218268184600F09FFC70E0C8
:101F5000162C0CD170486E4988600120009008460C
:101F6000002314218268184600F090FC61E01C2CCC
:101F70005FD17DB36548807920F02000203063492F
:101F8000887101221021002000F0AEFB01221121F6
:101F9000002000F0A9FB01221221002000F0A4FB88
:101FA00001221321002000F09FFB012214210020B8
:101FB00000F09AFB01221921002000F095FB01227C
:101FC0001A21002000F090FB01221D21002000F0CA
:101FD0008BFB2EE0FFE74D48807920F020004B4935
:101FE000887100221021104600F07EFB0022112192
:101FF000104600F079FB00221221104600F074FB1D
:1020000000221321104600F06FFB0022142110461D
:1020100000F06AFB00221921104600F065FB002247
:102020001A21104600F060FB00221D21104600F02E
:102030005BFB012E25D1002C23DD082C21DA8DB18C
:10204000012000903148C26804F10B0081B20023E6
:10205000012000F01BFC2D4AD168621ED0B200F0B6
:1020600001F90EE00120009004F10B0081B2002381
:102070001A46012000F00AFC611EC8B2002100F0DF
:10208000F1F8022E40D1092C1CD12048807920F093
:10209000100010301D49887120480078052802D0B2
:1020A0001E48007840B91EA21A21022000F034FC1C
:1020B0000E201A49087027E01CA21A21002000F007
:1020C0002BFC21E00A2C08D10020144908701DA225
:1020D0001A21022000F020FC16E00B2C14D10F482E
:1020E0000078042802D00D48007840B918A21A21BF
:1020F000022000F011FC0F200849087004E00BA238
:102100001A21022000F008FCF8BD0000580200204F
:10211000340300207EB903008EAF040000000020CD
:10212000B6A5B8CBC9CFC9FD2E2E2E00B6A5B8CB0B
:10213000CEB4D4DAB5D7B2BFA3ACB2D9D7F7B4ED29
:10214000CEF30000B6A5B8CBCDA3D6B900000000F1
:10215000B6A5B8CBB9E9C1E32E2E2E007047704763
:102160007047704770B504AC70CC70BD38B505468B
:102170000F48058015B901200E490870012D16D1B0
:10218000642001F0AFFE00240FE0012000900A4817
:1021900050F8242004F10B010023012000F076FB0D
:1021A000642001F09FFE601CC4B2072CEDDB38BD3B
:1021B00000010020EC000020380600207047F8B530
:1021C00006460D461446072E11D1052D0FD1642C5D
:1021D00000D364B122460421072000F0AEFA0120AA
:1021E0000023224606210090072000F04FFBF8BD97
:1021F0002DE9FC4104460D461646042C29D1002049
:10220000019001AA14A13046FEF712F8022D1FD149
:102210000198002802DA0020019006E00198B0F54C
:10222000BE7F02DD4FF4BE700190012000230090BC
:1022300002210420019A00F029FB0120019F009057
:1022400007EBD770421001230521042000F01EFB8C
:1022500000BFBDE8FC810000256C6400704770473A
:102260007047000070B504460D46044840F82450FD
:10227000034840F8245000F0B3F970BD040F00206B
:10228000380600200246002108E0064850F82100E8
:10229000904201D308467047481CC1B20729F4DBBD
:1022A0000620F8E7040F002070B504460025EE2054
:1022B00000F09EF9942000F09BF944B100BF04E0C7
:1022C000605D00F095F9681CC5B2132DF8DBFF20A6
:1022D00000F08EF9FC2000F08BF9FF2000F088F967
:1022E000FF2000F085F970BD2DE9FE4F04460D4634
:1022F0006678A77894F807802079E17840EA012988
:10230000A079617940EA012A207A0106607A41EADF
:102310000041A07A41EA0020E17A40EA010B0D2E4B
:102320002CD008DC012E0FD0032E0ED00B2E29D07E
:102330000C2E6FD11EE00F2E2CD0552E6BD0B12E4F
:1023400043D0F72EF5D12BE000BF474B5B79DFF888
:1023500018C19CF804C043EA0C22434BDB78DFF839
:1023600008C19CF802C043EA0C213F4B5878FFF7A4
:1023700076FF76E00120FFF773FF72E00020FFF7A1
:102380006FFF6EE0A81F82B23749891C0120FFF75A
:10239000E8FE66E0002211461046FFF7E2FE60E02C
:1023A0003148017AC079304A9279DFF8BCC0CDE972
:1023B000002002919CF805309CF804209CF8031042
:1023C0009CF80200FFF7CEFE4BE0012F03D14846F8
:1023D000FFF7CCFE40E0A8F110000C283AD2DFE86D
:1023E00000F0060C131B213939343939272E627A53
:1023F00051464846FFF73EFD2DE004F108025146E4
:102400004846FFF7F5FE26E05A4651464846FFF794
:10241000A7FE20E024E020E05A4651464846FFF758
:10242000CEFE18E05A4651464846FFF798FE12E0A5
:10243000637A227A51464846FFF790FE0BE0227AF3
:1024400051464846FFF7BAFE05E051464846FFF7B9
:1024500005FF00E000BF00BF03E0FFF7C2FC00E0A3
:1024600000BF00BFBDE8FE8F1C04002029B1064A52
:1024700052690243044B5A6104E0034A52698243A1
:10248000014B5A61704700000010024029B1064A12
:10249000D2690243044BDA6104E0034AD269824301
:1024A000014BDA61704700000010024029B1064A72
:1024B00092690243044B9A6104E0034A92698243A1
:1024C000014B9A61704700000010024030B50021B6
:1024D0000022002400232D4D6D6805F00C0121B170
:1024E000042905D0082923D105E0294D056022E003
:1024F000274D05601FE0254D6D6805F47012234DD2
:102500006D6805F48034022505EB92421CB9214D1B
:10251000554305600BE01D4D6D6805F400351DB198
:102520001C4D5543056002E0194D5543056002E01E
:10253000174D056000BF00BF144D6D6805F0F00138
:102540000909154D6B5C0568DD4045600F4D6D68F0
:1025500005F4E061090A104D6B5C4568DD4085605B
:102560000A4D6D6805F46051C90A0B4D6B5C4568F6
:10257000DD40C560054D6D6805F44041890B074D90
:102580006B5CC568B5FBF3F5056130BD001002401A
:1025900000127A0000093D00090100201901002005
:1025A00008B501210820FFF781FF03208DF8020004
:1025B00010208DF803000420ADF8000069460248A1
:1025C000FFF717F808BD0000000C014000B52821F6
:1025D0000248FFF7C7FB012000BD000004060020F1
:1025E00010B528210148FFF7CFFB10BD04060020DD
:1025F00001B501226946104601F03FFC08BD10B547
:10260000044603E02078FFF7F3FF641C20780028DD
:10261000F8D110BD70B504460D461646EE20FFF702
:10262000E7FFB120FFF7E4FF1020FFF7E1FF200AEA
:10263000FFF7DEFFE0B2FFF7DBFF280AFFF7D8FF66
:10264000E8B2FFF7D5FFF0B2FFF7D2FFFF20FFF7A8
:10265000CFFFFC20FFF7CCFFFF20FFF7C9FFFF20D3
:10266000FFF7C6FF70BD10B50446EE20FFF7C0FFB0
:102670006120FFF7BDFFE0B2FFF7BAFFFF20FFF7D1
:10268000B7FFFC20FFF7B4FFFF20FFF7B1FFFF20EB
:10269000FFF7AEFF10BD70B504460D461646EE209E
:1026A000FFF7A6FFB120FFF7A3FF0420FFF7A0FF6D
:1026B000200AFFF79DFFE0B2FFF79AFF280AFFF715
:1026C00097FFE8B2FFF794FFF0B2FFF791FFFF200A
:1026D000FFF78EFFFC20FFF78BFFFF20FFF788FF3F
:1026E000FF20FFF785FF70BD70B504460D46164606
:1026F000EE20FFF77DFFB120FFF77AFF0320FFF701
:1027000077FF200AFFF774FFE0B2FFF771FF280A96
:10271000FFF76EFFE8B2FFF76BFFF0B2FFF768FF5D
:10272000FF20FFF765FFFC20FFF762FFFF20FFF7A8
:102730005FFFFF20FFF75CFF70BD70B505460E46DA
:102740001446EE20FFF754FFB120FFF751FF102091
:10275000FFF74EFF280AFFF74BFFE8B2FFF748FFED
:10276000300AFFF745FFF0B2FFF742FF200EFFF7F8
:102770003FFFC4F30740FFF73BFFC4F30720FFF719
:1027800037FFE0B2FFF734FFFF20FFF731FFFC20F7
:10279000FFF72EFFFF20FFF72BFFFF20FFF728FF9B
:1027A00070BD10B500F002F810BD00000CB500209F
:1027B000019000903348006840F48030314908604F
:1027C00000BF3048006800F4003000900198401CC1
:1027D0000190009818B90198B0F5A06FF1D129487F
:1027E000006800F4003010B10120009001E00020EA
:1027F00000900098012843D12348006840F0100061
:10280000214908600846006820F003000860084677
:10281000006840F0020008601A48406819494860A2
:102820000846406848600846406840F48060486058
:102830000846406820F47C1048600846406840F430
:10284000E81048600846006840F08070086000BFEB
:102850000C48006800F000700028F9D00948406872
:1028600020F00300074948600846406840F0020035
:10287000486000BF0348406800F00C000828F9D108
:102880000CBD000000100240002002402DE9F04184
:1028900005460E4614461F46DDF81880EE20FFF769
:1028A000A7FEB120FFF7A4FE0720FFF7A1FE280A2C
:1028B000FFF79EFEE8B2FFF79BFE300AFFF798FE97
:1028C000F0B2FFF795FE0FB1012100E00021C8B280
:1028D000FFF78EFE08F00F0141F08000FFF788FE41
:1028E000200EFFF785FEC4F30740FFF781FEC4F317
:1028F0000720FFF77DFEE0B2FFF77AFEFF20FFF72B
:1029000077FEFC20FFF774FEFF20FFF771FEFF202B
:10291000FFF76EFEBDE8F08170B504460D46164621
:10292000EE20FFF765FEB120FFF762FE1020FFF7F3
:102930005FFE200AFFF75CFEE0B2FFF759FE280AAF
:10294000FFF756FEE8B2FFF753FE3046FFF757FE9B
:10295000FF20FFF74DFEFC20FFF74AFEFF20FFF7A8
:1029600047FEFF20FFF744FE70BD000010B5FDF7E5
:102970002DFC03F07DFB18B14FF080500249086038
:102980000020FDF72AFC10BD04ED00E010B513484F
:10299000006840F00100114908600846406810498D
:1029A00008400E494860084600680E4908400B4937
:1029B00008600846006820F48020086008464068E7
:1029C00020F4FE0048604FF41F008860FFF7E9FE26
:1029D0004FF000600449086010BD00000010024084
:1029E0000000FFF8FFFFF6FE08ED00E010B5012142
:1029F000104800F027F9E0B101210E4800F004F979
:102A00000D48807800F0010058B90B4840680A4929
:102A1000896888420DD208484068401C06494860D1
:102A200007E00548406820B103484068401E02495D
:102A3000486010BD002C01403403002010B58AB05E
:102A40000446012140F60400FFF730FD4FF400601A
:102A5000ADF8240018208DF8270003208DF82600FB
:102A600009A92648FEF7C5FD601E80B2ADF81C001E
:102A70004720ADF818000020ADF81E00ADF81A0090
:102A80008DF8200006A91E4800F052F96020ADF82C
:102A900008000120ADF80A00C0EB540080B2ADF888
:102AA0000E000220ADF8100002A9154800F0E4F86D
:102AB0000121134800F09CF80821114800F01AF990
:102AC00001210F4800F0AFF800210D4800F09FF8F9
:102AD000012211460A4800F0C6F819208DF80400BA
:102AE00000208DF805008DF8060001208DF8070004
:102AF00001A8FFF77DF90AB010BD000000080140F1
:102B0000002C014010B50121880700F09BF8012836
:102B100036D10121800700F077F81A48006820B10B
:102B200018480068401E174908601748006820B11F
:102B300015480068401E1449086001F04DF913481B
:102B4000FEF7E2FD00F4004088B1114800785028FB
:102B500007DD1048007820F00100401C0D49087086
:102B60000EE00B480078401C0949087008E000207E
:102B7000074908700748007820F0010005490870EF
:102B800010BD0000F0000020F4000020000801400B
:102B900007010020E40E002010B50121104800F0CC
:102BA00051F801281BD101210D4800F02DF80D48E6
:102BB000007820B10B480078401C0A4908700A4888
:102BC000007820B108480078401C07490870074881
:102BD000007820B105480078401E0449087010BDF7
:102BE000000400400401002005010020060100202F
:102BF00021B1028842F08002028004E002884FF690
:102C00007F731A4002807047CA430282704721B125
:102C1000028842F00102028004E002884FF6FE734F
:102C20001A400280704731B1B0F8442042F40042AB
:102C3000A0F8442005E0B0F84420C2F30E02A0F84A
:102C40004420704730B50246002000230024158A36
:102C500005EA0103958905EA010413B10CB10120CD
:102C600000E0002030BD1AB183890B43838102E06C
:102C700083898B438381704770B500220023002431
:102C8000058C4EF6FF7635400584038C8488828B54
:102C900048F6FF752A404FF6FF452A400D884FF64B
:102CA000FF7606EA05252A434DF6FF752B400D8970
:102CB00006EA05352B434D8806EA05352B430B4DB7
:102CC000A84202D00A4DA84208D14BF6FF752C400D
:102CD0008D894FF6FF7606EA85152C438480828322
:102CE000CD88A0F84050038470BD0000002C014046
:102CF000003401400A460021818B4FF2FF731940D6
:102D00004FF6FF7303EA02231943818370478288D9
:102D10004FF68F731A40828082880A438280704700
:102D200081857047A0F8401070478184704700008B
:102D3000002202881D4B98420ED01D4B98420BD0AA
:102D4000B0F1804F08D01B4B984205D01A4B9842E7
:102D500002D01A4B984204D14FF68F731A404B8819
:102D60001A43174B984207D0164B984204D04FF69F
:102D7000FF431A40CB881A4302808B8883850B88D7
:102D800003850A4B98420BD0094B984208D00E4B52
:102D9000984205D00D4B984202D00D4B984201D17C
:102DA0000B7A03860123838270470000002C0140C8
:102DB000003401400004004000080040000C0040C6
:102DC0000010004000140040004001400044014059
:102DD000004801401148807820F001000F498870B8
:102DE00001200870022048700D488860002048606B
:102DF0000C49C860642048720846807920F00200BF
:102E0000801C88710846807920F00100401C887180
:102E10000846807920F0080088717047340300204C
:102E20007EB903005802002010B501F0A1FD01F0A9
:102E3000D1FD10BD10B5024800F0B0F910BD000082
:102E4000F40C002010B500F017F8002006490880A7
:102E50000649086006490870064908704FF49670E4
:102E600001F054FF10BD0000F8000020F400002025
:102E7000EC000020ED00002008B501210420FFF740
:102E800015FB03208DF8020010208DF803000120AF
:102E9000ADF8000069460948FEF7ABFB48208DF805
:102EA00003000220ADF8000069460448FEF7A1FBCC
:102EB00001210248FEF737FC08BD00000008014070
:102EC00010B500244021234801F0DAFC0446002C10
:102ED00003DD21461F48FFF707FA1F48006820B9A5
:102EE00064201D49086000F059FA1C488078C0F33E
:102EF000C00008B31A480068F0B91A4800780628DC
:102F00000BD116480078401E174931F810001449BB
:102F100008600A20FFF7A7FB1AE0124800780A2889
:102F200003D0104800780B2807D10F4880890C493E
:102F300008600A20FFF797FB0AE00A480078082893
:102F400006D109484089064908600A20FFF78BFB33
:102F500010BD00001C040020F000002034030020FD
:102F6000F4000020000000201800002010B50248E6
:102F700000F014F910BD0000A408002010B50248AC
:102F800000F00CF910BD0000CC0A002001F4007222
:102F9000B2F5007F00D100BFCA430280704721B163
:102FA000828942F40052828104E082894DF6FF73E7
:102FB0001A408281704702460020B1F5007F00D19F
:102FC00000BF13880B400BB1012000E000207047C8
:102FD00070B50246002400230025002040F66A1642
:102FE000B14200D100BFC1F3421501F01F03012619
:102FF00006FA03F3012D02D19689334006E0022D33
:1030000002D1168A334001E0968A33400C12012621
:1030100006FA04F41688344013B10CB1012000E024
:10302000002070BDF0B503460024002600250020D6
:1030300040F66A17B94200D100BF1846C1F34214E6
:1030400001F01F06012707FA06F5012C01D10C300B
:1030500004E0022C01D1103000E014301AB10768EE
:103060002F43076002E00768AF430760F0BD000030
:103070002DE9F04786B005460E460024A24600BF63
:10308000A1460027B08900B100BF2F462C8A4CF61C
:10309000FF700440F08804432C82AC894EF6F31094
:1030A0000440B08831890843718908430443AC81E6
:1030B000AC8A4FF6FF400440B0890443AC8201A8BB
:1030C000FFF704FA1F48874202D1DDF810A001E0A3
:1030D000DDF80CA0A88900F4004040B10AEBCA005A
:1030E00000EB0A1031684900B0FBF1F807E00AEB89
:1030F000CA0000EB0A1031688900B0FBF1F86420C7
:10310000B8FBF0F004012009642101FB1089A889B3
:1031100000F4004040B1322000EBC900B0FBF1F0F8
:1031200000F00700044308E0322000EB091064219E
:10313000B0FBF1F000F00F0004432C8106B0BDE8B5
:10314000F08700000038014001468888C0F308007D
:103150007047C1F308028280704770B504460D467F
:1031600001F0BAFC668B01F0D9FC0EB9002070BDED
:10317000218BA068405C287001F0AEFC208B401CC5
:1031800080B22083E189884201DB00202083608BAC
:10319000401E608301F0C2FC0120E8E770B50446E0
:1031A00040F225512068FFF713FFE0B12068FFF7D8
:1031B000CBFFC5B2E18AA0684554E08A401C80B2CA
:1031C000E082E189884201DB0020E082608BE189B6
:1031D000884202DA608B401C6083606A10B1284626
:1031E000616A884700BF40F227712068FFF7F0FE50
:1031F00008B3A08A60B9002240F227712068FFF767
:1032000011FF012240F226612068FFF70BFF37E033
:10321000638A6268D15C2068FFF79BFF608A401C6C
:1032200080B26082A189884201DB00206082A08A8E
:10323000401EA08224E040F226612068FFF7C8FE0D
:10324000F0B1A08A50B9002240F226612068FFF751
:10325000E9FE206AA0B1206A804711E0638A6268B3
:10326000D15C2068FFF775FF608A401C80B26082E5
:10327000A189884201DB00206082A08A401EA082D2
:1032800070BDF8B504460E461746002525E00CE053
:1032900001F022FCA08A009001F040FCA089BDF85A
:1032A0000010884200DD01E000BFF1E700BF705D63
:1032B000228A6168885401F00FFC208A401C80B289
:1032C0002082A189884201DB00202082A08A401C44
:1032D000A08201F023FC681C85B2BD42D7DB01222D
:1032E00040F227712068FFF79DFEF8BD1F48204976
:1032F000086020484860204888604FF480708881CA
:10330000C881002008824882C88208834883888256
:10331000C86108624862194819490860194848603C
:10332000194888604FF480708881C8810020088225
:103330004882C882088348838882C86108624862DC
:103340001248134908601348486013488860802079
:103350008881C881002008824882C8820883488307
:103360008882C861086248627047000000380140E6
:10337000A4080020CC080020CC0900200044004014
:10338000CC0A0020F40A0020F40B0020004C00407E
:10339000F40C00201C0D00209C0D002008B57D4879
:1033A000008800287ED17C48007800F001007B492D
:1033B000097801F00101884216D0784800787649F2
:1033C000097860F3000174480170007800F0010092
:1033D00028B1002220211046FDF7ACFE04E00122B6
:1033E00020210020FDF7A6FE6D4840686421484377
:1033F0006B498968B0FBF1F06A4908800846028889
:103400000C210020FFF799F9012000906448002367
:10341000132142681846FFF739FA6348427A0F21B0
:103420000020FFF78AF9012000905F4800231B214C
:10343000C2681846FFF72AFA5B4842790421002047
:10344000FDF778FE5948007805283FD058480078A5
:1034500000283BD000205649087001220D21FFF7BB
:1034600043F9002221211046FFF73EF900222221D4
:103470001046FFF739F94FA20A210020FFF74CFA56
:103480004CA20B210020FFF747FA0022052110462D
:10349000FFF701F9002206211046FFF7FCF8002291
:1034A000072100E054E01046FFF7F5F8002208215C
:1034B0001046FFF7F0F8002215211046FFF7EBF851
:1034C000002216211046FFF7E6F841E03748007861
:1034D00005283DD136480078002839D101203449EB
:1034E000087000220D211046FFF7FEF8012221216D
:1034F0000020FFF7F9F8012222210020FFF7F4F85D
:103500002DA20A210020FFF707FA2DA20B2100208F
:10351000FFF702FA012205210020FFF7BCF8012283
:1035200006210020FFF7B7F8012207210020FFF74E
:10353000B2F8012208210020FFF7ADF80122152181
:103540000020FFF7A8F8012216210020FFF7A3F8BA
:1035500010480088012807D10090134800230B2150
:10356000C2680120FFF792F90A48008802280FD1AB
:103570000B4840686421484309498968B0FBF1F071
:1035800008490880084602880C210220FFF7D5F878
:1035900008BD00000001002008010020E40E00200A
:1035A00034030020F8000020580200200000002012
:1035B0000201002020200000C5E4D6C33100000035
:1035C000C5E4D6C33200000000BFFEE70FB4054BD0
:1035D00010B503A9044A029800F018F810BC5DF871
:1035E00014FB0000053F00088C01002002E008C821
:1035F000121F08C1002AFAD170477047002001E06D
:1036000001C1121F002AFBD1704700002DE9FF4FB6
:103610008DB00F460546002606E025280BD0DDE9D3
:103620000F1290476D1C761C28780028F5D111B038
:103630003046BDE8F08F0024A246A1460122EC49A5
:1036400000E0044315F8013F203B02FA03F0084272
:10365000F7D128782A2810D06FF02F022878A0F10F
:103660003001092914D80AEB8A0102EB410144F028
:10367000020400EB010A6D1CF0E701CF5FEA000ACB
:1036800003D544F40054CAF1000A44F002046D1C4E
:1036900028782E2817D115F8010F44F004042A28A1
:1036A0000ED06FF02F022878A0F1300109290AD836
:1036B00009EB890102EB410100EB01096D1CF2E706
:1036C00057F8049B6D1C28786C280FD006DC4C281A
:1036D00017D068280DD06A2814D104E0742810D0BF
:1036E0007A280FD10DE044F400140AE044F4801469
:1036F00001E044F440146978814202D104F5801459
:103700006D1C6D1C2A786E2A1FD00CDC632A31D008
:1037100004DC002A8BD0582A11D1A3E0642A68D097
:10372000692A0CD165E0732A2ED004DC6F2A73D08D
:10373000702A04D19BE0752A6FD0782A6ED010468B
:10374000DDE90F129047761C50E1C4F302500228C5
:1037500006D0032809D0042801CF09D0066045E12E
:1037600001CFF117C0E9006140E101CF06803DE1E2
:1037700006703BE117F8040B8DF8000000208DF86F
:103780000100EB46012003E057F804BB4FF0FF3087
:1037900061074FF0000102D40DE008F101018846F5
:1037A00049450FDA8045F8DB1BF808100029F4D1F1
:1037B00008E008F1010188468142FADB1BF8081095
:1037C0000029F6D1DDE90F23AAEB08008146214646
:1037D00000F036F9304400EB080604E0DDE90F1292
:1037E0001BF8010B9047B8F10108F7D22146484673
:1037F000F7E00A21C4F302534FF0000B0891022BAB
:1038000004D001CFC117032B09D00AE0FF1D27F018
:103810000707F7E8020108E032E01FE020E000B20D
:10382000C117042B01D140B2C117031E71F100036F
:1038300007DA4FF0000CD0EB0C006CEB01012D23EC
:1038400002E0230504D52B238DF82430012303E067
:10385000E30701D02023F7E7984658E00A2110E05B
:1038600010210EE010204FF0000B08900CE010210A
:103870004FF0000B44F004044FF00809089103E0F6
:1038800008214FF0000B0891C4F30253022B04D01F
:1038900001CF0021032B06D006E0FF1D27F007070C
:1038A000F7E8020103E080B2042B00D1C0B24FF070
:1038B000000823072BD5702A07D0DDF820C08CF034
:1038C000100C5CEA0B0C05D00EE040238DF8243080
:1038D000012308E050EA010306D030238DF824309C
:1038E0008DF8252002239846DDF820C08CF0080CC6
:1038F0005CEA0B0C0BD150EA010301D1630706D53A
:1039000030238DF824304FF00108A9F10109582A1D
:1039100004D038A20B9208AA0A920BE03AA2F9E767
:103920005B46089AFCF7DFFE0B9B9B5C0A9A521ED3
:103930000A92137050EA0102F2D10A98ADEB00002E
:1039400000F1200B600702D524F4803401E04FF031
:103950000109D94502DDA9EB0B0000E0002000EBD6
:103960000B0141440890AAEB010AE00306D4DDE90B
:103970000F232146504600F063F806444FF000093B
:1039800008E009A911F80900DDE90F12904709F1D3
:103990000109761CC145F4DBE0030CD5DDE90F23FA
:1039A0002146504600F04CF8064404E0DDE90F12D1
:1039B00030209047761C0899481E08900029F5DCB5
:1039C00008E00A980A990078491C0A91DDE90F126B
:1039D0009047761CBBF10001ABF1010BF1DC2146F5
:1039E0005046DDE90F2300F019F806446D1C1BE674
:1039F00009280100303132333435363738396162C5
:103A00006364656600000000303132333435363788
:103A10003839414243444546000000002DE9F04159
:103A2000044600251E461746880404D405E039469E
:103A30002020B0476D1C641EF9D52846BDE8F081F2
:103A40002DE9F041044600251E469046C80301D5E5
:103A5000302700E02027880404D505E04146384699
:103A6000B0476D1C641EF9D52846BDE8F081000002
:103A700070B50546304800EB0514206880470028E3
:103A80003ED02079052802DA0520207152E0207905
:103A90000A2803DA2079401C20714BE0A07A38B95B
:103AA0000120A07205EB4501491CC8B200F0BEF927
:103AB000208900283EDDE088218988420DDAE088EF
:103AC000401C80B2E0802189884233D105EB45015A
:103AD000C91CC8B200F0AAF92CE0E07A002829DD60
:103AE000207B401CC0B22073E17A884222DB002098
:103AF000207305EB4501491CC8B200F097F919E0A5
:103B00002079052802DD0520207110E0207918B108
:103B10002079401E20710AE0A07A012807D10020F8
:103B2000A07205EB4501891CC8B200F07FF90020A6
:103B3000E080207370BD00001C0700200B48807AD5
:103B40000A4AD27A904201D1002070470748807A11
:103B5000064A115C1046807A401CC0B290720A2856
:103B600001DB002090720846EFE70000CC07002040
:103B70000146024800EB0110807A70471C070020C4
:103B800010B54FF44070FEF76BF900F00DF800F03F
:103B900019F900F0DDF800F01BF8FFF745F9FDF723
:103BA00067FBFDF785F910BD0748006840F080709D
:103BB000054908600020054948600846006840F053
:103BC0000100086070470000FCED00E0001000E01C
:103BD00010B500F065F800F001F810BD08B501213E
:103BE0001C20FEF763FC03208DF8020004208DF8F2
:103BF00003001020ADF8000069462648FDF7F9FCE7
:103C00002020ADF8000069462248FDF7F2FC402074
:103C1000ADF8000069461F48FDF7EBFC8020ADF8C9
:103C2000000069461B48FDF7E4FC1020ADF80000D9
:103C300069461948FDF7DDFC2020ADF80000694613
:103C40001548FDF7D6FC0120ADF800006946134881
:103C5000FDF7CFFC0220ADF8000069460F48FDF7E4
:103C6000C8FC4FF40050ADF8000069460B48FDF762
:103C7000C0FC4FF48040ADF8000069460748FDF7EE
:103C8000B8FC4FF40040ADF8000069460348FDF76A
:103C9000B0FC08BD0008014000100140000C0140CC
:103CA00000211E4A9172D1721173002018E0002188
:103CB0001B4A02EB001211810221194A02EB001289
:103CC00011710021164A02EB00129172144A02EBA4
:103CD0000012D172124A02EB00121173411CC8B2D9
:103CE0000B28E4DB0F490E4A11600F4911610F499F
:103CF00011620F4911630F4911640F4911650F4992
:103D000011660F4911670F49C2F880100E49C2F8B9
:103D100090100E49C2F8A01070470000CC07002098
:103D20001C070020011A0008491A0008611A00083F
:103D3000791A0008911A0008A91A0008C11A000887
:103D4000D91A0008F11A0008191A0008311A0008D7
:103D500008B501210820FEF7A9FB012000F048F872
:103D6000022000F045F8032000F042F8042000F0A3
:103D70003FF803208DF8020010208DF803000002A8
:103D8000ADF8000069460E48FDF733FC4FF4805053
:103D9000ADF8000069460A48FDF72BFC4FF480504F
:103DA000ADF8000069460648FDF723FC4FF480504B
:103DB000ADF8000069460248FDF71BFC08BD000095
:103DC000000C014010B5FFF791FAFDF743FDFEF737
:103DD000E7FBFDF7DFFA10BD10B5002404E0204634
:103DE000FFF746FE601CC4B20B2CF8DB10BD0000D0
:103DF000411EC8B220B94FF480510B4A116011E046
:103E0000012803D10103084A11600BE0022803D105
:103E1000C102054A116005E0032803D14FF4805127
:103E2000014A116070470000100C01400649C97A30
:103E3000054A50541146C97A491CC9B2D1720A299F
:103E400001DB0021D1727047CC07002070B5054618
:103E50000E462846FDF782FA04460CB9002070BDD4
:103E600031462046FFF779F9F9E700B502461046DA
:103E7000FDF774FA0346588B00BD2DE9F041054665
:103E80000E4617462846FDF769FA04460CB9BDE808
:103E9000F081E06908B1E06980473A463146204642
:103EA000FFF7EFF900BFF2E710B5044603480078CA
:103EB00010B12046FFF78AFB10BD0000030100206F
:103EC00001490870704700000301002010B5044646
:103ED0000348007810B12046FFF778FB10BD0000C2
:103EE0000301002000B503464FF47A7103FB01F093
:103EF00000F001F800BD0146002000E0401C14283D
:103F0000FCD3704770B504460D46E1B20548FFF793
:103F100020F900BF40210348FFF74DF80028F9D0F1
:103F2000204670BD00380140012080F3108800BF9A
:103F3000FFF726FE0120FFF7C3FFFEF747FBFEF762
:103F400049FF00F0CFFCFDF71FF901F0D7FC00BFDF
:103F5000FEE7000008B501210420FEF7A7FA4FF4A0
:103F60008050ADF8000010208DF8030003208DF87C
:103F7000020069460448FDF73CFB4FF480510248BB
:103F8000FDF7CFFB08BD00000008014010B5044656
:103F90002046FEF753FD10BD10B504460E480068DC
:103FA00044600E480068844207D20B480168091D2E
:103FB0000B48006800F06AFD0CE007480168091D25
:103FC0000848006800F062FD07480068844201D29A
:103FD0000548046010BD00002001002034010020CD
:103FE0002801002024010020500100202DE9F0418B
:103FF00006460F461FB9B00000F0A8FB00E03846A7
:10400000054655B14C2000F0A1FB04460CB12563D8
:1040100004E0284600F098FD00E000242046BDE8BA
:10402000F081000010B500F057FD10480068C8B9D5
:104030000F4800F01BFD0F4800F018FD0C480E491A
:1040400008600C480D49086000220C21052001F091
:1040500021FD064908600846006818B9FCF7B6F863
:1040600000BFFEE700F05AFD10BD00006001002017
:10407000C4100020D8100020580100205C0100204E
:1040800070B523E001F06EFC1348006808B9012008
:1040900000E00020054602F0CFF8BDB900F01CFD9D
:1040A0000D48C068C468201D00F0CCFC0B480068B7
:1040B000401E0A4908600A480068401E0849086016
:1040C00000F02CFD204600F059F800BF04480068BD
:1040D0000028D7D170BD00009C10002030010020C6
:1040E0002C01002070B504460D46206C70B1216C87
:1040F000E0680844E0606168E068884201D32068B5
:10410000E0602846226CE168FCF780F870BD2DE97C
:10411000F04104460E4615460027206C40B37DB999
:104120003146226CA068FCF771F8216CA068084445
:10413000A060D4E9011088421AD32068A06017E07B
:104140003146226CE068FCF761F8216CE068401AA7
:10415000E0602168E068884203D2216C6068401A00
:10416000E060022D04D1A06B10B1A06B401EA063D3
:10417000A06B401CA0633846BDE8F08110B5044632
:10418000206B00F0E1FC204600F0DEFC10BD0000DA
:104190000146084A126812680AB9012200E00022AA
:1041A0000A600A6822B9034A1268D268106800E0FF
:1041B000002070475801002030B54FF430531748A5
:1041C00000F007042CB1C01D20F00700134C041BA5
:1041D0001B1B0246124C22600024114D6C60D0184B
:1041E000083820F007000F4C206000240D4D2D688A
:1041F0006C600C4D2D682C601146441A4C60094CC3
:1042000024680C60084D4C682C60084D4C682C608C
:104210004FF00044064D2C6030BD0000EC10002033
:10422000740100207C010020840100208001002016
:104230008801002000BFFFF723FF03480068012822
:10424000F9D900F0F5FCF6E7E80F00202DE9F0477A
:1042500004460F4616469946DDF82080002507E003
:10426000795D04F134004155785D00B902E06D1CC0
:10427000102DF5D300BF002143200155062E00D399
:104280000526E662201D00F0FEFB04F1180000F098
:10429000FAFB2461C6F10600A0616462002060643C
:1042A00084F84800BDE8F08710B5002407E004EB6F
:1042B00084010F4A02EB810000F0D8FB641C062C3D
:1042C000F5D30C4800F0D2FB0B4800F0CFFB0B48B5
:1042D00000F0CCFB0A4800F0C9FB0A4800F0C6FB1E
:1042E00004480949086004480849086010BD0000F6
:1042F000E80F0020601000207410002088100020BB
:104300009C100020B0100020240100202801002073
:1043100010B50146164800E0006803688B42FBD3E5
:104320000246436813448B4204D143684C682344DB
:10433000436001460A464B6813440468A34211D106
:104340000C4C03682468A34208D04B680468646876
:1043500023444B6003681B680B6005E0054B1B683A
:104360000B6001E003680B60884200D0016010BD63
:10437000740100207C0100202DE9F04104460D4627
:1043800016461F464FF0000865602461B5420CD800
:10439000F01BA169884202D34FF0010811E0211DF2
:1043A0000948006800F072FB0BE0BE4204D2BD4237
:1043B00002D34FF0010804E0211D0448006800F01A
:1043C00065FB4046BDE8F0815C01002058010020FB
:1043D00070B5054600F080FBA86B08B9012400E029
:1043E000002400F09BFB204670BD70B5054600F030
:1043F00073FBA86BE96B884201D1012400E0002423
:1044000000F08CFB204670BDF8B505460F461348FA
:104410000068C068C468201D00F014FBE069012832
:1044200017D1A06941192B463A462046FFF7A4FF51
:1044300001280ED1002003462A460146009020465E
:1044400001F092FF06461EB9FBF7C0FE00BFFEE773
:1044500000BF2046616A8847F8BD0000580100206F
:1044600070B586B05DE0039800285ADB059C606952
:1044700008B9012000E0002010B9201D00F0E2FA88
:1044800002A800F0A7F8054603980A2847D2DFE8FB
:1044900000F00905072B2D4206082C2E00BF00BF97
:1044A00000BF00BF0498A269811803462A4620462F
:1044B000FFF762FF012816D12046616A8847E0694C
:1044C000012810D1002000900498A169421800230F
:1044D0001946204601F048FF06461EB9FBF776FE56
:1044E00000BFFEE700BF1BE000BF19E000BF04985B
:1044F000A061A06908B1012000E0002018B9FBF715
:1045000065FE00BFFEE7A06941192B462A462046FA
:10451000FFF732FF04E0204600F016FB00E000BF8A
:1045200000BF00231A4603A90348006801F0E5FA1A
:10453000002898D106B070BD60010020F8B505468E
:104540000C4601F00FFA684600F044F80646009861
:10455000F0B944B9B54206D801F06EFE314628469E
:10456000FFF752FF16E03CB10B480068006808B93D
:10457000012000E000200446A91B224607480068ED
:1045800000F062FB01F058FE20B900F051FB01E0A1
:1045900001F052FEF8BD00005C0100206001002027
:1045A0000A490968096809B9012100E0002121B11F
:1045B0004FF0FF31064A116006E004490968C968F6
:1045C000C868034A41681160704700002401002058
:1045D0005001002070B5044601F044FD054607482F
:1045E0000068854204D200F00BF80120206001E051
:1045F0000020206001480560284670BD640100204D
:104600002DE9F8432BE020480068C06805681E4883
:104610000068C068C468201D00F014FA2046616A72
:104620008847E06901281AD1A0694619AE4207D926
:1046300066602461211D1448006800F027FA0EE02E
:10464000002003462A4601460090204601F08CFED9
:1046500007461FB9FBF7BAFD00BFFEE700BF0A48D7
:104660000068006808B9012000E000200028CAD0D6
:104670000548D0F8008005480068034908600348F1
:10468000C0F80080BDE8F883580100205C010020DC
:1046900007480068401C08B9012000E0002018B954
:1046A000FBF794FD00BFFEE7FBF790FD00BFFEE7C0
:1046B0006801002008B500BF6846FFF769FD0446A1
:1046C00020460099FFF73AFFFFF7CAFEF4E710B55E
:1046D000044600F001FA11E0606A08B9012000E028
:1046E000002038B904F1240001F060FD18B100F099
:1046F0005BFB00E005E0A06C401EA064A06C0028FD
:10470000EADC00BF4FF0FF30A06400F007FA00F0D1
:10471000E3F911E0206908B9012000E0002050B958
:1047200004F1100001F042FD08B100F03DFB606CA7
:10473000401E606400E002E0606C0028EADC00BF1C
:104740004FF0FF30606400F0E9F910BD2DE9F04151
:1047500004464FF0000801F005F93C48006808B92C
:10476000FFF72AFD3A480068204000285DD19CB13F
:10477000083404F0070078B104F00700C0F1080025
:10478000044404F0070008B9012000E0002018B933
:10479000FBF71CFD00BFFEE7002C46D02D4800684B
:1047A000844242D82C4E3046056801E02E462D68E2
:1047B0006868A04202D228680028F7D12348006820
:1047C000854232D0306800F1080828683060686897
:1047D000001B102812D92F1907F0070008B9012073
:1047E00000E0002018B9FBF7F1FC00BFFEE76868A5
:1047F000001B78606C603846FFF78AFD15496868D1
:104800000968081A134908600846006813490968CE
:10481000884203D20F480068104908600C49686854
:104820000968084368600020286001F005FD08F071
:10483000070008B9012000E0002018B9FBF7C6FC0A
:1048400000BFFEE74046BDE8F08100007C0100208B
:1048500088010020800100207401002084010020D4
:10486000001F4FF080730360001F0160001F034BA7
:104870000360143802602038704700009146000839
:10488000F8B505460F46002400200090002622E0DF
:1048900069460120FFF7DAFA54B99DF80000EE28C6
:1048A00016D19DF800202046611C8CB22A540FE0DE
:1048B0009DF800202046611C8CB22A549DF800000F
:1048C00040EA06266FF44030864201D12046F8BD0A
:1048D000012000F01BFA0120FFF7C7FA0028D7D10A
:1048E00000BFF4E710B50A48406A40F080700849FC
:1048F000486208A0FFF7EAFA10A0FFF7E7FA16A14E
:1049000017A0FFF7E3FA03A0FEF760FE10BD00005A
:10491000001002402A2A2A2A2A2A2A2A2A2A2A2A4D
:104920002A2A2A2A2A2A2A2A2A2A2A2A2A2A2A2AE7
:104930002A2A2A2A2A2A2A2A0D0A00002020202090
:10494000202020202020CDC6C2E9D2C7204956D041
:10495000CD0D0A0D0A00000056312E302E30000019
:1049600056657273696F6E203A2025730D0A000038
:104970001FB501210846FDF789FD01218807FEF7D3
:1049800043F942F20F70ADF808004720ADF804007B
:104990000020ADF80A00ADF8060001A94FF08040F4
:1049A000FEF7C6F9012211469007FEF75CF90121D6
:1049B0008807FEF72CF91C208DF8000000208DF8E8
:1049C000010001208DF802008DF803006846FDF714
:1049D0000FFA1FBD1FB501210220FDF757FD012170
:1049E0001748FEF711F941F2BF20ADF8080042F276
:1049F0000F70ADF804000020ADF80A00ADF8060015
:104A000001A90F48FEF794F9012211460C48FEF760
:104A10002AF920210A48FEF77AF901210848FEF711
:104A2000F6F81D208DF8000000208DF801008DF8AB
:104A3000020001208DF803006846FDF7D9F91FBD7B
:104A40000004004001460A69D1E901309860D1E9CB
:104A5000010358605068884201D188685060002086
:104A600008611068401E10601068704700F108016E
:104A700041604FF0FF31816000F10801C1600161C8
:104A800000210160704700210161704710B50246A6
:104A90000B685C1C0CB9106907E002F1080000E02B
:104AA0004068446824689C42FAD944684C604C6869
:104AB000A160886041600A611468641C146010BDC4
:104AC00042684A6093688B6093685960916008619E
:104AD00003685B1C0360704710B5FBF777FB0D485C
:104AE0000068401C0B490860BFF34F8FBFF36F8F06
:104AF0000846006801280BD107480068C0B208B911
:104B0000012000E0002018B9FBF760FB00BFFEE7C2
:104B100010BD00006801002004ED00E010B5094858
:104B2000006818B9FBF752FB00BFFEE705480068B4
:104B3000401E044908600846006810B90020FBF7D1
:104B40004CFB10BD6801002070B506463546002EAE
:104B500031D0083D2C46184960680968084008B102
:104B6000012000E0002018B9FBF730FB00BFFEE792
:104B7000206808B9012000E0002018B9FBF726FBE7
:104B800000BFFEE70C4960680968084098B12068DA
:104B900088B90949606809688843606000F0E2FEEE
:104BA0000649606809680844044908602046FFF720
:104BB000AFFB01F041FB70BD8801002080010020A7
:104BC00003484FF0E021486107200861704700006A
:104BD0003F19010070B5FBF703FB0546102D0FD3FD
:104BE00005F1E02090F8F0430E480078844201DBA4
:104BF000012000E0002018B9FBF7E8FA00BFFEE74B
:104C00000948006800F4E06008490968884201D852
:104C1000012000E0002018B9FBF7D8FA00BFFEE73A
:104C200070BD00006C0100200CED00E07001002060
:104C30004FF0805003490860BFF34F8FBFF36F8F71
:104C40007047000004ED00E02DE9F04105460E46F6
:104C500017462C46FFF740FF606C401C08B9002047
:104C60006064A06C401C08B90020A064FFF756FFE8
:104C7000A06B28B93A46314604F1240000F054FDF7
:104C80002046FFF724FDBDE8F0810000FCF74EFD53
:104C90000CE04FF47A7000F039F8FCF767FD044936
:104CA000C860C868FDF7EEFA01494871F1E70000F5
:104CB0005802002008B5FCF711FBFCF7F3FA4FF49B
:104CC000FA6000F023F80EA0FEF780FC17E0142035
:104CD00000F01CF869460320FFF7B8F8044674B1E9
:104CE0009DF80000AA2803D11A20FFF79FF806E0DC
:104CF0009DF80000552802D11920FFF797F8E6E744
:104D0000765461736B426C650D0A000070B5044601
:104D1000002634B31548006808B9012000E00020DF
:104D200018B9FBF753FA00BFFEE700F01BFE10486E
:104D3000006805190F480068001DFFF783FE50B991
:104D40000C48006890F82C10012088400A49096836
:104D50008143094801602846FFF71EF901F06CFA0B
:104D600006460EB9FFF764FF70BD00005401002035
:104D7000340100202001002038010020FEF762F8F5
:104D800006A0FEF723FC0120FFF732F804E0012023
:104D9000FFF7BCFFFEF794F8F9E700007654617363
:104DA0006B4C43440D0A0000012001490860704724
:104DB0004401002008B54FF000084FF47A70FCF76A
:104DC0003FFF00260020FCF74DFF47F60730F4496F
:104DD000086100270020F34908700120F24908709B
:104DE00042F21070FFF792FFFEE30220FFF78EFF02
:104DF000EE48007800B9FDE3FEF7A0FE0646192E46
:104E000002D01A2E66D146E00020E9490870E64833
:104E1000007806283ED1E748C079C0F3801070B111
:104E20000120E5490870E348C07920F04000E149DD
:104E3000C871E2A21A210020FDF76EFD2AE00120D0
:104E4000DD4908704FF00008D5480078401CD4496F
:104E5000087008460078032801DD01200870D0485A
:104E6000407800EB4000D94901EB4001CC48007884
:104E7000401E11F81050CF480571D54931F8150082
:104E8000FCF720FF05EBC500D24942181021002095
:104E9000FDF742FD1FE00020C7490870C2480078B6
:104EA000062816D1C348C079C0F3801088B9FCF732
:104EB00047FF0120BE490870C7A210210020FDF75E
:104EC0002BFD012000231A46112100901846FDF702
:104ED000DDFC00E000BF00BFB3480078062869D1C0
:104EE000B348007802282CDD0020B1490870AC4995
:104EF0000870B048807900F0010010B3AD48007927
:104F000018B1AC48007901281BD1B8F1000F18D1B5
:104F10004FF00008A2484068A1494861084641682E
:104F20000069814207D99E4840689D490969401A35
:104F30009B49C86002E000209949C8600B209A494B
:104F400008709C48007918B19A480079012831D13D
:104F50009848C079C0F38010A0B997480078052818
:104F600010DD9448C07920F0400040309149C8716C
:104F70009BA21A210020FDF7CFFC9CA0FDF794F91D
:104F80004FF001088B48C079C0F3801090B18A4877
:104F9000007808280EDD8748C07920F04000854958
:104FA000C87100208449087084A21A21FDF7B4FC5E
:104FB0004FF000087C48007810287DD2DFE800F030
:104FC000EF082A5EEEB4EDECEBEAE9E87C7CE7E67C
:104FD00075480078844201D0734804787548C079D8
:104FE00000F0010068B971480078012811D1FCF780
:104FF0008BFD7048C07920F00100401C6D49C871DC
:1050000007E07FA21A210020FDF786FC03206649F5
:105010000870EDE264480078844206D06248047863
:105020007BA21A210020FDF777FC6248007A00F08D
:10503000010010B903205C4908705E48007801281F
:105040000BD0FCF77DFE0020FCF70CFE8620FCF761
:1050500039FE0120574908700FE07348007860B9A5
:10506000022050490870FCF76BFE0020FCF7FAFDA7
:105070000020504908704C490870B9E24A4800784D
:10508000844206D04848047868A21A210020FDF71F
:1050900043FC1D2E0FD14748007A20F00100401C30
:1050A00044490872FCF74CFE00203D49486062A26A
:1050B0001221FDF731FC00E099E23E48007A00F051
:1050C000010008B36FB95CA21A210020FDF724FC8F
:1050D000781CC7B202203449087005205249087074
:1050E00021E06420FDF7BFFA55A21A210020FDF748
:1050F00013FC3048C07920F00200801C2D49C87193
:105100000520294908700EE02A48007802280AD0B4
:10511000FCF716FE0120FCF7A5FD8620FCF7D2FD6A
:1051200002202449087063E2FCF784FD1E480078E1
:10513000844206D01C48047845A21A210020FDF7BD
:10514000EBFB1C48007848B1FCF7FAFD0020FCF7A7
:1051500089FD002017490870FCF76CFD192E14D149
:1051600014488079C0F3400018B108200E49087037
:105170000BE010488079C0F3800018B109200A497B
:10518000087002E006200849087031E20DE2E6E10D
:105190007EE1B8E1B1E08CE051E1D1E01CE15DE0FD
:1051A000340300200100002000000020EC0000205B
:1051B000040100205802002005010020D7D4B6AF1A
:1051C000B8F8D2A9C8A1CFFB0000000080000020E1
:1051D0007000002028000020CDA3D6B900000000F8
:1051E000D7D4B6AFB8F8D2A92E2E2E00613A2F73BD
:1051F0006F756E64732F7A6467792E6D703300005B
:105200004C4344B3F5CABCBBAFCDEAB3C9A1A300BC
:10521000BCECB2E2B9E9C1E3B4ABB8D0C6F72CC973
:10522000CFC9FD2E2E2E000006010020B6A5B8CB5A
:10523000B9E9C1E32E2E2E00D2D1B4A5B5D7000016
:10524000B6A5B8CBB9E9C1E3CDEAB3C90000000007
:10525000B4A5B5D7B4FDBBFA00000000E64800785D
:10526000844210D0E4480478AFF218021A210020DA
:10527000FDF752FBE1480078022804D1E0A21A2190
:105280000020FDF749FBE248007820B1FCF758FD0B
:105290000020DF490870D9480078022800D1A7E132
:1052A000192E05D10120DB4908700620D24908706B
:1052B0009EE1D1480078844206D0CF480478D6A237
:1052C0001A210020FDF728FBD648406848F689716E
:1052D000884202D90020C8490870CD4800780128CA
:1052E0000AD0FCF72DFD0020FCF7BCFC8620FCF763
:1052F000E9FC0120C64908707AE1BF480078844281
:1053000006D0BD480478C8A21A210020FDF704FB8E
:10531000C4484068B0F54D5F02D90020B649087016
:10532000BB48007801280AD0FCF70AFD0020FCF7F2
:1053300099FC8620FCF7C6FC0120B549087057E1AE
:10534000AD480078844206D0AB480478B9A21A214F
:105350000020FDF7E1FAB3484068B2498968884205
:1053600004D2AB48007AC0F3400028B1FCF7E8FC57
:105370000420A14908702EE0A548007801282AD011
:105380000120A84908700846407800EB4000AC496D
:1053900001EB4001A3480078401E11F810509C48D2
:1053A0000571A84931F81500FCF78CFC05EBC50028
:1053B000A549421810210020FDF7AEFAFCF7C0FC09
:1053C0000020FCF74FFC9F4931F81500FCF77AFCF0
:1053D00001208F4908700BE187480078844206D08D
:1053E0008548047899A21A210020FDF795FA88488B
:1053F000007838B1FCF7A4FC0120FCF733FC002056
:1054000083490870192E08D1AFF2E0121A2100204A
:10541000FDF782FA0F20784908707D48007902284C
:1054200003D07B480079032808D1AFF200221A216B
:105430000020FDF771FA0F206F490870D8E06E4820
:105440000078844206D06C48047884A21A21002097
:10545000FDF762FA6E48007A00F0010010B10420F6
:10546000654908706A48007802280BD0FCF768FC90
:105470000120FCF7F7FB2620FCF724FC02206449FE
:10548000087004E01A2E02D100205B490870AFE0DA
:1054900059480078844206D05748047872A21A21ED
:1054A0000020FDF739FA5F4840685E49C9688842C4
:1054B00002D95C48406888B9FCF742FC5948406909
:1054C0005849C86052480079012803D14FF47A70D6
:1054D000FFF71CFC0A204849087013E04C4800788C
:1054E00002280FD0FCF72CFC0120FCF7BBFB862028
:1054F000FCF7E8FB5FA212210020FDF70DFA022065
:105500004349087074E03C480078844206D03A4829
:1055100004785BA21A210020FDF7FEF9414841689A
:10552000C068401E814205D9FCF70AFC00203249C0
:10553000087013E03648007801280FD0FCF700FC13
:105540000020FCF78FFB8620FCF7BCFB4FA212214A
:105550000020FDF7E1F901202D49087048E03148AD
:10556000406830498968884204D22948007AC0F3EB
:10557000400028B1FCF7E4FB04201F49087013E049
:105580002348007801280FD0FCF7DAFB0020FCF755
:1055900069FB2620FCF796FB3FA21A210220FDF7AB
:1055A000BBF901201A49087022E01948007A00F07E
:1055B000010028B1FCF7C4FB05200F49087015E075
:1055C00013480078022811D0FCF7BAFB0120FCF741
:1055D00049FB2620FCF776FB33A21A210220FDF7B7
:1055E0009BF902200A4900E004E0087000E000BFD7
:1055F00000BF00BFFFF7F9BB000000200100002042
:10560000C1E3CEBBB4ABB8D0C6F7B9CAD5CF0000A2
:105610005802002005010020D7D4B6AFC5C5BFD5BC
:105620002E2E2E0034030020B6FEB4CEC5C5BFD545
:105630002E2E2E00B6A5B8CBC9CFC9FD2E2E2E001A
:10564000800000207000002028000020B5BDB6A515
:10565000CDA3BBFAB4FDBBFA00000000B6A5B8CBE1
:10566000CFC2BDB52E2E2E00BBD8CEFCCFC2BDB54D
:105670002E2E2E00BBD8CEFCCFC2BDB50000000040
:10568000BBD8CEFCC9CFC9FD2E2E2E00BBD8CEFC78
:10569000C9CFC9FD00000000B6A5B8CBBCECB2E98B
:1056A000C9CFC9FD00000000B6A5B8CBBCECB2E97B
:1056B000CFC2BDB50000000070B505460C461DB94F
:1056C000FAF784FD00BFFEE7134801681831284649
:1056D000FFF7DCF910480068001DFFF7B3F950B977
:1056E0000D48006890F82C10012088400B4909688B
:1056F00081430A480160601C30B907480168091DF0
:105700000748FFF7DDF905E006480068061930464E
:10571000FEF742FC70BD000020010020380100208F
:10572000B0100020340100202DE9F04104460D4660
:1057300016461CB9FAF74AFD00BFFEE71348016898
:1057400018312046FFF7BCF910480068001DFFF72C
:1057500079F950B90D48006890F82C100120884064
:105760000B49096881430A480160012E06D10748A8
:105770000168091D0748FFF7A3F905E0064800681E
:1057800047193846FEF708FCBDE8F08120010020EB
:1057900038010020B01000203401002000248DE0EA
:1057A0001420FFF7B3FAFBF7DBFA4548007A00F064
:1057B0000100A04213D04248007A00F001044048A2
:1057C000007A00F0010028B13EA21D210020FDF763
:1057D000A3F804E03DA21D210020FDF79DF8002064
:1057E000FEF7C6F930B13648807920F040003449E0
:1057F000887106E03248807920F04000403030491E
:1058000088710920FEF7B4F930B12D48007A20F0F4
:1058100001002B49087206E02948007A20F00100B7
:10582000401C274908722B4840682A4989688842E9
:1058300007D32348007A20F00200801C2049087218
:1058400005E01F48007A20F002001D4908720A2076
:10585000FEF78EF938B11A48007A20F00400001DD6
:105860001749087205E01648007A20F00400144930
:1058700008720A20FEF77CF938B11148007A20F04E
:10588000080008300E49087205E00D48007A20F043
:1058900008000B4908720A48C068B0F57A7F07D93A
:1058A0000748007A20F0100010300549087205E022
:1058B0000348007A20F010000149087270E70000E8
:1058C00058020020D2D1B4A5B5D70000CEB4B4A5FB
:1058D000B5D700003403002010B504461CB9FAF710
:1058E00075FC00BFFEE703480068206002480068BE
:1058F000606010BD48010020340100201FB5002069
:105900000090019002900346802210A1039011485C
:1059100000F0FEFA0446012C02D100F001FD04461D
:10592000012C0DD1FAF752FCA01E0B490860012092
:105930000A49086000200A49086000F05BF804E0AA
:105940001CB9FAF743FC00BFFEE71FBD49444C45B4
:105950000000000035420008500100203C010020FA
:105960003401002002480068401C0149086070476B
:105970005401002010B51A48006818B101201949D7
:1059800008602BE000201749086017480068B0FA4B
:1059900080F0C0F11F0404EB8400144951F820008A
:1059A00008B1012000E0002018B9FAF70FFC00BF91
:1059B000FEE704EB84010D4A02EB8100416849686F
:1059C000416000F1080142688A4202D14168496899
:1059D00041604168C968064A116000BF10BD0000FF
:1059E000540100204401002038010020E80F00206D
:1059F000200100201CB52248014609780191FF21B1
:105A0000024611700146097800919DF8001001F0DE
:105A100010011C4A117007211B4A116009E01A4944
:105A20000968491E184A11609DF800104906090EC0
:105A300000919DF8001001F080018029EFD01249FB
:105A400009680902104A11601146098801F4E061F1
:105A500011600B4A019911700C48006840F4700005
:105A60000A4908600846006840F070400860FFF787
:105A7000A7F8002006490860FAF776FB00201CBD55
:105A800000E400E06C0100207001002020ED00E047
:105A9000680100202DE9F04706460D4691464FF07B
:105AA00000080EB1012000E0002018B9FAF78EFBC3
:105AB00000BFFEE70DB9002702E006FB05F0471C1A
:105AC00007F14C00FEF742FE044664B10DB92460B4
:105AD00002E004F14C002060E663256401212046C9
